:020000040800F2
:100000006021002075020008751F0008D51900083E
:10001000811C000855070008FF24000800000000AC
:10002000000000000000000000000000DD010008EA
:1000300057070008000000002102000859200008AE
:100040008F0200088F0200088F0200088F0200084C
:100050008F0200088F0200088F0200088F0200083C
:100060008F0200088F0200088F0200088F0200082C
:100070008F0200088F0200088F0200088F0200081C
:100080008F0200088F0200088F0200088F0200080C
:100090008F0200088F0200088F0200088F020008FC
:1000A0008F0200088F0200088F0200088F020008EC
:1000B0008F0200088F0200088F0200088F020008DC
:1000C0008F0200088F0200088F0200088F020008CC
:1000D0008F0200088F0200088F0200088F020008BC
:1000E0008F0200088F0200088F0200088F020008AC
:1000F0008F0200088F0200088F0200088F0200089C
:100100008F0200088F0200088F0200088F0200088B
:100110008F0200088F0200088F020008D520000817
:100120008F0200088F0200088F0200088F0200086B
:1001300000F002F800F042F80AA090E8000C8244B7
:100140008344AAF10107DA4501D100F037F8AFF294
:10015000090EBAE80F0013F0010F18BFFB1A43F0A5
:10016000010318476C4100008C410000103A24BF85
:1001700078C878C1FAD8520724BF30C830C144BF0C
:1001800004680C607047000000230024002500264E
:10019000103A28BF78C1FBD8520728BF30C148BFEA
:1001A0000B607047642900F0A180752900F09E80E3
:1001B000002070471FB51FBD10B510BD00F097FAA5
:1001C0001146FFF7F7FF02F0ACF900F0B5FA03B4FF
:1001D000FFF7F2FF03BC02F0A3F90000224B1968FD
:1001E0000868B0E8F00F80F30988BFF36F8F4FF015
:1001F000000080F311884EF00D0E704700000000E3
:1002000006480068006880F3088862B661B6BFF3EC
:100210004F8FBFF36F8F00DF00BF00BF08ED00E01E
:10022000EFF30980BFF36F8F0F4B1A6820E9F00FCF
:10023000106008B54FF0500080F31188BFF34F8F66
:10024000BFF36F8F03F09AF84FF0000080F311882E
:10025000BDE8084019680868B0E8F00F80F3098825
:10026000BFF36F8F704700BF20000020EFF30580C1
:10027000704700000948804709480047FEE7FEE74D
:10028000FEE7FEE7FEE7FEE7FEE7FEE7FEE7FEE746
:1002900004480549054A064B70470000D120000874
:1002A00031010008601B002060210020601D00203B
:1002B000601D0020704700000FB41CB50C0007AA99
:1002C000009001D02044401E074B7B4469460190BA
:1002D000069800F098F9002C03D06946002000F041
:1002E000A5F91CBC5DF814FB690300002DE9F04181
:1002F0000646002410687529314616A510D0AFF3C4
:100300000080002802DA404213A507E031688A071E
:1003100001D512A502E0490704D511A5012401E089
:10032000AFF3008000210A2206F1240709E0B0FBA8
:10033000F2FCB0FBF2F302FB1C003030785418469C
:10034000491C0028F3D123462A463046BDE8F04137
:1003500000F0FBB8000000002D0000002B000000A2
:10036000200000002DE9F0410F46054600202862DC
:100370002846E968884770B3252805D0D5E90121CA
:100380009047286A401CF2E7E9682846002688471B
:100390006C2804460AD0682C08D04C2C35D06A2C26
:1003A00031D0742C31D07A2C2FD016E0E968064673
:1003B00028468847B042044608D16C2E23D04FF41B
:1003C00080662846E9688847044606E06C2E03D01C
:1003D0004FF4807601E01EE04026E4B1A4F1410034
:1003E000192802D8203446F400663A4621462846A9
:1003F0002E60FFF7D7FE60B1012808D0FF1D27F05F
:1004000007070837B4E78026DBE70026D9E73F1D5A
:10041000AEE72046B2E7286ABDE8F08110B5431C7C
:1004200002E010F8011B71B18107FAD14FF00132DF
:1004300002C88C1A8C4314EAC211F9D0C01A0A06F9
:1004400003D0C01E10BDC01A10BD0A0401D0801E0A
:1004500010BD0902FCD0401E10BD032A40F23080BE
:1004600010F0030C00F0158011F8013BBCF1020FF5
:10047000624498BF11F801CB00F8013B38BF11F876
:10048000013BA2F1040298BF00F801CB38BF00F88D
:10049000013B11F0030300F0D680083AC0F0088059
:1004A00051F8043B083A51F804CBA0E80810F5E7EE
:1004B000121D5CBF51F8043B40F8043BAFF30080D1
:1004C000D20724BF11F8013B11F801CB48BF11F846
:1004D000012B24BF00F8013B00F801CB48BF00F816
:1004E000012B704702F0FF0343EA032242EA024273
:1004F00000F0DDB84FF0000200B513469446964672
:10050000203922BFA0E80C50A0E80C50B1F1200126
:10051000BFF4F7AF090728BFA0E80C5048BF0CC0D4
:100520005DF804EB890028BF40F8042B08BF704732
:1005300048BF20F8022B11F0804F18BF00F8012BA4
:10054000704770477047704770472DE9F0470D4678
:1005500099469246044600F124080168880604D5AD
:10056000E06921F01001216000E00120A84201DDD6
:10057000471B00E00027A1697A1902EB0900081A5D
:10058000A0612078C00602D42046AFF30080002688
:1005900008E0D4E901211AF806009047206A401CBF
:1005A000761C20624E45F4DB2078C0060AD5204632
:1005B000AFF3008006E0D4E9012130209047206AA3
:1005C000401C2062381EA7F10107F4DC07E0D4E9E3
:1005D000012118F805009047206A401C2062281E5F
:1005E000A5F10105F3DC2046AFF30080207800067A
:1005F00002D50220BDE8F0870120FBE701694A1C13
:1006000002610878704700B58FB0CDE90131002153
:10061000059105497944CDE9031011466846FFF775
:10062000A1FE0FB000BD0000E5FFFFFF0A6802F861
:10063000010B0A607047D1E900239A4202D2531C91
:100640000B601070704710B5203AC0F00B80B1E815
:100650001850203AA0E81850B1E81850A0E81850F7
:10066000BFF4F5AF5FEA027C24BFB1E81850A0E800
:10067000185044BF18C918C0BDE810405FEA827C1A
:1006800024BF51F8043B40F8043B08BF7047D20731
:1006900028BF31F8023B48BF11F8012B28BF20F8D2
:1006A000023B48BF00F8012B70474FF000020429BD
:1006B000C0F0128010F0030C3FF41EAFCCF1040C1C
:1006C000BCF1020F18BF00F8012BA8BF20F8022BC5
:1006D000A1EB0C01FFF710BF5FEAC17C24BF00F85B
:1006E000012B00F8012B48BF00F8012B704775461D
:1006F00000F02CF8AE4605006946534620F007008E
:10070000854618B020B5FFF7C3FDBDE820404FF087
:1007100000064FF000074FF000084FF0000B21F0EB
:100720000701AC46ACE8C009ACE8C009ACE8C009B8
:10073000ACE8C0098D46704710B50446AFF30080A1
:100740002046BDE81040FFF742BD0000004870475A
:10075000FC1A0020FEE770472DE9F04121480068AF
:10076000416A21480068436A204A548810881C1B4B
:1007700025B21F4C081A118000B25380208065807A
:10078000616801446160A1682944A16003F084FBB1
:10079000184F394603F098FB0646E060284603F000
:1007A0007BFB394603F090FB2061656907462946CB
:1007B000304603F055FC104E314603F085FB2946C8
:1007C00003F0ECFA6061A5693846294603F048FC5D
:1007D000314603F079FB294603F0E0FAA061BDE859
:1007E000F081000008010020500100200C000020D2
:1007F000A0000020C7E28041CDCC4C3E72B6FEE79F
:100800002DE9F84FDFF8C8910024A9F1040B234625
:100810000F2709F1040AABF1040ED1E00125A54030
:1008200006EA0502AA4276D1DFF8A8C14E68A6EB17
:100830000C0866452BD00DDC032E34D005DC36B316
:10084000012E19D0022E2FD11BE0112E16D0122E00
:100850002AD119E0B8F5881F19D006DCB8F5803F19
:1008600015D0B8F5801F1FD111E0B8F5001F0ED0CC
:10087000B8F5041F18D10AE0CB6815E0CB681B1D42
:1008800012E0CB6808330FE0CB680C330CE08B68C8
:100890002BB1012B4FF0080303D0456104E0042382
:1008A00002E0056100E00023FF2A01D8064601E0CE
:1008B00000F104064FEA840501D9A5F12005D6F818
:1008C000008007FA05FC28EA0C0803FA05F548EA57
:1008D0000508C6F800804D68ED0070D53E4DAE6944
:1008E00046F00106AE61AD6924F0030605F001058E
:1008F00000953A4D06EB050CDCF80850A607360FBC
:1009000007FA06F825EA0805DFF8D480404503D148
:100910004FF0000825E052E0DFF8C880404502D1E2
:100920004FF001081DE0DFF8C080404502D14FF0D4
:10093000020816E0DFF8B480404502D14FF003080A
:100940000FE0DFF8AC80404502D14FF0040808E02A
:10095000DFF8A080404502D14FF0050801E04FF0DC
:10096000060808FA06F848EA0508CCF808804D6839
:10097000D9F80060ED024D4601D5164300E09643DC
:100980002E604D68DAF80060AD02554601D5164379
:1009900000E096432E604D68DBF80060AD035D46D5
:1009A00001D5164300E096432E604D68DEF80060E6
:1009B000ED03754601D5164300E096432E60641C96
:1009C0000A681646E2407FF429AFBDE8F88F0000C0
:1009D0000804014000001110001002400000014016
:1009E00000080140000C01400010014000140140CB
:1009F00000180140001C01400AB101617047090460
:100A0000FBE70000014880687047000010000020EC
:100A1000024881680278114481607047100000200C
:100A2000074810B5016841F010010160032000F093
:100A3000A7F80F2000F006F800F050F8002010BDD5
:100A40000020024030B505461F4887B0C16941F01B
:100A50002001C161C06906A900F02000009001A832
:100A600000F036F90498B0B100F052F9400017498F
:100A7000174AB0FBF1F11748491E0260416040F28D
:100A8000E7320021C0E903218160816100F056FB5B
:100A9000040003D015E000F03BF9E8E70D4800F052
:100AA0008FFB04000DD1372000F03CF8102D07D249
:100AB00000222946372000F043F80748056000E08F
:100AC000012407B0204630BD0010024040420F0014
:100AD00000140040E0010020140000200F4808B579
:100AE000816941F001018161816901F00101009199
:100AF000C16941F08051C161C069002200F080509D
:100B000000900F21901E00F01BF80548416821F06D
:100B1000E06141F00071416008BD0000001002403A
:100B200000000140002809DB00F01F020121914074
:100B30004009800000F1E020C0F80011704700007B
:100B4000F0B40E4B1B680C46C3F30223C3F1070538
:100B5000042D00D90425191D072901D2002300E026
:100B6000DB1E012606FA05F1491E214099409E40F0
:100B7000761E16403143F0BC01F0C2BC0CED00E023
:100B8000064900F0070208684FF6FF03184040EAE4
:100B90000220034A10430860704700000CED00E09B
:100BA0000000FA052DE9F0470F46050061D0434EDD
:100BB000306800F00700B84209D2306820F0070022
:100BC00038433060306800F00700B84251D12868DF
:100BD0003B4C810712D5400703D5606840F4E060C4
:100BE00060602878000703D5606840F4605060605A
:100BF0006068A96820F0F000084360602878C007AA
:100C000028D06868012810D02168022810D08907F0
:100C100000292EDA616821F0030101436160FFF7CA
:100C2000F1FE804641F288390DE021688903EFE743
:100C30008901EDE7FFF7E6FEA0EB0801494502D97F
:100C40000320BDE8F0876068696800F00C00B0EB35
:100C5000810FEFD1306800F00700B8420BD930683F
:100C600020F0070038433060306800F00700B842D9
:100C700001D00120E5E72878400705D56068E968DC
:100C800020F4E060084360602878000706D56068BB
:100C9000296920F4605040EAC100606000F058F813
:100CA0006168084AC1F30311515CC84006490860F5
:100CB00006480068FFF7C6FE0020C2E70020024099
:100CC00000100240A64100081C0000201400002073
:100CD0000F2202600C4A536803F003034360536819
:100CE00003F0F0038360536803F4E063C360526869
:100CF0004FF4E06303EAD20202610448006800F0A6
:100D00000700086070470000001002400020024009
:100D10000448054900684968044AC1F30221515C4E
:100D2000C84070471C00002000100240B641000877
:100D30000448054900684968044AC1F3C221515C6E
:100D4000C84070471C00002000100240B641000857
:100D50000E4A51680E4801F00C03042B11D0082BE9
:100D60000FD10C48C1F38343C903C05C0AD5516855
:100D7000084AC1F34041921E515C054A5043B0FB02
:100D8000F1F07047044948437047000000100240EA
:100D900000127A009641000800093D002DE9F84F45
:100DA000040070D02078C04DC00749D06868C0F3F7
:100DB0008100012807D06868C0F38100022809D1AA
:100DC0006868C00306D52868800339D560680028A4
:100DD000E7D035E06068B0F5803F0BD010B1B0F5DA
:100DE000A02F11D0286820F480302860286820F4D3
:100DF000802002E0286840F480302860606890B16C
:100E0000FFF700FE06460AE0286840F480202860CC
:100E1000F0E700BFFFF7F6FD801B642873D8286851
:100E20008003F7D50CE0FFF7EDFD064605E000BFB7
:100E3000FFF7E8FD801B6428F0D828688003F7D40A
:100E400020789A4E80074FF001094FF0000839D5FD
:100E5000686810F00C0F07D06868C0F381000228A2
:100E600009D16868C00306D42868800714D52069B2
:100E7000012808D110E02069B0B1C6F80090FFF752
:100E8000C1FD074605E00AE1FFF7BCFDC01B0228D3
:100E9000C4D828688007F7D52868616920F0F80071
:100EA00040EAC10028600DE0C6F80080FFF7AAFD07
:100EB000074604E0FFF7A6FDC01B022823D82868D8
:100EC0008007F7D4207800072CD57948A169D9B1DB
:100ED000C0F80090FFF796FD074604E0FFF792FD8B
:100EE000C01B02280FD8686A8007F7D571484FF4F5
:100EF000FA510068B0FBF1F0009000BF0098411E6D
:100F00000091FAD20EE080E0C0F80080FFF77AFD91
:100F1000074604E0FFF776FDC01B022875D8686A13
:100F20008007F7D42078400760D5E8690027C00023
:100F300008D4E86940F08050E861E869012700F0D2
:100F4000805000905C480168C90513D4016883464D
:100F500041F480710160FFF755FD824606E000BF55
:100F6000FFF750FDA0EB0A0064284ED8DBF8000024
:100F7000C005F5D5E06801280AD008B1052813D0CE
:100F8000286A20F001002862286A20F0040002E0AC
:100F9000286A40F001002862E06841F2883B98B17D
:100FA000FFF730FD82460BE0286A40F0040028621B
:100FB000EEE700BFFFF726FDA0EB0A0159455AD81E
:100FC000286A8007F6D50CE0FFF71CFD824605E095
:100FD000FFF718FDA0EB0A0159454CD8286A800795
:100FE000F6D41FB1E86920F08050E861E06988B369
:100FF0006968C1F38101022944D00228C6F86080E3
:1010000004D0FFF7FFFC044638E034E0FFF7FAFCB9
:10101000074604E0FFF7F6FCC01B02282BD828681F
:101020008001F7D4206AB0F5803F05D16868A168D7
:1010300020F4003008436860D4E908010843696877
:1010400021F4741108436860C6F86090FFF7DAFC79
:10105000044606E025E000BFFFF7D4FC001B022891
:1010600009D828688001F7D51BE000BFFFF7CAFC4C
:10107000001B022802D90320BDE8F88F28688001F0
:10108000F4D40EE00128F7D06868226A00F48031B9
:10109000914204D1616A00F47010884201D00120AD
:1010A000EAE70020E8E700000010024000004242AA
:1010B000800442421C0000200070004070477047CE
:1010C00070B590F83C20012A2CD0012480F83C40D7
:1010D000022280F83D2003685A689D6822F070065D
:1010E0000A6832435A60104B02689A420ED00F4B86
:1010F0009A420BD0B2F1804F08D00D4B9A4205D0E6
:101100000C4B9A4202D00C4B9A4204D1496825F00C
:1011100080031943916080F83D40002180F83C1025
:10112000084670BD022070BD002C01400034014013
:101130000004004000080040000C004010B504000E
:1011400003D094F83D0010B107E0012010BD00204D
:1011500084F83C00204600F01FF8022084F83D008F
:10116000211D206800F0BCFF012084F8460084F8AF
:101170003E0084F83F0084F8400084F8410084F881
:10118000420084F8430084F8440084F8450084F861
:101190003D00002010BD000008B5006806498842E7
:1011A00008D10648C16941F00201C161C06900F07F
:1011B0000200009008BD0000000400400010024042
:1011C00090F83D10012901D001207047022180F8DC
:1011D0003D100168CA6842F00102CA6000680E4909
:1011E00088420ED00D4988420BD0B0F1804F08D014
:1011F0000B49884205D00B49884202D00A498842EF
:1012000004D1816801F00701062903D0016841F08B
:101210000101016000207047002C014000340140B2
:101220000004004000080040000C004070B5044677
:1012300090F83C000025012817D0012684F83C6076
:10124000022084F83D002068826822F0770222F4B0
:101250007F4282600868502838D00DDC20284FD0AB
:1012600005DC90B3102811D14AE0022070BD30286F
:1012700046D040280AD13BE060282FD070280DD0FE
:10128000B0F5805F03D0B0F5005F12D0012584F87F
:101290003D60002084F83C00284670BDCB68D1E951
:1012A0000121206800F077FF2068816841F0770114
:1012B00009E0CB68D1E90121206800F06CFF2068CB
:1012C000816841F480418160E1E719E0CA684968BA
:1012D000206801F035F85021206806E0CA684968A6
:1012E000206801F03EF86021206800F05EFFCEE744
:1012F000CA684968206801F023F840212068F4E7B3
:10130000226801461046F0E72DE9F0410D46040041
:1013100003D094F83D0018B108E00120BDE8F08149
:10132000002084F83C00204600F040F8022084F8B9
:101330003D002068816844F2070291438160211DCD
:10134000206800F0CDFE226890689169166A2B68CB
:10135000AF69034340F20330814341EA0721A868A3
:10136000EF6908434FF6FC418843E96840EA0720EB
:10137000014328692F6A000140EA07300843696881
:101380006D6926F0220646EA051529439360226816
:10139000906154F8460B0162012004F81F09E075C2
:1013A0002076E0762077A0750020B7E700B585B0FD
:1013B000002100910191029103911A4B02681A4891
:1013C000C0219A4213D1C26942F00402C261C269CB
:1013D00002F004020492826942F00802826180698C
:1013E000009100F0080004906946104815E0104B89
:1013F0009A4214D1826942F400528261826902F4F5
:1014000000520492826942F0100282618069009168
:1014100000F01000049069460648FFF7F1F905B0A6
:1014200000BD00000008004000100240000C014018
:10143000003401400010014070B590F83E60044651
:1014400090F83F5090F8423090F84320022021B1AC
:1014500004290ED0012E1BD114E0012E18D1012B2E
:1014600016D184F83E0084F8420001220021206851
:1014700020E0012D0CD1012A0AD184F83F0084F824
:10148000430014E0012D03D1012B01D1012A01D029
:10149000012070BD84F83E0084F83F0084F84200CB
:1014A00084F8430001220021206800F067FE012239
:1014B0000421206800F062FE2068016841F001010B
:1014C0000160002070BD70472DE9F04104460068BE
:1014D000C66805694FF00007A90713D5B10711D5F4
:1014E000F91E01610120207720688069800720466D
:1014F00002D0FFF7E8FF04E000F0B6F8204600F065
:1015000048F92777680716D5700714D521686FF05A
:1015100004000861022020772068806910F4407F71
:10152000204602D0FFF7CFFF04E000F09DF82046F0
:1015300000F02FF92777280715D5300713D5216834
:101540006FF008000861042020772068C0698007D8
:10155000204602D0FFF7B7FF04E000F085F82046F0
:1015600000F017F92777E80616D5F00614D521689C
:101570006FF010000861082020772068C06910F41F
:10158000407F204602D0FFF79EFF04E000F06CF899
:10159000204600F0FEF82777E80708D0F00706D0CD
:1015A00021686FF001000861204600F04DF928061F
:1015B00008D5300606D521686FF080000861204606
:1015C000FFF77CFD680608D5700606D521686FF028
:1015D00040000861204600F041F9A8060AD5B0068F
:1015E00008D521686FF0200008612046BDE8F04171
:1015F000FFF765BDBDE8F08110B586B00021009110
:1016000001910291039100681349884221D1134846
:10161000816941F004018161816901F00401049153
:10162000816941F0080181618069022400F00800AD
:101630000490C020CDE90004694609480394FFF7EF
:10164000DFF80320CDE90004694606480394FFF75C
:10165000D7F806B010BD00000004004000100240A2
:1016600000080140000C0140704770B5044690F836
:101670003C0000260D4601280FD0012084F83C00D4
:101680006AB1042A1DD0082A2FD00C2A3FD0012687
:10169000002084F83C00304670BD022070BD2068F8
:1016A00000F08CFD2068816941F0080181612068AB
:1016B000816921F004018161206881692A691143EF
:1016C00011E0206800F0AAFD2068816941F4006102
:1016D00081612068816921F480618161206881696C
:1016E0002A6941EA02218161D2E7206800F0CCFD3D
:1016F0002068C16941F00801C1612068C16921F019
:101700000401C1612068C1692A69114311E02068A0
:1017100000F0EEFD2068C16941F40061C1612068FC
:10172000C16921F48061C1612068C1692A6941EA07
:101730000221C161ACE710B5040003D094F83D006C
:1017400010B107E0012010BD002084F83C002046C5
:1017500000F01EF8022084F83D00211D206800F0F2
:10176000BFFC012084F8460084F83E0084F83F0066
:1017700084F8400084F8410084F8420084F8430073
:1017800084F8440084F8450084F83D00002010BD32
:101790007047704710B50446022249B104290ED0A3
:1017A000082913D094F84100012816D0012010BD5B
:1017B00094F83E000128F9D184F83E200FE094F817
:1017C0003F000128F2D184F83F2008E094F840005F
:1017D0000128EBD184F8402001E084F84120012267
:1017E000206800F0CBFC13492068134A884201D0DE
:1017F000904203D1436C43F4004343642068884221
:101800000DD090420BD0B0F1804F08D00B498842E8
:1018100005D00B49884202D00A49884204D1816828
:1018200001F00701062903D0016841F001010160C0
:10183000002010BD002C0140003401400004004095
:1018400000080040000C004000680349884201D1B4
:10185000FFF7DEB87047000000140040704770B515
:10186000040004D094F84100002510B106E00120E6
:1018700070BD84F84050204600F024F8242084F8FD
:1018800041002068C16821F40051C160204600F089
:10189000A1FD2068016921F490410161206841693E
:1018A00021F02A0141612068C16841F40051C16002
:1018B0006564202084F8410084F8420065630020BC
:1018C00070BD000030B585B00024009401940294EE
:1018D000039400681449884224D11448816941F472
:1018E00080418161816901F480410491816941F005
:1018F0000401816180690E4D00F0040004904FF4F2
:101900000070009002200190032003906946284651
:10191000FEF776FF2815CDE90004694628460294B3
:10192000FEF76EFF05B030BD0038014000100240E8
:10193000000801402DE9F843044690F8410098461C
:1019400016460D46202802D00220BDE8F88385B156
:101950007EB100206064212084F84100FFF752F836
:10196000A6848146E684A0682027B0F5805F02D077
:1019700003E00120E9E7206910B12E4600250EE0C2
:1019800000260CE08021204600F080FDA8B9C6B1F9
:1019900016F8010B21684860E08C401EE084E08C62
:1019A0004B464FF00002CDF800800028EAD14FF0FE
:1019B0004001204600F06AFD40B184F841700320E8
:1019C000C3E735F8020BC0F30800E3E784F8417081
:1019D0000020BAE7FEE7000010B5074A00210748DB
:1019E00000F00EFE064C044A0021606024320548D7
:1019F00000F006FEA06010BD4C410008771F0008F3
:101A000000000020811F000830B585B00020009044
:101A10000190029003902048816941F0200181618A
:101A2000816901F020010491816941F00401816123
:101A3000816901F004010491816941F0080181612B
:101A4000816901F008010491816941F0100181610F
:101A50008069124D00F010004FF4404404900122C0
:101A600021462846FEF7C8FF1120CDE9004001209D
:101A700002900320039069462846FEF7C1FE6815D0
:101A80000090074801900220029069462846FEF720
:101A9000B7FE05B030BD000000100240000C014050
:101AA0000000111010B58EB000240794089409941A
:101AB0000A940B941C2168460C94FEF71BFD2A48DF
:101AC0002849C0E9001441F61F41C0E902418021C4
:101AD00004618161FFF732FB08B1FEF78FFE4FF41E
:101AE0008050079007A92048FFF7A0FB08B1FEF738
:101AF00085FE1D48FFF71FFE08B1FEF77FFE0B9421
:101B00000BA919480C94FFF7DBFA08B1FEF776FE33
:101B10006020CDE900040294002269461248049432
:101B2000FFF7A3FD08B1FEF769FE042269460E48DF
:101B3000FFF79BFD08B1FEF761FE082269460A48DF
:101B4000FFF793FD08B1FEF759FE0C2269460648DF
:101B5000FFF78BFD08B1FEF751FE0348FFF74CFD80
:101B60000EB010BD00040040C000002010B58CB0C5
:101B700024216846FEF7BEFC002416480994144947
:101B80000A94C0E900144FF6FF71C0E902410461F4
:101B900084610320CDE900040120CDE90204042181
:101BA0000491CDE90540CDE9074169460948FFF7B1
:101BB000ABFB08B1FEF722FE099409A905480A9477
:101BC000FFF77EFA002801D0FEF718FE0CB010BD1A
:101BD000000800400801002010B58CB024216846A0
:101BE000FEF788FC00241748099415490A94C0E9B7
:101BF00000144FF6FF71C0E9024104614461846141
:101C00000320CDE900040120CDE902040421049160
:101C1000CDE90540CDE9074169460A48FFF774FB65
:101C200008B1FEF7EBFD099409A906480A94FFF7ED
:101C300047FA002801D0FEF7E1FD0CB010BD00000E
:101C400000340140500100200C4810B50A490160E1
:101C50004FF4E1314160002181600C22C160C0E994
:101C600004128161C161FFF7FAFD002803D0BDE8CD
:101C70001040FEF7C3BD10BD0038014098010020A0
:101C8000FEE710B54FF07C5110F1FF4F02D202F089
:101C900085F801E002F0E4F9BDE8104002F0E0B898
:101CA00070B50646B0B00C4614A000F0ADF81B4D60
:101CB0002046294602F008F9FFF7E3FF04462946CB
:101CC000304602F001F9FFF7DCFF0021CDE90010FA
:101CD0000323134A0294B42103A8FEF7EDFA03A8E4
:101CE00000F092F80F4800F08FF80FA000F08CF889
:101CF0001C4800F089F830B070BD0000236D6F748F
:101D00006F725F636F6E74726F6C2C433130425F21
:101D10004154383233360D0A000000000000C8423A
:101D200018420008C0410008236E6F746963652C77
:101D300068617264776172655F6370725F313536B6
:101D4000305F646966666572735F66726F6D5F614E
:101D5000737369676E6D656E745F323030300D0A73
:101D600000000000644200082DE9F047B8B090463A
:101D70008946824600F062F807468069FFF781FFD6
:101D800006467869FFF77DFF05463869FFF779FF5A
:101D90000446F868FFF775FF0146D7E90102B7F975
:101DA0001E30B7F91C70CDE90902CDF80880CDE9E5
:101DB00007730322CDE9002903A8534680E8720087
:101DC00005A2B4210BA8FEF777FA0BA800F01CF8C7
:101DD00038B0BDE8F0870000256C752C25752C25E2
:101DE0006C642C256C642C256C642C256C642C256F
:101DF0006C642C256C642C25642C25642C256C6467
:101E00002C256C640D0A000010B50446FEF706FB95
:101E1000214682B2BDE8104032230148FFF78ABD57
:101E2000980100204FF4E151884202DC4942884287
:101E300001DA0846704700B270470000004870475A
:101E4000A000002070B5234800242349048044806A
:101E500044608460C4600461446184618483C48399
:101E60000A684FF4E15050630A6890630A68D063CF
:101E70000968086400211848FFF78CFC70B9042138
:101E80001548FFF787FC48B908211348FFF782FC83
:101E900020B90C211048FFF77DFC08B1FEF7AEFC1D
:101EA0000E4E306844620E4D286844623C21304634
:101EB000FFF7C2FA20B93C212846FFF7BDFA08B166
:101EC000FEF79CFC3068416A064801802968496A2F
:101ED000418070BDA0000020C0000020080100204B
:101EE000500100200C000020002800DA40424FF48E
:101EF000E151884200DD0846C0F5E150704700001E
:101F000070B50C46FFF78EFF06462046FFF78AFFA6
:101F100005463046FFF7E8FF04462846FFF7E4FF92
:101F2000024612484FF4E151002E04DD0368596364
:101F300003689C6306E0036801DA5C6300E05963B0
:101F400003689963002D02DD0368DA6307E004DAB1
:101F50000368D9630068026403E00268D163006823
:101F6000016403488683C58370BD0000C000002063
:101F7000A0000020FEE7012000F0E8FAFBE70000E7
:101F80001CB5002601964FF08044214D0096FFF7C6
:101F900059FF29462046FFF783FE00F0FBFA1D4C4F
:101FA00005464FF4C36A4FF0010B00BFFEF7D4FBA8
:101FB000FFF744FF07464FF000092078C84650B9A4
:101FC0007868504502DA10F5C36F04DC12A0FFF701
:101FD0001BFF84F800B0607850B9B868504502DA49
:101FE00010F5C36F04DC14A0FFF70EFF84F801B0F6
:101FF00041464846FFF784FFDDE900213046FFF700
:10200000B3FE0A3528460A3600F0ADFACEE70000E6
:10201000000070410000002023656E636F646572EC
:102020002C6C6566742C726561636865645F31351C
:1020300036300D0A0000000023656E636F64657220
:102040002C72696768742C726561636865645F31BE
:102050003536300D0A00000010B54FF0E020006961
:1020600001F0DEFC012803D0BDE8104001F00CBAFD
:1020700010BD30B58FB028216846FEF73BFA142119
:102080000AA8FEF737FA01210804CDE90010002460
:10209000029402250491CDE907504FF4E010099015
:1020A0006846FEF77BFE08B172B6FEE70F20CDE969
:1020B0000A054FF48060CDE90C4002210AA80E9475
:1020C000FEF770FD002801D072B6FEE70FB030BDFC
:1020D000704700000148FFF7F7B90000E001002059
:1020E000F0B50268204C214D214E224F224B4FF07B
:1020F000804CA04209D0984207D0604505D0A84244
:1021000003D0B04201D0B84204D122F0700E4A6828
:1021100042EA0E02A04209D0984207D0604505D09D
:10212000A84203D0B04201D0B84203D122F4407596
:10213000CA682A434D6922F080022A4302608A68F5
:10214000C2620A688262A04201D0984201D1096944
:102150000163012141610169C90703D0016921F0CF
:1021600001010161F0BD0000002C014000040040AD
:1021700000080040000C00400034014010B501F0A0
:102180001F030121046A99408C430462016A9A404A
:102190001143016210BD10B5846842EA032224F4A1
:1021A0007F440A432243826010BD826822F070029D
:1021B0000A4342F00701816070470000F0B5036AEE
:1021C000026A22F00102026242688469124E24F01F
:1021D00073050C682C4323F002058B682B430D4DCF
:1021E000A84201D0B04205D123F00807CB683B4399
:1021F00023F00403A84201D0B04205D14D6922F476
:10220000407215438A692A43426084614968416388
:102210000362F0BD002C014000340140F0B5026AB9
:10222000036A23F010030362436884690D6824F491
:10223000E64444EA05248D6822F0200242EA0512B1
:102240000F4D104EA84201D0B04206D1CF6822F007
:10225000800242EA071222F04002A84201D0B042B6
:1022600007D14D6923F4406343EA85038D6943EA4E
:10227000850343608461496881630262F0BD0000A8
:10228000002C014000340140F0B5026A036A23F4D7
:10229000807303624368C46922F4007224F07305FA
:1022A0000C68124E2C438D6842EA05220E4DA8425E
:1022B00001D0B04206D1CF6822F4006242EA072280
:1022C00022F48062A84201D0B04207D14D6923F4C4
:1022D000405343EA05138D6943EA05134360C46123
:1022E0004968C1630262F0BD002C01400034014026
:1022F00030B5046A026A22F4805202624268C369FD
:102300000D6823F4E64343EA05238D6824F4005462
:1023100044EA0534084DA84202D0084DA84204D131
:102320004D6922F4804242EA85124260C3614968E5
:102330000164046230BD0000002C01400034014003
:1023400010B5036A046A24F001040462846924F06D
:10235000F00444EA021423F00A020A438461026290
:1023600010BD10B5036A046A24F010040462846985
:1023700023F0A00324F4704444EA023243EA01113A
:102380008261016210BD01680C3151E8002F22F416
:10239000907241E80023002BF5D10168143151E817
:1023A000002F22F0010241E80023002BF5D1016B40
:1023B000012909D101680C3151E8002F22F01002E7
:1023C00041E80023002BF5D1202180F842100021A4
:1023D0000163704770B5044600680169E26821F442
:1023E0004051114301612169A068084361690843B4
:1023F0002168CA6841F20C639A430243CA602068AC
:102400004169A26921F44071114341611E4920686C
:10241000884202D1FEF78CFC01E0FEF779FC00EB6C
:10242000C00101EB0012606864218000B2FBF0F390
:10243000B3FBF1F36FF018067343B2FBF0F5B2FB98
:10244000F0F605EB8305322303EB0515B5FBF1F53B
:10245000B6FBF1F605F0F00505EB0615B2FBF0F65C
:10246000B2FBF0F0B0FBF1F06FF01802504306EB56
:10247000800003EB0010B0FBF1F0216800F00F00CA
:102480002844886070BD0000003801402DE9F84301
:10249000984617460D460446089E24E0701C22D03C
:1024A000FEF7B0FAA0EB0800B0421AD8CEB120680F
:1024B000C168490717D5802D15D0402D13D001686C
:1024C000C94309070FD401680025406800902046E1
:1024D000FFF759FF0820606484F840500120BDE8F0
:1024E000F8830320FBE72068006835EA000004D089
:1024F0000020B842D2D00020F1E70120F9E7FEE742
:102500000907090E002804DB00F1E02080F8001420
:10251000704700F00F0000F1E02080F8141D7047B4
:102520007047FEF77DFAFFF7A4FDFFF76DFAFFF79E
:10253000B9FAFFF789FBFFF719FBFFF74DFB00F036
:1025400031F8FFF749FA00F03FF8FEE710B5EFF376
:10255000058111B16FF0050403E0002408B100F01B
:1025600013FE204610BD38B50546EFF3058010B1C7
:102570006FF005040CE0002401F060FA291A0090C5
:10258000002903DD684600F025FE01E06FF003043A
:10259000204638BDEFF3058008B101F055BA01F0CF
:1025A0004DBA0000EFF3058010B16FF005007047E1
:1025B0000448016811B14FF0FF30704701210160FC
:1025C000002070477000002010B5EFF3058010B1B7
:1025D0006FF0050010BD08480168012902D04FF0D6
:1025E000FF3010BD054A002182F8141D0221016050
:1025F00000F078FE002010BD700000200BE000E02D
:102600002DE9FF414FEA01034FF00005EFF305818B
:10261000039549BB40B38027182100244AB31668AC
:1026200006B1344696691EB13146761E382E02D266
:102630001679F60703D0002004B0BDE8F081566992
:1026400006B1B708D2F808C0BCF1000F0DD0D568AC
:102650005C2D18D312693AB136B18DE806103A46AE
:10266000214601F0B2F903900DE0D6685EB9126917
:102670004AB903AACDE90012BAB2214601F078F9AD
:10268000012800D003950398D6E700002DE9F0411A
:10269000134C0F460546E6682068001D00F040FC1C
:1026A000681C07D137B12168BDE8F0410D48091D0C
:1026B00000F086BC20683544B5424560216805D2EB
:1026C000A06BBDE8F041091D00F062BC606B091D04
:1026D00000F05EFCA06A854200D2A562BDE8F081F0
:1026E00020000020180700202DE9F041054600F0E9
:1026F00073FC2D4CA068401CA06020682B4F10B1CB
:10270000606930B32BE02560A068012827D100263E
:1027100006EB860007EB800000F02CFC761C382EC0
:10272000F6D3234800F026FC2148143000F022FCA8
:102730001F48283000F01EFC1D483C3000F01AFCF9
:102740001B48503000F016FC194860631430A06339
:1027500005E02068E96AC06A884200D82560606A9E
:10276000401C60626864E86A2169884200D920617F
:1027700000EB800007EB8000291D00F021FC00F039
:102780004BFC606900280CD02068E96AC06A884266
:1027900007D208494FF080500860BFF34F8FBFF356
:1027A0006F8FBDE8F081000020000020680200204B
:1027B000C806002004ED00E038B500F00DFC104C18
:1027C0002068C8B90F4800F0D5FB0E48143000F05F
:1027D000D1FB0C48E060143020610A4B0020F03B34
:1027E000009003F1500210210A2000F063FE2060E7
:1027F00010B105A100F092FCBDE8384000F00CBC1F
:102800005C0000201C080020546D72510000000084
:1028100030B4026C0B46002A0BD0C1681144C16071
:102820008468A14201D30168C16030BC1846FDF73D
:1028300014BE30BC70472DE9F041856B1746044645
:102840000026026C82B1C7B1E068FDF706FEE168C0
:10285000206C091AE1602268914202D2A168081A2C
:10286000E060022F16D017E02068A8B9A06801F038
:1028700057F906460020A0600EE06068FDF7EDFD08
:10288000216C606808446060A168884204D32068B5
:10289000606001E005B16D1E6D1CA5633046BDE8AA
:1028A000F08110B5044690F8590058B101280CD0B9
:1028B00002280FD0502080F31188BFF34F8FBFF351
:1028C0006F8FFEE7206B00F0BBFB2046BDE8104099
:1028D00000F0B6BB10BD000010484FF44061420745
:1028E00006D0C01D0D4920F00700411AC1F5406116
:1028F0000B4A00230144C2E900030839183A21F0C9
:10290000070111604B600B600B1AC0E90013936064
:102910004FF000405360506170470000FC0E0020F3
:102920008C000020144E154CA6F29C474FF08058A6
:10293000DFF84C9012E000BF00F04EFBF068C56875
:10294000281D00F0EDFAA068401EA0606068401EDF
:10295000606000F061FB2846FFF7A3FF6068002875
:10296000EAD138680128F9D9C9F80080BFF34F8F40
:10297000BFF36F8FF2E70000040700202000002063
:1029800004ED00E070B51D46049C51B1C4F8002070
:10299000C4E90F010121204600F0C0FD84F84C502D
:1029A00070BD2460F4E700002DE9F05F8846DDE9A2
:1029B0000B941546834691009A460A9EA522206BE9
:1029C000FDF790FD6FF00301206B01EB85010844DA
:1029D00020F00707780707D0502080F31188BFF355
:1029E0004F8FBFF36F8FFEE70025B8F1000F0FD0B8
:1029F0005FF00000221818F8001082F8341018F860
:102A0000001011B1401C1028F4D384F8435001E0A9
:102A100084F83450382E00D33726E662C4E91365B3
:102A2000201D00F0B2FA04F1180000F0AEFA2461A3
:102A3000C6F138006462A061656584F8585052465A
:102A40005946384600F05AFA2060B9F1000F01D01B
:102A5000C9F80040BDE8F09F30B5114900E01146CB
:102A60000A688242FBD34B685C18844203D14068F9
:102A700018444860084643681C18944209D1084C21
:102A8000183C2468A24209D052681A4442600A687D
:102A900012680260814200D0086030BD0460F9E72E
:102AA0008C00002070B5002441600B4D0061914204
:102AB00006D8D11A8269914206D2011D286907E021
:102AC0009A4203D2994201D3012403E0011DE86830
:102AD00000F05EFA204670BD5C00002010B5044690
:102AE00000F07AFAA06B28B15FF0000400F094FACD
:102AF000204610BD0124F9E730B589B03C4D6EE0A9
:102B00000498002806DADDE90601059A9047049842
:102B1000002864DB069C606910B1201D00F000FAFB
:102B200003A800F0D7F8024604980A2857D2DFE835
:102B300000F00505052D334A05052D3394F82800CE
:102B400040F0010084F828000599A069059B014424
:102B50002046FFF7A7FF68B3216A2046884794F80C
:102B6000280040073BD5002000900598A16900236C
:102B700042181946204601F0DDF8D8B9502080F3FC
:102B80001188BFF34F8FBFF36F8FFEE714F8280F44
:102B900020F00100207022E094F8280040F00100AD
:102BA00084F828000598A06128B1811813462046B2
:102BB000FFF778FF13E0502080F31188BFF34F8FA9
:102BC000BFF36F8FFEE794F82800810703D42046F7
:102BD00000F036FA03E020F0010084F8280000221B
:102BE00004A9286800F0EEFD002889D109B030BDA5
:102BF0005C0000202DE9FC410F46054600F0B6FBC5
:102C000001A800F067F80446019818B101F000F837
:102C1000BDE8FC81254EAFB130690068D0B3002714
:102C2000291B3A46306800F08DFA00F0F1FF0028C9
:102C3000EED11F494FF080500860BFF34F8FBFF3B4
:102C40006F8FE5E7A542EBD800F0E2FFF06827467A
:102C5000C068C468201D00F063F994F8280041079B
:102C600019D5A0692B4641193A462046FFF71AFFAD
:102C7000A8B100200346014600902A46204601F0F4
:102C800059F860B9502080F31188BFF34F8FBFF31C
:102C90006F8FFEE707E020F0010084F82800216A2A
:102CA00020468847B4E70127BAE700005C0000200F
:102CB00004ED00E00648416B096829B1416BC96821
:102CC000C9684968816270474FF0FF31FAE7000038
:102CD0002000002070B5054600F0B0FE064E044608
:102CE000B068844203D200F009F8012000E000201F
:102CF00028602046B46070BD5C000020F8B5194D16
:102D000020E0C068C4680668201D00F009F9216A47
:102D10002046884794F82800400713D5A06930441E
:102D2000B04206D924616060211DE86800F030F9E6
:102D300008E000200346014600903246204600F09D
:102D4000F9FF38B1E86801680029DAD12969C5E9D5
:102D50000310F8BD502080F31188BFF34F8FBFF3ED
:102D60006F8FFEE75C00002008484068401C4FF071
:102D7000500080F3118804D0BFF34F8FBFF36F8FE3
:102D8000FEE7BFF34F8FBFF36F8FFEE79400002085
:102D9000074CE068016841B1C0680021D0F800002C
:102DA000FFF728FFFFF7A8FEF3E701210020F7E770
:102DB0005C0000202DE9F041044600F00DF994F983
:102DC000455004F1240609E0606A48B1304600F03D
:102DD000E7FE08B100F04CFA6D1E6DB2002DF3DC79
:102DE0004FF0FF3684F8456000F016F900F0F4F873
:102DF00094F9445004F1100709E0206948B13846BD
:102E000000F0CEFE08B100F033FA6D1E6DB2002D59
:102E1000F3DC84F84460BDE8F04100F0FDB8000048
:102E20002DE9F0410546002700F0A0FA324E306847
:102E300008B9FFF751FD706905424ED1C5B3083599
:102E400068070ED005F00700C0F1080005446807C8
:102E500007D0502080F31188BFF34F8FBFF36F8FDF
:102E6000FEE72DB37068854237D8234818300146F5
:102E70000C6801E020460C466168A94202D2216834
:102E80000029F7D131688C4227D00768216801609A
:102E900060680837411B10290FD96019420708D014
:102EA000502080F31188BFF34F8FBFF36F8FFEE781
:102EB00013E041606560FFF7CFFD61687068401AFC
:102EC0007060B268904200D2B06070690143002027
:102ED000C4E90001F068401CF06000F099FE78073A
:102EE00007D0502080F31188BFF34F8FBFF36F8F4F
:102EF000FEE73846BDE8F0817400002010B5031FDE
:102F00004FF080741C601B1F21F001011960191F14
:102F1000024B0B60143940380A6010BD692D00085F
:102F2000D0E9013201699A60D0E901235A604A6808
:102F3000824201D182684A60002202610868401E14
:102F40000860086870470000034B036003F15C00F1
:102F5000086080201060704744080020044B036024
:102F600003F15C0008604FF480701060704700004F
:102F7000A00A002000F108014FF0FF32C0E9011261
:102F8000C16001610021016070470021016170474B
:102F900030B50B685A1C02D000F1080202E0026949
:102FA00004E02246546825689D42FAD953684B6074
:102FB00099608A60516008610168491C016030BDF8
:102FC00042684A6093688B609368596091600861B9
:102FD0000168491C01607047502080F31188BFF3DD
:102FE0004F8FBFF36F8F0A494868401C4860012823
:102FF0000CD10848006810F0FF0F07D0502080F374
:103000001188BFF34F8FBFF36F8FFEE7704700004B
:103010009400002004ED00E00849486828B1401EF3
:10302000486001D180F311887047502080F31188E7
:10303000BFF34F8FBFF36F8FFEE7000094000020B7
:1030400070B500282AD0164DA0F10804606869699F
:10305000084207D1502080F31188BFF34F8FBFF390
:103060006F8FFEE722683AB1502080F31188BFF3DA
:103070004F8FBFF36F8FFEE78843606000F076F9F3
:1030800060686968084468602046FFF7E5FC2869C5
:10309000401C2861BDE8704000F0BABD70BD000062
:1030A000740000204FF0E02000210161816105499A
:1030B0004FF47A720968B1FBF2F1491E41610721B0
:1030C000016170471C00002010B5FDF7CFF81149D1
:1030D00010280ED300F1E02090F8F0030A78904217
:1030E00007D2502080F31188BFF34F8FBFF36F8F4B
:1030F000FEE709480068896800F4E060884207D963
:10310000502080F31188BFF34F8FBFF36F8FFEE71E
:1031100010BD0000940000200CED00E010B5084B3D
:10312000002200BF53F832401CB1521C082AF9D3C8
:1031300010BD43F8321003EBC201486010BD00001F
:103140002802002070B515460E460446FFF744FFDE
:1031500094F944100020491C01D184F8440094F9EA
:103160004510491C01D184F84500FFF755FFA06BBD
:1031700028B92A46314604F1240000F097F8204689
:10318000BDE87040FFF716BE10B5020014D00F481E
:10319000006B38B1502080F31188BFF34F8FBFF31D
:1031A0006F8FFEE700F0E2F800211046FFF76EFA9D
:1031B00000F02EFD002807D105494FF0805008602F
:1031C000BFF34F8FBFF36F8F10BD000020000020B2
:1031D00004ED00E070B50D4604000BD095B11E4A19
:1031E000106BB8B1502080F31188BFF34F8FBFF33D
:1031F0006F8FFEE7502080F31188BFF34F8FBFF32E
:103200006F8FFEE7502080F31188BFF34F8FBFF31D
:103210006F8FFEE700F0AAF8D2682368591993422D
:1032200004D98B420AD9914202D807E08B42FAD9DD
:10323000881A21600021FFF729FA00E0216000F0E0
:10324000E7FC002807D105494FF080500860BFF324
:103250004F8FBFF36F8F70BD2000002004ED00E0A2
:1032600002490A6A0260C968416070472000002074
:1032700001490120C86170472000002010B50C46AC
:1032800050B1094909681831FFF782FE2046BDE8B0
:1032900010400121FFF7FAB9502080F31188BFF3E5
:1032A0004F8FBFF36F8FFEE72000002070B51446EC
:1032B0000D4668B10A4909681831FFF781FE0CB163
:1032C0004FF0FF3521462846BDE87040FFF7DEB9D4
:1032D000502080F31188BFF34F8FBFF36F8FFEE74D
:1032E0002000002030B587B00024039405AA04A96B
:1032F00003A80494FFF728FEDDE903010094CDE95B
:103300000110002315A11748059A00F05EFB164D29
:103310000028E8621FD000F0DDFC012809D0401C25
:1033200019D1502080F31188BFF34F8FBFF36F8FF7
:10333000FEE7502080F31188BFF34F8FBFF36F8FEC
:103340004FF0FF30A86201206861EC6007B0BDE873
:10335000304000F045B807B030BD000049444C454E
:103360000000000025290008200000200248016B11
:10337000491C01637047000020000020164810B56A
:10338000016B11B10121C16110BD0021C161016951
:10339000124A01E0B9B1491E01EB810352F8233012
:1033A000002BF7D001EB810302EB830202F108044A
:1033B00053685B685360A34201D15B685360DA686D
:1033C0000260016110BD502080F31188BFF34F8F60
:1033D000BFF36F8FFEE7000020000020680200208E
:1033E0001CB5264908780190FF20087008788DF8F0
:1033F00000009DF800009DF8002000F0F0009042D1
:1034000007D0502080F31188BFF34F8FBFF36F8F29
:10341000FEE79DF800001A4C00F0500020700720D5
:10342000A06005E09DF8002052008DF80020401EAD
:103430009DF800201206F5D4A060032807D0502084
:1034400080F31188BFF34F8FBFF36F8FFEE74FF408
:103450004070A060019808700A48016841F470014A
:103460000160016841F070410160FFF71BFE002020
:103470006060FCF7C5FE00201CBD000000E400E019
:103480009400002020ED00E010B5502080F311885A
:10349000BFF34F8FBFF36F8F00F0DEFA18B104490E
:1034A0004FF080500860002080F3118810BD0000AC
:1034B00004ED00E038B5049D18B153B1CAB181B133
:1034C00020E0502080F31188BFF34F8FBFF36F8F40
:1034D000FEE7502080F31188BFF34F8FBFF36F8F4B
:1034E000FEE7502080F31188BFF34F8FBFF36F8F3B
:1034F000FEE739B1502080F31188BFF34F8FBFF33F
:103500006F8FFEE750241C46012384F846302B467B
:103510000094FFF737FA204638BD000070B50D461D
:10352000040025D0FFF758FDD4E90F20216802FBE5
:103530000011A1600021A163216861600A46D4E9FD
:103540000F01401E00FB0121E16021464FF0FF30DA
:1035500001F8440F487004F110008DB1FFF70AFD27
:1035600004F12400FFF706FDFFF756FD012070BDB2
:10357000502080F31188BFF34F8FBFF36F8FFEE7AA
:1035800021690029F0D000F00BFB0028ECD00449A1
:103590004FF080500860BFF34F8FBFF36F8FE3E7AA
:1035A00004ED00E02DE9FF4782B01D468A464FF04A
:1035B0000008040003D0BAF1000F08D011E0502039
:1035C00080F31188BFF34F8FBFF36F8FFEE7206C3E
:1035D00038B1502080F31188BFF34F8FBFF36F8F46
:1035E000FEE7022D0AD1E06B012807D0502080F3BE
:1035F0001188BFF34F8FBFF36F8FFEE700F010FA13
:103600003F4F4FF000094FF0805648B9049838B149
:10361000502080F31188BFF34F8FBFF36F8FFEE709
:10362000FFF7DAFCA06BE16B884207D3022D05D0CF
:103630000498D0B1B8F1000F1AD01EE02A465146C6
:103640002046FFF7F8F8616A19B104F1240000F090
:10365000A7FA20B13E60BFF34F8FBFF36F8FFFF724
:10366000DBFC012006B0BDE8F087FFF7D5FC22E0C7
:103670006846FFF7F5FD4FF00108FFF7CDFCFFF7B7
:1036800075FEFFF7A9FC94F94400401C01D184F8B1
:10369000449094F94500401C01D184F84590FFF70F
:1036A000BBFC04A9684600F029F930B12046FFF7B9
:1036B00081FB00F0ADFA0020D4E7FFF78DFCA06B92
:1036C000E16B884213D1FFF7A7FC04F110000499C5
:1036D000FFF7D4FD2046FFF76DFB00F099FA0028B4
:1036E0009ED13E60BFF34F8FBFF36F8F98E7FFF718
:1036F00093FC2046FFF75EFB00F08AFA90E700009B
:1037000004ED00E02DE9F0471F469046894604008D
:1037100003D0B9F1000F08D011E0502080F31188D8
:10372000BFF34F8FBFF36F8FFEE7206C38B150208F
:1037300080F31188BFF34F8FBFF36F8FFEE7022F27
:103740000AD1E06B012807D0502080F31188BFF325
:103750004F8FBFF36F8FFEE7FFF7B6FC5020EFF3FC
:10376000118680F31188BFF34F8FBFF36F8FA06B6B
:10377000E16B884206D3022F04D0002086F3118823
:10378000BDE8F08794F94550A06B3A46494620467B
:10379000FFF751F8681C04D06D1C84F845500120D7
:1037A000ECE7606A0028FAD004F1240000F0F8F990
:1037B0000028F4D0B8F1000FF1D00121C8F80010B2
:1037C000EDE700002DE9F747002683B08A460400A4
:1037D00003D0BAF1000F08D011E0502080F3118817
:1037E000BFF34F8FBFF36F8FFEE7206C38B15020CF
:1037F00080F31188BFF34F8FBFF36F8FFEE700F0A8
:103800000FF9DFF8F4804FF000094FF0805748B906
:10381000059838B1502080F31188BFF34F8FBFF364
:103820006F8FFEE7FFF7D8FBA56BC5B15146204669
:10383000FEF7EEFF6D1EA563206950B104F1100084
:1038400000F0AEF928B1C8F80070BFF34F8FBFF396
:103850006F8FFFF7E1FB012006B0BDE8F087059808
:1038600008B11EB106E0FFF7D7FB27E06846FFF777
:10387000F7FC0126FFF7D0FBFFF778FDFFF7ACFB65
:1038800094F94400401C01D184F8449094F9450017
:10389000401C01D184F84590FFF7BEFB05A968469E
:1038A00000F02CF8002820460AD0FFF783FA00F039
:1038B000AFF92046FFF712F90028B3D00020CBE77C
:1038C000FFF70CF990B104F124000599FFF7D6FC3D
:1038D0002046FFF76FFA00F09BF90028A2D1C8F844
:1038E0000070BFF34F8FBFF36F8F9BE72046FFF74A
:1038F00061FA00F08DF995E704ED00E02DE9F04163
:103900000C46050011D0C4B1FFF766FB174BDA680F
:103910006E682068911B471C17D02F681B6A9F4256
:1039200019D0964217D8012410E0502080F3118856
:10393000BFF34F8FBFF36F8FFEE7502080F31188E6
:10394000BFF34F8FBFF36F8FFEE70024FFF764FBD9
:103950002046BDE8F081884205D9401A20602846FB
:10396000FFF77EFCF1E700202060DCE7200000206C
:103970002DE9FF5F8346DDE90E87994616468A46A4
:103980009000FFF74DFA05001CD05C20FFF748FAC5
:10399000040014D00020256384F85900CDE90240CA
:1039A000CDE900874B46324651465846FEF7FCFFAC
:1039B0002046FEF799FE012004B0BDE8F09F28469E
:1039C000FFF73EFB4FF0FF30F6E7F0B585B0DDE9DD
:1039D0000B640A9DA6B1DCB15C2700972663022622
:1039E00084F85960002604AFCDE90246CDE90057BE
:1039F000FEF7DAFF2046FEF777FE049805B0F0BD2B
:103A0000502080F31188BFF34F8FBFF36F8FFEE715
:103A1000502080F31188BFF34F8FBFF36F8FFEE705
:103A20000548416919B1006B18B1002070470120A9
:103A30007047022070470000200000200148C06845
:103A4000704700002000002010B5FFF73DFB014843
:103A5000C06810BD200000202DE9F0412E4C002749
:103A6000206B28B1A069401CA0613846BDE8F081F8
:103A7000E668761CE66013D1606B006838B15020B0
:103A800080F31188BFF34F8FBFF36F8FFEE7606B3A
:103A9000A16B6163A063206A401C2062FFF70AF9F2
:103AA000A06ADFF87880864209D3606B0068A0B115
:103AB000606BC068C5686868864211D2A0622068E1
:103AC000C06A00EB800158F82100012800D90127C5
:103AD000E0690028C9D00127C7E74FF0FF30EDE7C4
:103AE000281DFFF71DFAA86A18B105F11800FFF7A5
:103AF00017FAE86A2169884200D9206100EB800149
:103B000008EB8100291DFFF75BFAE86A2168C96AA2
:103B10008842CAD30127C8E720000020680200209D
:103B200070B504004FF0000133D01B4D286884426B
:103B300007D0502080F31188BFF34F8FBFF36F8FF2
:103B4000FEE7206D38B1401E2065E36CE26A9A42C0
:103B50001FD040B11DE0502080F31188BFF34F8F7C
:103B6000BFF36F8FFEE7201DFFF7DAF9E06CE0622C
:103B7000C0F13800A061E06A2969884200D9286153
:103B8000064900EB800001EB8000211DFFF718FAC9
:103B90000121084670BD00002000002068020020BE
:103BA00070B5C068C46854B104F118000646FFF748
:103BB000B7F9144D286B50B13146134815E0502029
:103BC00080F31188BFF34F8FBFF36F8FFEE7201D87
:103BD000FFF7A6F9E06A2969884200D928610B49F4
:103BE00000EB800001EB8000211DFFF7E9F9E06A9E
:103BF0002968C96A884202D90120E86170BD0020A5
:103C000070BD000020000020F006002068020020A7
:103C10002DE9F0472C4D00242746286B38B1FFF7DB
:103C2000DBF9286B401E2863286B40B146E050202A
:103C300080F31188BFF34F8FBFF36F8FFEE7A96842
:103C4000224E0120D1B3A6F5916980463068E0B1DB
:103C5000F068C46804F11800FFF762F9201DFFF74F
:103C60005FF9E06A2969884200D9286100EB800188
:103C700009EB8100211DFFF7A3F9E06A2968C96AF1
:103C80008842E3D3C5F81C80E0E70CB1FFF712F8D7
:103C9000AC694CB14FEA0806FFF7DEFE00B1EE61F9
:103CA000641EF9D10020A861E86938B108490127EC
:103CB00038070860BFF34F8FBFF36F8FFFF7ACF982
:103CC0003846BDE8F087000020000020F006002004
:103CD00004ED00E010B586B0FEF76EFD114C2068D3
:103CE000B8B100200390049005AA04A903A8FFF727
:103CF00035F9DDE9032102208DE8070000230AA140
:103D00000B48059AFFF761FE606010B106B0012014
:103D100010BD502080F31188BFF34F8FBFF36F8F1A
:103D2000FEE700005C000020546D722053766300B3
:103D3000912D00082DE9FF411E46134602000A9D01
:103D40004FF0000016D0144C2768002F0FD0CDE99B
:103D500000130292062917DAFFF762FE02284FF0DD
:103D600000030FD0002269462068FFF71BFC04B057
:103D7000BDE8F081502080F31188BFF34F8FBFF36F
:103D80006F8FFEE72A46EEE7002332466946384643
:103D9000FFF7B8FCEBE700005C00002090EA010FA1
:103DA00048BF81F0004100F16281421A3CBF801A95
:103DB00089184FEAD0524FF07F4C1CEA410FA2EB1A
:103DC000D15318BF9CEA026F00F03B804FF0004CCB
:103DD0004CEA00204CEA012121FA03FC10EB0C0C08
:103DE0001ED202F1FF325FEA1C2040EBC25038BF06
:103DF00070471CF07F0F4FEA400C18BFBCF17F4F9B
:103E000038BF7047C3F12003994008BF20F001007C
:103E1000BCF17F4F38BF7047A0F1C04000F01BB924
:103E20004FEA3C00000A40EBC25028BF1CF0FF0FD5
:103E30004FEA400CE6D018BFBCF17F4F38BF704747
:103E4000EAE79CEA026F05D010EA5C0F08BF00F0B9
:103E50000040704710B500F0B8F800BF64FBBE3EEC
:103E600041000B0ED3F19E0208D950F400034FEA33
:103E7000032323FA02F048BF4042704710B500F018
:103E8000A4F800BF49922480002070476FF00042E0
:103E900082EA20007047000010F0004148BF404215
:103EA000B0FA80F310FA03F2C3F19D030BD051EA8C
:103EB000C35101EB1220530638BF704700F10100D7
:103EC00008BF20F0010070474FF47F0C1CEAD012AD
:103ED0001EBF1CEAD11392EA0C0F93EA0C0F00F0FC
:103EE000478090EA010F48BF42F480724FF0004CC7
:103EF0004CEA00204CEA012102EB0302A0FB011373
:103F0000A2F50002002918BF43F001035B0028BF9F
:103F10004FEA330342EB22425FEA132C4CEBC250D0
:103F20002EBFBCEB436FB2F57C0F70474FEA036CBA
:103F3000BCF1004F08BF20F00100B2F57C0F38BF84
:103F400070470BD582F0FF0212F5803FC8BF704763
:103F500000F1C040D8BF00F00040704700F5000CF1
:103F60005FEA4C0C48BF7047B0F1C04000F073B836
:103F700090EA010F0CEAD11348BF42F48072624507
:103F800038BF634504D280EA010000F0004070476A
:103F900010B500F01AF800BF8900013E00F007B824
:103FA00000F009B85FEA410C5FEA1C6C08D080EAB7
:103FB000010000F050B85FEA400C5FEA1C6CF6D1DB
:103FC0004FF00040A0F5800070470EF1020E2EF079
:103FD000030E5EF8044B244204D44FEA4102B2F1CE
:103FE0007F4F11D84FEA4003B3F17F4F0CD80ED169
:103FF0004FEAD07CB2F17F4F0CEB4C0C0CF1020C71
:1040000008BF4CEBD17C04E04FF0080C01E04FEA14
:10401000D17C0CEB4C0324FA03F404F00704B4F154
:10402000040C06D20EEB840CBDE810404CF0010CE1
:104030006047DFE80CF0070802024FF00040A0F5EF
:10404000800010BD0846420018BFD2F1807288BFC0
:1040500000F0004010BDFF2141EAD050C00570477C
:1040600090EA010F48BF81F000413FF59EAE421A31
:1040700004D882F00042A0EB020011444FEAD05273
:104080004FF07F4C1CEA410FA2EBD15318BF9CEAC2
:10409000026F4AD04FF0004C4CEA00204CEA01215C
:1040A00021FA03FCB0EB0C0C0FD412F0FE0F36D04B
:1040B0005FEA4C001DD5001240EBC25038BF70477C
:1040C0001CF03F0F18BF70470BE0A2F101025FEA3E
:1040D0001C2040EBC25038BF70471CF07F0F18BF48
:1040E0007047C3F12003994014BF401E20F0010027
:1040F000704780084FEA122308BF7047B0FA80FC6F
:10410000A2EB0C02CCF1280C60FA0CF093EA122F0F
:1041100004BF00EBC25070474FEAC3707047130AE8
:104120005FEADC1008BF7047F6E79CEA026F04D034
:1041300010EA5C0F08BF0020704710B5FFF745FF7D
:1041400040DFF63E81F0004070470000C4420008A6
:10415000000000000000000000000000000000005F
:104160000002000018000000000000000000000035
:10417000B84200080000000000000000000000003D
:104180000000000000040000180000000000000013
:1041900000000000010202030405060708090A0BDB
:1041A0000C0D0E0F101000000000000000000102B6
:1041B00003040607080900000000010203040000D0
:1041C000236D61702C6C6566745F70776D3D504136
:1041D000365F5041372C72696768745F70776D3D48
:1041E0005042305F5042312C6C6566745F656E637F
:1041F0003D54494D345F5042365F5042372C72690E
:104200006768745F656E633D54494D385F5043364F
:104210005F5043370D0A000023636F6E6669672C99
:104220006D6F64653D25752C776865656C5F6D6D98
:104230003D38302C6370723D313536302C70695FFB
:104240007365743D25752C6B705F783130303D257A
:104250006C642C6B695F783130303D256C640D0ADD
:10426000000000006D732C6D6F64652C74617267C3
:1042700065745F6C2C7461726765745F722C726117
:10428000775F6C2C7261775F722C73706565645F09
:104290006C2C73706565645F722C70776D5F6C2C2D
:1042A00070776D5F722C636F756E745F6C2C636FCB
:1042B000756E745F720D0A006D6F746F7254617366
:1042C0006B00000064656661756C745461736B000B
:1042D000F042000800000020A00000006C0100086F
:1042E00090430008A0000020C020000088010008C2
:1042F00000000000000000000000000000000000BE
:1043000001000000100000000000000000127A0010
:10431000000000000000000000000000000000009D
:10432000000000000000000000000000000000008D
:10433000000000000000000000000000000000007D
:10434000000000000000000000000000000000006D
:10435000000000000000000000000000000000005D
:10436000000000000000000000000000000000004D
:10437000000000000000000000000000000000003D
:104380000000000000000000AAAAAAAA0000000085
:0400000508000131BD
:00000001FF
