:020000040800F2
:10000000B03500207902000887280008C91B0008C5
:1000100085280008010B0008DB2F00080000000005
:10002000000000000000000000000000E1010008E6
:10003000030B00080000000025020008512B0008F7
:10004000930200089302000893020008930200083C
:10005000930200089302000893020008930200082C
:10006000930200089302000893020008930200081C
:10007000930200089302000893020008930200080C
:1000800093020008930200089302000893020008FC
:1000900093020008930200089302000893020008EC
:1000A00093020008930200089302000893020008DC
:1000B00093020008930200089302000893020008CC
:1000C00093020008930200089302000893020008BC
:1000D00093020008930200089302000893020008AC
:1000E000930200089302000893020008930200089C
:1000F000930200089302000893020008930200088C
:10010000930200089302000893020008930200087B
:10011000930200089302000893020008CD2B000808
:10012000930200089302000893020008930200085B
:1001300000F002F800F045F80AA090E8000C8244B4
:100140008344AAF10107DA4501D100F03AF8AFF291
:10015000090EBAE80F0013F0010F18BFFB1A43F0A5
:1001600001031847708E0000908E0000103A24BFE3
:1001700078C878C1FAD8520724BF30C830C144BF0C
:1001800004680C607047000000230024002500264E
:10019000103A28BF78C1FBD8520728BF30C148BFEA
:1001A0000B607047642900F02381752900F02081DD
:1001B000732900F0F283002070471FB51FBD10B5F2
:1001C00010BD00F061FC1146FFF7F7FF04F01CFBC7
:1001D00000F07FFC03B4FFF7F2FF03BC02F091FFD5
:1001E000224B19680868B0E8F00F80F30988BFF364
:1001F0006F8F4FF0000080F311884EF00D0E7047A6
:100200000000000006480068006880F3088862B6B5
:1002100061B6BFF34F8FBFF36F8F00DF00BF00BF2A
:1002200008ED00E0EFF30980BFF36F8F0F4B1A6802
:1002300020E9F00F106008B54FF0500080F31188EE
:10024000BFF34F8FBFF36F8F06F062F94FF00000DE
:1002500080F31188BDE8084019680868B0E8F00F1D
:1002600080F30988BFF36F8F704700BF2000002024
:10027000EFF30580704700000948804709480047B0
:10028000FEE7FEE7FEE7FEE7FEE7FEE7FEE7FEE746
:10029000FEE7FEE704480549054A064B70470000A3
:1002A000C92B000831010008B02F0020B035002014
:1002B000B0310020B0310020704710B54C1084EAF6
:1002C000530404D54042C1F1000138BF491E1B420E
:1002D00004D55242C3F1000338BF5B1E00F04BFA55
:1002E00014F0804F04D04042C1F1000138BF491ED4
:1002F00014F0004F04D05242C3F1000338BF5B1E1C
:1003000010BD00000FB4044910B503AA029800F014
:1003100049FB10BC5DF814FB0C0000200FB41CB5A9
:100320000C0007AA009001D02044401E074B7B44DC
:1003300069460190069800F0FEFA002C03D0694649
:10034000002000F00BFB1CBC5DF814FB3506000020
:1003500070B5044685690068C10601D5302600E005
:100360002026C00707D070BDD4E901213046904750
:10037000206A401C20626D1EF6D570BD70B5044623
:1003800085690078C00707D170BDD4E9012120201C
:100390009047206A401C20626D1EF6D570BD70B576
:1003A0000C460546012A05D02878800600D5EA6962
:1003B000002302E0012305E05B1C934202D2E05CD3
:1003C0000028F9D1A869E618C01AA861286A18445B
:1003D00028622846FFF7BCFF04E0D5E9012114F8A4
:1003E000010B9047B442F8D32846FFF7C7FF70BD12
:1003F0002DE9F0410646002410687529314616A5FE
:1004000010D0AFF30080002802DA404213A507E0C5
:1004100031688A0701D512A502E0490704D511A564
:10042000012401E0AFF3008000210A2206F1240735
:1004300009E0B0FBF2FCB0FBF2F302FB1C00303031
:1004400078541846491C0028F3D123462A463046E2
:10045000BDE8F04100F011BA000000002D000000DE
:100460002B000000200000002DE9F05F89460446C3
:100470004FF0000ADFF874B1FB44C0F820A020461A
:10048000E1688847002874D0252806D0D4E90121E6
:100490009047206A401C2062F1E700265F46204614
:1004A000E16888472028054607DB312D05D27819F9
:1004B00010F8200C08B10643F1E7B00701D526F08B
:1004C0000406C4F81CA00027C4F818A02A2D09D0DF
:1004D000284602F00FFE38B304EB8708303DC8F819
:1004E000185019E059F8041B204604EB870291616B
:1004F000E1688847012F054618D1E069002820DA15
:1005000026F020061DE0D8F8180000EB800005EB6F
:1005100040003038C8F818002046E1688847054692
:1005200002F0E8FD0028EED1012F0AD02E2D08D1CF
:100530002046E16888477F1C0546022F46F02006CA
:10054000C4DBA069002803DA404246F00106A0613E
:10055000F00701D026F010066C2D0BD0682D09D0C5
:100560004C2D39D06A2D35D0742D35D07A2D33D01D
:1005700016E038E0E1682F4620468847B842054635
:1005800009D16C2F26D04FF48060E16806432046E5
:100590008847054604E06C2F1AD04FF4807006435C
:1005A0000DB3A5F14100192802D8203546F40066A4
:1005B0004A462946204626604E46FFF7F3FD80B1A5
:1005C00001280BD0F61D26F0070000F1080956E7B8
:1005D0004020E4E78020D8E70020D6E706F10409B0
:1005E0004DE7284652E7206ABDE8F09F6289000087
:1005F00040EA010310B59B070FD1042A0DD310C8A0
:1006000008C9121F9C42F8D020BA19BA884201D9F1
:10061000012010BD4FF0FF3010BD1AB1D30703D039
:10062000521C07E0002010BD10F8013B11F8014BEF
:100630001B1B07D110F8013B11F8014B1B1B01D10B
:10064000921EF1D1184610BD10B5431C02E010F8FF
:10065000011B71B18107FAD14FF0013202C88C1A27
:100660008C4314EAC211F9D0C01A0A0603D0C01E86
:1006700010BDC01A10BD0A0401D0801E10BD0902B1
:10068000FCD0401E10BD032A40F2308010F0030C55
:1006900000F0158011F8013BBCF1020F624498BFD5
:1006A00011F801CB00F8013B38BF11F8013BA2F172
:1006B000040298BF00F801CB38BF00F8013B11F0ED
:1006C000030300F08181083AC0F0088051F8043B30
:1006D000083A51F804CBA0E80810F5E7121D5CBFFA
:1006E00051F8043B40F8043BAFF30080D20724BF2D
:1006F00011F8013B11F801CB48BF11F8012B24BFC1
:1007000000F8013B00F801CB48BF00F8012B70470F
:1007100002F0FF0343EA032242EA024200F088B9F2
:100720004FF0000200B5134694469646203922BF8A
:10073000A0E80C50A0E80C50B1F12001BFF4F7AFD5
:10074000090728BFA0E80C5048BF0CC05DF804EBB7
:10075000890028BF40F8042B08BF704748BF20F825
:10076000022B11F0804F18BF00F8012B7047704723
:1007700070477047704753EA020C00F069802DE91A
:10078000F04B4FF00006002B1FBFB3FA83F503FABE
:1007900005F424FA05F65E4012BF1643B2FA82F55C
:1007A00002FA05F4C5F120051EBF22FA05FC44EA51
:1007B0000C04203556EA044C4FEA144418BF641C5C
:1007C0004FF000084FF00009904271EB030C39D351
:1007D000002919BFB1FA81F701FA07F6B0FA80F7DC
:1007E00000FA07F6C7F120071EBF20FA07FC46EA09
:1007F0000C062037B6FBF4FCA7EB0507103F07F00B
:100800001F0BCBF120060CFA0BFB2CFA06F644BFAB
:10081000B3460026202FA4BF5E464FF0000B5BEAD4
:10082000060C08BF4FF0010B19EB0B09ABFB027C68
:1008300048EB0608C01B06FB02CC0BFB03CC71EB9C
:100840000C01C1E70B46024641464846BDE8F08B25
:1008500013B54FF000004FF00001AFF30080BDE88A
:100860001C40704710B500F003F9006810BD10B5CA
:10087000044600F0FDF8046010BD2DE9F0470D4678
:1008800099469246044600F124080168880604D57A
:10089000E06921F01001216000E00120A84201DDA3
:1008A000471B00E00027A1697A1902EB0900081A2A
:1008B000A0612078C00602D42046FFF749FD00263B
:1008C00008E0D4E901211AF806009047206A401C8C
:1008D000761C20624E45F4DB2078C0060AD52046FF
:1008E000FFF736FD06E0D4E9012130209047206A69
:1008F000401C2062381EA7F10107F4DC07E0D4E9B0
:10090000012118F805009047206A401C2062281E2B
:10091000A5F10105F3DC2046FFF730FD2078000645
:1009200002D50220BDE8F0870120FBE701694A1CDF
:1009300002610878704700B58FB0CDE90131002120
:10094000059105497944CDE9031011466846FFF742
:100950008BFD0FB000BD0000E5FFFFFF0A6802F845
:10096000010B0A607047D1E900239A4202D2531C5E
:100970000B601070704710B5436913B1AFF300807E
:1009800001E0FFF70CFD012010BD127800F12401F9
:100990000A7000224A700122EDE711684FF0FF3221
:1009A000E9E70000074B70B50D467B44FFF7C3FF36
:1009B0000446284600F060F810B14FF0FF3070BDDB
:1009C000204670BD5337000010B5203AC0F00B80B0
:1009D000B1E81850203AA0E81850B1E81850A0E843
:1009E0001850BFF4F5AF5FEA027C24BFB1E818509D
:1009F000A0E8185044BF18C918C0BDE810405FEA0D
:100A0000827C24BF51F8043B40F8043B08BF704788
:100A1000D20728BF31F8023B48BF11F8012B28BF8D
:100A200020F8023B48BF00F8012B70474FF000024E
:100A30000429C0F0128010F0030C3FF473AECCF127
:100A4000040CBCF1020F18BF00F8012BA8BF20F85E
:100A5000022BA1EB0C01FFF765BE5FEAC17C24BF4E
:100A600000F8012B00F8012B48BF00F8012B70475C
:100A7000004870474C2F0020007B00F0800070473A
:100A8000004870474C2F00207546FFF7F9FFAE462F
:100A900005006946534620F00700854618B020B58A
:100AA000FFF7F8FBBDE820404FF000064FF00007CD
:100AB0004FF000084FF0000B21F00701AC46ACE806
:100AC000C009ACE8C009ACE8C009ACE8C0098D4673
:100AD000704710B50446AFF300802046BDE81040D3
:100AE000FFF778BB10B50446FFF7AEFD214682B292
:100AF000BDE810406423014801F016B8D801002079
:100B0000FEE7704772B6FEE770B5044600F014F9D0
:100B10000546601C02D004480078044400F00CF93B
:100B2000401BA042FAD370BD100000202DE9F84F01
:100B3000DFF8C8910024A9F1040B23460F2709F11F
:100B4000040AABF1040ED1E00125A54006EA050236
:100B5000AA4276D1DFF8A8C14E68A6EB0C0866451C
:100B60002BD00DDC032E34D005DC36B3012E19D08A
:100B7000022E2FD11BE0112E16D0122E2AD119E0F1
:100B8000B8F5881F19D006DCB8F5803F15D0B8F548
:100B9000801F1FD111E0B8F5001F0ED0B8F5041F5B
:100BA00018D10AE0CB6815E0CB681B1D12E0CB68BA
:100BB00008330FE0CB680C330CE08B682BB1012BB2
:100BC0004FF0080303D0456104E0042302E005610F
:100BD00000E00023FF2A01D8064601E000F10406E8
:100BE0004FEA840501D9A5F12005D6F8008007FA5F
:100BF00005FC28EA0C0803FA05F548EA0508C6F8DA
:100C000000804D68ED0070D53E4DAE6946F001069E
:100C1000AE61AD6924F0030605F0010500953A4D7B
:100C200006EB050CDCF80850A607360F07FA06F8A5
:100C300025EA0805DFF8D480404503D14FF00008CD
:100C400025E052E0DFF8C880404502D14FF00108AE
:100C50001DE0DFF8C080404502D14FF0020816E0E9
:100C6000DFF8B480404502D14FF003080FE0DFF811
:100C7000AC80404502D14FF0040808E0DFF8A080C6
:100C8000404502D14FF0050801E04FF0060808FA90
:100C900006F848EA0508CCF808804D68D9F80060E5
:100CA000ED024D4601D5164300E096432E604D6897
:100CB000DAF80060AD02554601D5164300E09643D0
:100CC0002E604D68DBF80060AD035D4601D516432C
:100CD00000E096432E604D68DEF80060ED03754637
:100CE00001D5164300E096432E60641C0A68164640
:100CF000E2407FF429AFBDE8F88F0000080401400E
:100D000000001110001002400000014000080140E6
:100D1000000C014000100140001401400018014087
:100D2000001C01408068084000D0012070470AB1D3
:100D3000016170470904FBE70148806870470000C3
:100D400010000020024881680278114481607047D9
:100D500010000020074810B5016841F01001016043
:100D6000032000F0A7F80F2000F006F800F050F87C
:100D7000002010BD0020024030B505461F4887B056
:100D8000C16941F02001C161C06906A900F02000DD
:100D9000009001A800F036F90498B0B100F052F9C3
:100DA00040001749174AB0FBF1F11748491E02608D
:100DB000416040F2E7320021C0E903218160816196
:100DC00000F056FB040003D015E000F03BF9E8E723
:100DD0000D4800F08FFB04000DD1372000F03CF8E7
:100DE000102D07D200222946372000F043F807488B
:100DF000056000E0012407B0204630BD001002402D
:100E000040420F0000140040200200201400002087
:100E10000F4808B5816941F001018161816901F0E4
:100E200001010091C16941F08051C161C069002296
:100E300000F0805000900F21901E00F01BF8054834
:100E4000416821F0E06141F00071416008BD00009F
:100E50000010024000000140002809DB00F01F02E2
:100E6000012191404009800000F1E020C0F800110C
:100E700070470000F0B40E4B1B680C46C3F302230E
:100E8000C3F10705042D00D90425191D072901D236
:100E9000002300E0DB1E012606FA05F1491E214071
:100EA00099409E40761E16403143F0BC02F0AAB82D
:100EB0000CED00E0064900F0070208684FF6FF035A
:100EC000184040EA0220034A1043086070470000BF
:100ED0000CED00E00000FA052DE9F0470F46050093
:100EE00061D0434E306800F00700B84209D2306844
:100EF00020F0070038433060306800F00700B84247
:100F000051D128683B4C810712D5400703D5606852
:100F100040F4E06060602878000703D5606840F422
:100F2000605060606068A96820F0F000084360606D
:100F30002878C00728D06868012810D021680228C6
:100F400010D0890700292EDA616821F003010143DE
:100F50006160FFF7F1FE804641F288390DE02168BB
:100F60008903EFE78901EDE7FFF7E6FEA0EB080153
:100F7000494502D90320BDE8F0876068696800F040
:100F80000C00B0EB810FEFD1306800F00700B842E1
:100F90000BD9306820F0070038433060306800F02B
:100FA0000700B84201D00120E5E72878400705D5C1
:100FB0006068E96820F4E060084360602878000712
:100FC00006D56068296920F4605040EAC10060607D
:100FD00000F058F86168084AC1F30311515CC84039
:100FE0000649086006480068FFF7C6FE0020C2E711
:100FF00000200240001002407E8100081C000020FA
:10100000140000200F2202600C4A536803F003030F
:101010004360536803F0F0038360536803F4E063B4
:10102000C36052684FF4E06303EAD20202610448ED
:10103000006800F0070008607047000000100240E0
:10104000002002400448054900684968044AC1F389
:101050000221515CC84070471C0000200010024073
:101060008E8100080448054900684968044AC1F3B4
:10107000C221515CC84070471C0000200010024093
:101080008E8100080E4A51680E4801F00C03042BB3
:1010900011D0082B0FD10C48C1F38343C903C05CA6
:1010A0000AD55168084AC1F34041921E515C054A75
:1010B0005043B0FBF1F070470449484370470000CB
:1010C0000010024000127A006E81000800093D0005
:1010D0002DE9F84F040070D02078C04DC00749D0EA
:1010E0006868C0F38100012807D06868C0F38100F8
:1010F000022809D16868C00306D52868800339D55D
:1011000060680028E7D035E06068B0F5803F0BD01C
:1011100010B1B0F5A02F11D0286820F480302860DD
:10112000286820F4802002E0286840F4803028609D
:10113000606890B1FFF700FE06460AE0286840F4B8
:1011400080202860F0E700BFFFF7F6FD801B6428D1
:1011500073D828688003F7D50CE0FFF7EDFD06464D
:1011600005E000BFFFF7E8FD801B6428F0D8286881
:101170008003F7D420789A4E80074FF001094FF092
:10118000000839D5686810F00C0F07D06868C0F304
:101190008100022809D16868C00306D42868800746
:1011A00014D52069012808D110E02069B0B1C6F833
:1011B0000090FFF7C1FD074605E00AE1FFF7BCFD1F
:1011C000C01B0228C4D828688007F7D52868616941
:1011D00020F0F80040EAC10028600DE0C6F8008069
:1011E000FFF7AAFD074604E0FFF7A6FDC01B022893
:1011F00023D828688007F7D4207800072CD57948B1
:10120000A169D9B1C0F80090FFF796FD074604E048
:10121000FFF792FDC01B02280FD8686A8007F7D538
:1012200071484FF4FA510068B0FBF1F0009000BF34
:101230000098411E0091FAD20EE080E0C0F80080D4
:10124000FFF77AFD074604E0FFF776FDC01B022892
:1012500075D8686A8007F7D42078400760D5E869B8
:101260000027C00008D4E86940F08050E861E869D0
:10127000012700F0805000905C480168C90513D434
:101280000168834641F480710160FFF755FD824695
:1012900006E000BFFFF750FDA0EB0A0064284ED81F
:1012A000DBF80000C005F5D5E06801280AD008B1D8
:1012B000052813D0286A20F001002862286A20F04F
:1012C000040002E0286A40F001002862E06841F270
:1012D000883B98B1FFF730FD82460BE0286A40F06A
:1012E00004002862EEE700BFFFF726FDA0EB0A012D
:1012F00059455AD8286A8007F6D50CE0FFF71CFD3F
:10130000824605E0FFF718FDA0EB0A0159454CD8CD
:10131000286A8007F6D41FB1E86920F08050E861A0
:10132000E06988B36968C1F38101022944D00228C9
:10133000C6F8608004D0FFF7FFFC044638E034E0D4
:10134000FFF7FAFC074604E0FFF7F6FCC01B022893
:101350002BD828688001F7D4206AB0F5803F05D1EA
:101360006868A16820F4003008436860D4E9080187
:101370000843696821F4741108436860C6F86090F6
:10138000FFF7DAFC044606E025E000BFFFF7D4FCD7
:10139000001B022809D828688001F7D51BE000BF90
:1013A000FFF7CAFC001B022802D90320BDE8F88F12
:1013B00028688001F4D40EE00128F7D06868226A1A
:1013C00000F48031914204D1616A00F470108842C7
:1013D00001D00120EAE70020E8E700000010024009
:1013E00000004242800442421C0000200070004085
:1013F0007047704770B590F83C20012A2CD001242A
:1014000080F83C40022280F83D2003685A689D68BD
:1014100022F070060A6832435A60104B02689A4202
:101420000ED00F4B9A420BD0B2F1804F08D00D4B2B
:101430009A4205D00C4B9A4202D00C4B9A4204D1EE
:10144000496825F080031943916080F83D400021F0
:1014500080F83C10084670BD022070BD002C014091
:10146000003401400004004000080040000C00402F
:1014700010B5040003D094F83D0010B107E001203E
:1014800010BD002084F83C00204600F01FF8022028
:1014900084F83D00211D206801F09EFB012084F8A6
:1014A000460084F83E0084F83F0084F8400084F849
:1014B000410084F8420084F8430084F8440084F832
:1014C000450084F83D00002010BD000008B500680C
:1014D0000649884208D10648C16941F00201C1614C
:1014E000C06900F00200009008BD00000004004048
:1014F0000010024090F83D10012901D001207047F2
:10150000022180F83D100168CA6842F00102CA60F9
:1015100000680E4988420ED00D4988420BD0B0F1C8
:10152000804F08D00B49884205D00B49884202D031
:101530000A49884204D1816801F00701062903D0D5
:10154000016841F00101016000207047002C01405A
:10155000003401400004004000080040000C00403E
:1015600070B5044690F83C000025012817D00126EC
:1015700084F83C60022084F83D002068826822F0F4
:10158000770222F47F4282600868502838D00DDC50
:1015900020284FD005DC90B3102811D14AE002205A
:1015A00070BD302846D040280AD13BE060282FD0BB
:1015B00070280DD0B0F5805F03D0B0F5005F12D079
:1015C000012584F83D60002084F83C00284670BD69
:1015D000CB68D1E90121206801F04CFB20688168CB
:1015E00041F0770109E0CB68D1E90121206801F0E1
:1015F00041FB2068816841F480418160E1E719E0A6
:10160000CA684968206801F009FC5021206806E09A
:10161000CA684968206801F012FC6021206801F066
:1016200033FBCEE7CA684968206801F0F7FB402128
:101630002068F4E7226801461046F0E72DE9F04102
:101640000D46040003D094F83D0018B108E00120D5
:10165000BDE8F081002084F83C00204600F040F80E
:10166000022084F83D002068816844F2070291431B
:101670008160211D206801F0AFFA226890689169AD
:10168000166A2B68AF69034340F20330814341EA95
:101690000721A868EF6908434FF6FC418843E968D1
:1016A00040EA0720014328692F6A000140EA073019
:1016B000084369686D6926F0220646EA0515294344
:1016C00093602268906154F8460B0162012004F88F
:1016D0001F09E0752076E0762077A0750020B7E737
:1016E00000B585B0002100910191029103911A4B40
:1016F00002681A48C0219A4213D1C26942F004021A
:10170000C261C26902F004020492826942F00802D6
:1017100082618069009100F00800049069461048D9
:1017200015E0104B9A4214D1826942F40052826152
:10173000826902F400520492826942F010028261CE
:101740008069009100F01000049069460648FFF798
:10175000EDF905B000BD0000000800400010024097
:10176000000C0140003401400010014070472DE999
:10177000F04104460068C66805694FF00007A907F4
:1017800013D5B10711D5F91E01610120207720681A
:1017900080698007204602D0FFF7E8FF04E000F0F0
:1017A000B7F8204600F049F92777680716D5700783
:1017B00014D521686FF004000861022020772068AA
:1017C000806910F4407F204602D0FFF7CFFF04E08D
:1017D00000F09EF8204600F030F92777280715D54D
:1017E000300713D521686FF00800086104202077C6
:1017F0002068C0698007204602D0FFF7B7FF04E0E9
:1018000000F086F8204600F018F92777E80616D58C
:10181000F00614D521686FF01000086108202077C9
:101820002068C06910F4407F204602D0FFF79EFF79
:1018300004E000F06DF8204600F0FFF82777E80795
:1018400008D0F00706D021686FF00100086120463B
:1018500000F0F4F8280608D5300606D521686FF0A8
:10186000800008612046FFF7C3FD680608D57006B2
:1018700006D521686FF040000861204600F0E8F8C6
:10188000A8060AD5B00608D521686FF020000861C7
:101890002046BDE8F041FFF7ACBDBDE8F081000097
:1018A00010B586B00021009101910291039100686A
:1018B0001349884221D11348816941F004018161B3
:1018C000816901F004010491816941F0080181619D
:1018D0008069022400F008000490C020CDE90004D3
:1018E000694609480394FFF721F90320CDE9000474
:1018F000694606480394FFF719F906B010BD0000C9
:10190000000400400010024000080140000C0140AB
:10191000704770B5044690F83C0000260D4601283B
:101920000FD0012084F83C006AB1042A1DD0082A97
:101930002FD00C2A3FD00126002084F83C003046EE
:1019400070BD022070BD206801F0A6F92068816991
:1019500041F0080181612068816921F00401816101
:10196000206881692A69114311E0206801F0C4F9F7
:101970002068816941F4006181612068816921F4F6
:1019800080618161206881692A6941EA022181615F
:10199000D2E7206801F0E6F92068C16941F008014A
:1019A000C1612068C16921F00401C1612068C16979
:1019B0002A69114311E0206801F008FA2068C16922
:1019C00041F40061C1612068C16921F48061C16195
:1019D0002068C1692A6941EA0221C161ACE710B5FA
:1019E000040003D094F83D0010B107E0012010BDC1
:1019F000002084F83C00204600F01EF8022084F805
:101A00003D00211D206801F0E7F8012084F8460020
:101A100084F83E0084F83F0084F8400084F84100D8
:101A200084F8420084F8430084F8440084F84500B8
:101A300084F83D00002010BD7047704700680349DE
:101A4000884201D1FFF77EB97047000000140040C2
:101A5000704770B5040004D094F84100002510B11F
:101A600006E0012070BD84F84050204600F024F8C4
:101A7000242084F841002068C16821F40051C1602D
:101A8000204601F015FA2068016921F490410161B6
:101A90002068416921F02A0141612068C16841F450
:101AA0000051C1606564202084F8410084F8420040
:101AB0006563002070BD000030B585B0002400943F
:101AC00001940294039400681449884224D1144874
:101AD000816941F480418161816901F4804104910F
:101AE000816941F00401816180690E4D00F00400BC
:101AF00004904FF4007000900220019003200390A6
:101B000069462846FFF712F82815CDE90004694612
:101B100028460294FFF70AF805B030BD00380140AE
:101B200000100240000801402DE9F843044690F8F7
:101B30004100984616460D46202802D00220BDE8F6
:101B4000F88385B17EB100206064212084F84100D3
:101B5000FFF7F2F8A6848146E684A0682027B0F556
:101B6000805F02D003E00120E9E7206910B12E4632
:101B700000250EE000260CE08021204601F0F4F95B
:101B8000A8B9C6B116F8010B21684860E08C401E68
:101B9000E084E08C4B464FF00002CDF80080002836
:101BA000EAD14FF04001204601F0DEF940B184F85F
:101BB00041700320C3E735F8020BC0F30800E3E7E8
:101BC00084F841700020BAE7FEE700002DE9F041FB
:101BD000082405464FF40048E602134F18E000BF02
:101BE000FFF7A5F800F0A4F8280601D5012200E0CF
:101BF000002241463846FFF79AF86806050E00F0C5
:101C000097F8012231463846FFF791F800F090F836
:101C1000641EE4B24FF0000231463846E0D2BDE81F
:101C2000F041FFF784B80000000C014070B50122BC
:101C3000144DD40321462846FFF779F80122910379
:101C40002846FFF774F800F073F821462846FFF79E
:101C500069F800280CD0002221462846FFF767F8D3
:101C600000F066F821462846FFF75CF808B100202E
:101C700070BD002221462846FFF759F800F058F8B9
:101C8000012070BD000C014070B5114D4FF480442F
:101C9000002221462846FFF74AF800F049F866007E
:101CA000002231462846FFF742F800F041F80122B1
:101CB00021462846FFF73BF800F03AF8012231466A
:101CC0002846FFF734F8BDE8704000F031B8000056
:101CD000000C014070B5154C4FF480450022294698
:101CE0002046FFF724F800F023F80122D6033146FE
:101CF0002046FFF71CF800F01BF801222946204679
:101D0000FFF715F800F014F831462046FFF70AF8FF
:101D100000284FF000022946204603D0FFF707F8BD
:101D2000002070BDFFF703F8012070BD000C0140DA
:101D300008B50A200090401E0090FCD108BD0000AC
:101D40002DE9FC41804601241D4616460F46002021
:101D500005E000BF04EB84014C00401CC0B2A84267
:101D6000F8D3204605F0D2FF314605F0FBFF4FF0D7
:101D70007C5110F1FF4F02D205F062FE01E006F047
:101D8000BDF805F087FF002808DA404290FBF4F325
:101D900090FBF4F104FB110008A206E090FBF4F3C1
:101DA00090FBF4F104FB110007A2CDE90050394685
:101DB0004046FEF7B3FABDE8FC8100002D256C64B7
:101DC0002E25302A6C640000256C642E25302A6C88
:101DD0006400000010B50BA0FEF784FE15A0FEF70E
:101DE00081FE23A0FEF77EFE22A0FEF77BFE2AA046
:101DF000FEF778FE35A0FEF775FEBDE810403D48C1
:101E0000FEF770BE236D7075363035302C4331309F
:101E1000422C504231343D53434C2C504231353DDD
:101E20005344412C5553415254313D3131353230B8
:101E3000300D0A0023636F6E6669672C70657269E6
:101E40006F645F6D733D32302C726174655F687AC8
:101E50003D35302C636F6D705F616C7068613D3033
:101E60002E39382C70697463685F7369676E3D0042
:101E7000310D0A0023636F6E6669672C626F6479A7
:101E80005F70697463685F617869733D646D705FEA
:101E9000726F6C6C0D0A00006D732C737461746545
:101EA0002C61785F7261772C61795F7261772C6148
:101EB0007A5F7261772C67785F7261772C67795FE0
:101EC0007261772C677A5F7261772C0061785F6747
:101ED0002C61795F672C617A5F672C61785F6D7325
:101EE000322C61795F6D73322C617A5F6D73322CA5
:101EF00000000000E08E00082DE9FF4FADF5217DC8
:101F00001C461546B2F90000AE9E05F0FFFE3146B4
:101F100005F0FEFD8046B5F9020005F0F7FE3146FA
:101F200005F0F6FD8246B5F9040005F0EFFE3146F6
:101F300005F0EEFD8346B4F9000005F0E7FEAF9929
:101F400005F0E6FD8146B4F9020005F0DFFEAF9929
:101F500005F0DEFD0746B4F9040005F0D7FEAF99A1
:101F600005F0D6FD06460523424612215BA8FFF781
:101F7000E7FE05235246122160A8FFF7E1FE052384
:101F80005A46122165A8FFF7DBFE4549404605F099
:101F9000E9FE0246042312216AA8FFF7D1FE404958
:101FA000504605F0DFFE0246042312216FA8FFF71A
:101FB000C7FE3B49584605F0D5FE024604231221D0
:101FC00074A8FFF7BDFE04234A46122179A8FFF743
:101FD000B7FE04233A4612217EA8FFF7B1FE042380
:101FE0003246122183A8FFF7ABFE0323122188A8F3
:101FF000B09AFFF7A5FE032312218DA8B19AFFF72F
:102000009FFE284803230268122192A8FFF798FE3A
:10201000254803230268122197A8FFF791FE234861
:102020000323026812219CA8FFF78AFE11AF9CAB24
:1020300097AA92A98DA887E80F000DAF88AB83AA55
:102040007EA979A887E80F0009AF74AB6FAA6AA9C7
:1020500065A887E80F00B4F9020005AF60AB5BAA82
:10206000B4F9041087E80F00B5F9000001AFB4F926
:102070000030B5F90420B5F9021087E80F00A298E6
:1020800000900B4A4FF48C7115A8A19BFEF746F9FE
:1020900015A8FEF727FD0DF5257DBDE8F08F0000A2
:1020A0000AE81C41EC000020E8000020F0000020BD
:1020B000288F00082DE9F04F8DB00CA906A8CDE9B6
:1020C00000010BAB07AA04A902A801F0C1FCBDF8EE
:1020D00018006F4CC0057DD5079805F017FE6FF00E
:1020E0001D05294605F0DFFF0746E060089805F06A
:1020F0000DFE294605F0D7FF80462061099805F0BE
:1021000005FE294605F0CFFF064660610A9805F0F6
:10211000FDFD294605F0C7FF0546A06101213846AF
:1021200005F0C1FF314605F01DFE06464FF0404761
:102130003946404605F016FE294605F013FE3146A5
:1021400005F07EFC05F050FC01F01CF8DFF844912E
:102150004FF0663842464B4605F06CF904F0E8FE55
:10216000E06160690121054605F09DFF8246294630
:1021700005F0F8FD054620693946074605F0F2FDF1
:10218000394605F0EFFD294605F0B8FE4FF07E51C7
:1021900005F056FC05F028FC05460E460121E068D6
:1021A00005F081FF394605F0DDFD07465046A1697F
:1021B00005F0D8FD394605F043FC05F015FC2A462C
:1021C000334601F027FA42464B4605F033F904F056
:1021D000AFFE00E040E02062A1690191084605F0F1
:1021E000C1FD616907460846009105F0BBFD216904
:1021F00006468B46584605F0B5FDE16805468A4619
:10220000504605F0AFFD294605F01AFC314605F0B1
:1022100075FE394605F072FE05F0E6FB05460E46F2
:102220005046019905F09EFD07465846009905F075
:1022300099FD394605F004FC012105F034FF05F055
:10224000D3FB2A46334601F0E5F942464B4605F0FA
:10225000F1F804F06DFE6062BDF9180010F0700F27
:1022600008D0BDF80810E180BDF80A102181BDF842
:102270000C106181000708D5BDF810002080BDF862
:1022800012006080BDF81400A0800DB0BDE8F08F92
:10229000CC00002066A64C4070B502F0EBFB08B104
:1022A000002070BD2FA0FEF72DF8782003F0DCF899
:1022B00008B134A04EE039A0FEF724F8782002F0EF
:1022C000B9FA08B13CA045E042A0FEF71BF8322065
:1022D00003F08AF808B147A03CE04EA0FEF712F8E0
:1022E00001F0ACFB08B153A034E05AA0FEF70AF8A5
:1022F0006148044602F064FA0546E01C02F060FA08
:1023000045EAC005A01D02F05BFA45EA801080B2E4
:1023100001F052FD08B159A01CE061A0FDF7F2FFE9
:1023200040F2731001F062FA08B166A012E06DA0ED
:10233000FDF7E8FF322001F0A7FC08B172A009E028
:1023400079A0FDF7DFFF03F0FFFD012002F072FF2F
:1023500018B17EA0FDF7D6FFA2E783A0FDF7D2FF5C
:10236000012070BD236D70752C696E697469616C94
:10237000697A6174696F6E5F636F6D706C657465A7
:102380000D0A0000236D70752C7365745F73656EA4
:10239000736F725F6572726F720D0A00236D7075D4
:1023A0002C7365745F73656E736F725F636F6D70AE
:1023B0006C6574650D0A0000236D70752C636F6E7B
:1023C0006669677572655F6669666F5F6572726F71
:1023D000720D0A00236D70752C636F6E66696775E8
:1023E00072655F6669666F5F636F6D706C6574655B
:1023F0000D0A0000236D70752C7365745F73616D39
:10240000706C655F726174655F6572726F720D0AE0
:1024100000000000236D70752C7365745F73616D2F
:10242000706C655F726174655F636F6D706C65740D
:10243000650D0A00236D70752C646D705F6C6F61A3
:10244000645F6669726D776172655F6572726F72E3
:102450000D0A0000236D70752C646D705F6C6F61E8
:10246000645F6669726D776172655F636F6D706CD2
:102470006574650D0A000000F4000020236D70757E
:102480002C646D705F7365745F6F7269656E7461E3
:1024900074696F6E5F6572726F720D0A00000000E2
:1024A000236D70752C646D705F7365745F6F7269F6
:1024B000656E746174696F6E5F636F6D706C657467
:1024C000650D0A00236D70752C646D705F656E611B
:1024D000626C655F666561747572655F6572726F67
:1024E000720D0A00236D70752C646D705F656E61EE
:1024F000626C655F666561747572655F636F6D7050
:102500006C6574650D0A0000236D70752C646D7028
:102510005F7365745F6669666F5F726174655F653E
:1025200072726F720D0A0000236D70752C646D70ED
:102530005F7365745F6669666F5F726174655F6320
:102540006F6D706C6574650D0A000000236D707509
:102550002C7365745F646D705F73746174655F651F
:1025600072726F720D0A0000236D70752C736574A2
:102570005F646D705F73746174655F636F6D706CC1
:102580006574650D0A00000010B50C4A00210C4866
:1025900003F04AF80B4C60600BA0FEF7A3FA074A61
:1025A000002124320F4803F03FF8A060002804D136
:1025B000BDE810400CA0FEF795BA10BD24810008BC
:1025C0008928000800000020236D707536303530F2
:1025D0002C6D6F64655F73656C65637465640D0A6B
:1025E0000000000091280008236D707536303530EA
:1025F0002C6572726F722C7461736B5F63726561AC
:1026000074655F6661696C65640D0A0030B585B0FC
:10261000002000900190029003902048816941F0D1
:1026200020018161816901F020010491816941F0FB
:1026300004018161816901F004010491816941F023
:1026400008018161816901F008010491816941F00B
:10265000100181618069124D00F010004FF4404478
:102660000490012221462846FEF761FB1120CDE9A6
:102670000040012002900320039069462846FEF79F
:1026800055FA6815009007480190022002906946AB
:102690002846FEF74BFA05B030BD0000001002409E
:1026A000000C01400000111010B58EB000240794FA
:1026B000089409940A940B941C2168460C94FEF724
:1026C0002FF82A482849C0E9001441F61F41C0E903
:1026D0000241802104618161FEF7CAFE08B1FEF764
:1026E00011FA4FF48050079007A92048FEF738FFF1
:1026F00008B1FEF707FA1D48FFF771F908B1FEF7B8
:1027000001FA0B940BA919480C94FEF773FE08B15B
:10271000FEF7F8F96020CDE9000402940022694632
:1027200012480494FFF7F5F808B1FEF7EBF904221C
:1027300069460E48FFF7EDF808B1FEF7E3F9082205
:1027400069460A48FFF7E5F808B1FEF7DBF90C2205
:1027500069460648FFF7DDF808B1FEF7D3F90348EC
:10276000FFF79EF80EB010BD0004004000010020ED
:1027700010B58CB024216846FDF7D2FF002416481E
:10278000099414490A94C0E900144FF6FF71C0E996
:102790000241046184610320CDE900040120CDE9F8
:1027A000020404210491CDE90540CDE907416946C1
:1027B0000948FEF743FF08B1FEF7A4F9099409A9F7
:1027C00005480A94FEF716FE002801D0FEF79AF994
:1027D0000CB010BD000800404801002010B58CB0BE
:1027E00024216846FDF79CFF0024174809941549E9
:1027F0000A94C0E900144FF6FF71C0E90241046178
:10280000446184610320CDE900040120CDE9020484
:1028100004210491CDE90540CDE9074169460A4804
:10282000FEF70CFF08B1FEF76DF9099409A90648F7
:102830000A94FEF7DFFD002801D0FEF763F90CB023
:1028400010BD000000340140900100200C4810B57C
:102850000A4901604FF4E1314160002181600C229E
:10286000C160C0E904128161C161FFF7F2F800287C
:1028700003D0BDE81040FEF745B910BD0038014057
:10288000D8010020FEE7FEE7012002F073FEFBE71F
:1028900092B00025764805904FF48040ADF83400A2
:1028A0002E462C46A9462F4672A0FEF71BF977A0AC
:1028B000FEF718F981A0FEF715F901F077FE01F097
:1028C00013FF4FF4967805E082A07F1CFEF70AF90B
:1028D00001F00AFF404602F04DFEFFF7DDFC002844
:1028E0007DD00DA802F016F805A802F079F87FA0B7
:1028F000FEF7F8F8FFF76EFA02F060FE07460020D8
:102900000B900C9009900A901090FFF7D3FB10A940
:102910000BA801F0D7FF58B179480088ADF82C001A
:1029200078480088ADF82E0077480088ADF8300070
:1029300010A909A802F02AF858B174480088ADF827
:10294000240073480088ADF8260072480088ADF86E
:102950002800BDF8340005F0F1F98046BDF92C00DF
:1029600005F0D4F9414605F0D3F88346BDF92E00B1
:1029700005F0CCF9414605F0CBF80390BDF93000E5
:1029800005F0C4F9414605F0C3F88046BDF92400BE
:1029900005F0BCF9059905F0BBF80790002D60D053
:1029A000A81B05F0CBF95C4905F0B2F88246414618
:1029B000084605F0D7F906465946084605F0D2F90B
:1029C000314605F03DF805F00FF803F04DFB0646E3
:1029D0008846039805F008F83246434600E034E0A4
:1029E00000F018FE4FF000524C4B04F023FD04F0B1
:1029F0009FFA0646B9F1000F36D04949304605F036
:102A0000B1F980465146079805F0ACF9214605F02A
:102A100017F8444905F0A6F9414605F011F80446B7
:102A2000BDF8340005F08AF9059903948DE8430058
:102A300009AB0BAA3CA12846FFF75EFA2E461437D5
:102A40001435384602F0A3FD59E7052FFFF63CAFD9
:102A500037A0FEF747F84FF47A74204602F08AFD5B
:102A6000FBE72F480A30A1E734464FF00109D7E7CA
:102A700000000343236D7075363035302C7461735C
:102A80006B5F73746172740D0A000000236D7075C2
:102A9000363035302C433130422C504231343D53A6
:102AA000434C2C504231353D5344412C55534152F7
:102AB00054313D3131353230300D0A00236D70759F
:102AC000363035302C696E69745F626567696E0DEA
:102AD0000A000000236D7075363035302C696E6940
:102AE000745F72657472790D0A000000236D707551
:102AF000363035302C696E69745F6F6B0D0A0000DB
:102B0000CC000020CE000020D0000020D200002009
:102B1000D4000020D600002000007A44DCA54CC080
:102B200000D7A33C48E17A3F737461746963000085
:102B3000236D7075363035302C6572726F722C696A
:102B40006E69745F6661696C65640D0A000000005F
:102B500010B54FF0E020006904F02CF8012803D0F4
:102B6000BDE8104003F05ABD10BD30B58FB028212C
:102B70006846FDF7D5FD14210AA8FDF7D1FD012116
:102B80000804CDE900100024029402250491CDE947
:102B900007504FF4E01009906846FEF799FA08B123
:102BA00072B6FEE70F20CDE90A054FF48060CDE94B
:102BB0000C4002210AA80E94FEF78EF9002801D0DD
:102BC00072B6FEE70FB030BD704700000148FEF757
:102BD000CEBD000020020020F0B50268204C214D3F
:102BE000214E224F224B4FF0804CA04209D09842F8
:102BF00007D0604505D0A84203D0B04201D0B8420A
:102C000004D122F0700E4A6842EA0E02A04209D0B6
:102C1000984207D0604505D0A84203D0B04201D009
:102C2000B84203D122F44075CA682A434D6922F0A4
:102C300080022A4302608A68C2620A688262A042F5
:102C400001D0984201D10969016301214161016903
:102C5000C90703D0016921F001010161F0BD000045
:102C6000002C01400004004000080040000C00401F
:102C70000034014010B5846842EA032224F47F4402
:102C80000A432243826010BD826822F070020A4328
:102C900042F0070181607047F0B5036A026A22F0D2
:102CA0000102026242688469124E24F073050C68C6
:102CB0002C4323F002058B682B430D4DA84201D015
:102CC000B04205D123F00807CB683B4323F004034F
:102CD000A84201D0B04205D14D6922F4407215439B
:102CE0008A692A4342608461496841630362F0BD96
:102CF000002C014000340140F0B5026A036A23F061
:102D000010030362436884690D6824F4E64444EACE
:102D100005248D6822F0200242EA05120F4D104E64
:102D2000A84201D0B04206D1CF6822F0800242EA28
:102D3000071222F04002A84201D0B04207D14D69EB
:102D400023F4406343EA85038D6943EA85034360C6
:102D50008461496881630262F0BD0000002C01407B
:102D600000340140F0B5026A036A23F48073036201
:102D70004368C46922F4007224F073050C68124E93
:102D80002C438D6842EA05220E4DA84201D0B04284
:102D900006D1CF6822F4006242EA072222F4806260
:102DA000A84201D0B04207D14D6923F4405343EA11
:102DB00005138D6943EA05134360C4614968C16323
:102DC0000262F0BD002C01400034014030B5046ABD
:102DD000026A22F4805202624268C3690D6823F4D9
:102DE000E64343EA05238D6824F4005444EA05349D
:102DF000084DA84202D0084DA84204D14D6922F4E2
:102E0000804242EA85124260C361496801640462FB
:102E100030BD0000002C01400034014010B5036AB1
:102E2000046A24F001040462846924F0F00444EA92
:102E3000021423F00A020A438461026210BD10B535
:102E4000036A046A24F010040462846923F0A00376
:102E500024F4704444EA023243EA011182610162BF
:102E600010BD01680C3151E8002F22F4907241E846
:102E70000023002BF5D10168143151E8002F22F016
:102E8000010241E80023002BF5D1016B012909D192
:102E900001680C3151E8002F22F0100241E80023B4
:102EA000002BF5D1202180F84210002101637047EA
:102EB00070B5044600680169E26821F4405111438D
:102EC00001612169A0680843616908432168CA68F3
:102ED00041F20C639A430243CA6020684169A269C7
:102EE00021F44071114341611E492068884202D19A
:102EF000FEF7B8F801E0FEF7A5F800EBC00101EB22
:102F00000012606864218000B2FBF0F3B3FBF1F3C0
:102F10006FF018067343B2FBF0F5B2FBF0F605EB69
:102F20008305322303EB0515B5FBF1F5B6FBF1F68E
:102F300005F0F00505EB0615B2FBF0F6B2FBF0F07C
:102F4000B0FBF1F06FF01802504306EB800003EB8A
:102F50000010B0FBF1F0216800F00F0028448860F9
:102F600070BD0000003801402DE9F843984617462F
:102F70000D460446089E24E0701C22D0FDF7DCFEBE
:102F8000A0EB0800B0421AD8CEB12068C16849074A
:102F900017D5802D15D0402D13D00168C9430907DE
:102FA0000FD401680025406800902046FFF759FFC4
:102FB0000820606484F840500120BDE8F8830320B5
:102FC000FBE72068006835EA000004D00020B84222
:102FD000D2D00020F1E70120F9E7FEE7490050EAEE
:102FE000C12018BF04204A0D18BF40F0010040F274
:102FF000FF72B2EB515F08BF40F00200012808BF2A
:10300000052070470907090E002804DB00F1E020C5
:1030100080F80014704700F00F0000F1E02080F805
:10302000141D70472DE9F0414F1E00EBC701044607
:10303000D1E9000115461E4637F006020DD02A469A
:10304000334604F0F7F97F1E04EBC703D3E90023EE
:1030500003F0A0FF37F00602F1D1022F25D0042F94
:1030600013D0062F18BFBDE8F0812A46334604F07E
:10307000E1F9D4E90A2303F08DFF2A46334604F030
:10308000D9F9D4E9082303F085FF2A46334604F032
:10309000D1F9D4E9062303F07DFF2A46334604F034
:1030A000C9F9D4E9042303F075FF2A46334604F036
:1030B000C1F9D4E9022303F06DFF2A46334604F038
:1030C000B9F9D4E90023BDE8F04103F063BF012260
:1030D00004F0BBBF03F05EBF00221346104611464A
:1030E00004F014B8024A0020110704F0AEBF00003B
:1030F00001FDFFFF30380A2801D20120704700206F
:10310000704770472DE9FE4F07460E46002568467A
:1031100001F002F800246FF00F0AE8464FF00109B1
:1031200057F8240056F82410401A00D5404204F005
:10313000EDFD514604F0B7FF58F8241011F0FF4F91
:103140000BD004F0E5FC4FF07E5104F0D7FE0A49A5
:1031500020F00040884205DC07E00849084408499F
:10316000884202D309FA04F00543641C032CD7DB20
:103170002846BDE8FE8F0000295C0F3E666666C1EA
:103180009A99D9002DE9F04D8D4F21F0004A86B073
:1031900005460C46BA452ADBAAEB070028430AD0AD
:1031A0008848824501DC1AD1CDB106B02846BDE879
:1031B000F04DFFF78CBF844A844B284604F03AF95F
:1031C00007460E46824A834B2846214604F032F9D0
:1031D00006B03A463346BDE8F04D03F0DBBE0120B1
:1031E000FDF745FB06B0BDE8F04DFFF775BF7A4827
:1031F000824542DABAF1795F0BDA2846FFF7EEFE34
:10320000042808BFFFF76EFF284606B02146BDE838
:10321000F08D2A460B46104604F00CF98346024610
:103220006E480E460B4606217844FFF7FBFE5A46D1
:10323000334604F0FFF8804669488A465A463346CA
:1032400004217844FFF7EEFE5A46334604F0F2F8C4
:1032500000223B4603F09EFE02460B464046514686
:1032600003F054FF2A46234604F0E4F806B02A4649
:103270002346BDE8F04D03F08DBE284624F0004102
:1032800000223D463B4604F0D3F94FF0FF3204F0F4
:10329000DCFE0646024653480F460B46062178449C
:1032A000FFF7C0FE32463B4604F0C4F8CDE900010A
:1032B0004D4832463B4604217844FFF7B3FE324680
:1032C0003B4604F0B7F800222B4603F063FE83462A
:1032D00002913046394602F0C7FE804643480D460B
:1032E000504517DCDDE900015A46029B03F00EFF52
:1032F00042462B4604F09EF842462B4603F04AFE17
:10330000012204F0A2FE304A304B04F083FA304A26
:10331000304B4CE04FF0000A52460B46404603F05B
:1033200039FECDE9031052462B461046194604F0EB
:1033300081F832463B4604F07BF9DDE9033203F0C5
:10334000E5FE06460F46DDE900015A46029B03F002
:10335000DDFE8346009101223046394604F075FEB9
:10336000194A1A4B04F064F906460F4601224046FA
:10337000294604F06AFE5A46009B04F05BF8324688
:103380003B4604F047FA06460F46012250462946BE
:1033900004F05BFE0E4DDFF858802A46434604F0E9
:1033A00047F932463B4604F043F92A46434604F0C7
:1033B0003FF9002CD8BF81F0004106B0BDE8F08D88
:1033C0000000F03F0000F07F075C143326A6913C1C
:1033D000182D4454FB21F93F0000E03FC45B00007E
:1033E000DA5B00004E5B0000645B00003333EF3FAC
:1033F000FB21E93F2DE9F84F04460D4621F000403E
:1034000000917349814211DC7249884201DC06D186
:103410002CB120462946BDE8F84FFFF758BE6E484C
:10342000002DCCBF6D496E49BDE8F88F6D498142D2
:1034300011DD6D498142D8BF4FF0FF366DDD20466A
:103440002946FFF7CBFD042808BFFFF74BFE2046B7
:103450002946BDE8F88F6549654F25F00045814252
:1034600033DD6449814219DD002632464FF0804346
:103470002046294603F08EFD80468A4601222046DA
:10348000294604F0E2FD00223B4604F0C3F942461F
:10349000534603F03BFE04460D463EE00126002263
:1034A000BA463B462046294603F074FD80460F4647
:1034B000002253462046294604F0ACF942463B46DA
:1034C00003F024FE04460D4627E04B4981421BDDF4
:1034D000DFF828A10226002253462046294603F0A1
:1034E000A9FF00223B4603F055FD80460F4600220F
:1034F00053462046294604F08DF942463B4603F0E8
:1035000005FE04460D4608E0032622462B46002011
:103510003B4903F0FBFD04460D4622462B46104670
:10352000194603F087FF8B46824602460B4603F09E
:1035300081FF07460246334888460B4606217844F9
:10354000FFF770FD52465B4603F074FF82462E483B
:103550008B463A46434605217844FFF763FD3A46D9
:10356000434603F067FF02460B46002E504659467D
:103570000CDA03F00FFD22462B4603F05BFF01B08F
:1035800022462B46BDE8F04F04F052B803F002FD8E
:1035900022462B4603F04EFF1C4A7A4402EBC60338
:1035A000D3E9002304F036F922462B4604F032F921
:1035B000174A7A4402EBC603D3E9002304F038F833
:1035C000009A002AB8BF81F00041BDE8F88F0000E2
:1035D000000010440000F07F182D4454FB21F93FF7
:1035E000FB21F9BF0000DC3F0000203E0000F33F5C
:1035F0000000F03F0000E63F008003400000F83F7D
:103600000000F0BF6659000024590000C2580000B5
:103610008A5800002DE9F04D9446CCF1000423F0C7
:1036200000464CEA0404594F46EAD4749A46884648
:1036300021F00042BC4206D8454240EA050442EA75
:10364000D474BC4204D9BDE8F04D6246FFF742BDD8
:10365000AAF14055A5F17F6555EA0C040BD0022470
:1036600004EAAA744A4DDFF82CE144EAD87452EA1D
:10367000000B04D00CE0BDE8F04DFFF7BBBE002C02
:1036800014BF012CBDE8F08D022C30D0032C32D0B9
:1036900056EA0C0B0AD0BE4220D1BA4209D126F01C
:1036A000804622F080423346114617E000291ADB9B
:1036B00025E0DFF8E4B0FB44002C04BFDBE90001A7
:1036C000BDE8F08D012C02BFDBE9000181F0004173
:1036D000BDE8F08D022C0AD0032C0CD0BA4212D1D6
:1036E000B8F1000F0BDA2A482C49BDE8F08D2846C6
:1036F0002B49BDE8F08D28467146BDE8F08D244881
:103700002849BDE8F08D921B12153C2AC4BF204FFA
:10371000244E10DCBAF1000FBEBF12F13C0F00279F
:103720003E4608DB624603F0F1FC21F00041FFF762
:1037300061FE07460E4694B1012C08BF86F0004694
:103740000DD0194A194B022C3846314615D004F0D9
:1037500061F82A46BDE8F04D114B04F05BB8002239
:1037600013463846314603F029FE04BF0220FDF718
:103770007EF838463146BDE8F08D04F04BF82A4615
:10378000BDE8F04D064B03F053BF00000000F07F92
:10379000182D4454FB2109C01E580000FB21F9BF1D
:1037A000FB210940FB21F93F075C143326A6A13C0D
:1037B00008B560B120208DF8000028208DF80100A8
:1037C00030208DF8020038208DF8030004E0A32299
:1037D00004216846FCF79CFF6A46042140F69E20BF
:1037E00001F09EFE01F05CFB08BD00003EB5044602
:1037F00002208DF80000CA208DF80100E3208DF82A
:10380000020009208DF803006A460421682001F0B7
:1038100087FEA3208DF80000610609D5C0218DF830
:103820000110C8218DF80210C2218DF8031005E0A7
:103830008DF801008DF802008DF8030014F4C07FAC
:1038400009D0C4218DF80410CC218DF80510C621B3
:103850008DF8061005E08DF804008DF805008DF850
:1038600006008DF808008DF807008DF809006A46FB
:103870000A2140F6A72001F053FEA0074FF0D8051B
:1038800003D020208DF8000001E08DF800506A463A
:10389000012140F6B62001F043FEA00601D501202B
:1038A00000E0002000F08EF814F4C07F1ED0E00588
:1038B0000AD5B2208DF800008B208DF80100B620CB
:1038C0008DF802009B2009E0B0208DF800008020D8
:1038D0008DF80100B4208DF8020090208DF80300CF
:1038E0006A46042140F6A22001F01AFEE1074FF4D7
:1038F0000B6022D0F8218DF800106A46012101F0FA
:103900000FFEFA21072000F047FB072000F012FB12
:10391000012000F02FFB642000F0D2FB4FF4FA707E
:1039200000F0DEFBC821254800F0CCFA282000F08A
:10393000E1FA0A2000F0EEFA05E08DF800506A4640
:10394000012101F0EDFDA00703D5D9208DF800007D
:1039500001E08DF800506A46012140F23D7001F00F
:10396000DFFD600701D5012000E0002000F048F8ED
:10397000E00601D5012000E00020FFF719FF104DFF
:1039800044F00800688101F08BFA0020A8736006FB
:1039900001D50620A87314F4C07F02D0A87B801D37
:1039A000A87314F0140F02D0A87B1030A873A007DE
:1039B00002D0A87B001DA87300203EBD09E3CA0207
:1039C0003C2F00200EB54FF4976310B106A107C934
:1039D00001E008A207CA8DE807006A4609211846D7
:1039E00001F09EFD0EBD0000B8AAB38DB4980D3550
:1039F0005D000000B8AAAAAAB088C3C5C70000002D
:103A000008B560B1C0208DF80000C2208DF801001B
:103A1000C4208DF80200C6208DF8030004E08B223C
:103A200004216846FCF774FE6A46042140F698209B
:103A300001F076FD01F034FA08BD0000C8234FF410
:103A40008062024940F6F63001F00CB9E8810008C6
:103A50002DE9F04F89B01746DDE912520024534E8C
:103A6000884681462C80A246B07B694601F0A6F9C3
:103A70004FF0FF3B18B1584609B0BDE8F08F708990
:103A800010F0140F4CD0BDF800109DF8022049BA78
:103A9000090441EA02239DF803100B433B60BDF883
:103AA00004109DF8062049BA090441EA02229DF853
:103AB00007101B140A437A60BDF808109DF80A40ED
:103AC00049BA090441EA04219DF80B40121421432C
:103AD000B960BDF80C409DF80EC064BA240444EAF5
:103AE0000C2C9DF80F4009144CEA040CC7F80CC0CC
:103AF0004FEA2C475B43494302FB023207FB0711A5
:103B000011441024A1F17061B1F1007F04D901F0DA
:103B1000C7F9A5F800A0AEE7298841F48071298093
:103B20004206694611D50A19A41D13885BBAA8F884
:103B3000003053885BBAA8F80230928852BAA8F8CD
:103B400004202A8842F008022A8010F4C07F11D095
:103B50000A19A41D13885BBAA9F8003053885BBA10
:103B6000A9F80230928852BAA9F804202A8842F0B3
:103B700070022A80800716D00C44E07800F0C0055F
:103B800000F03F016078C00706D0C80801F00701C7
:103B90003268491C02B190476078000703D571680C
:103BA00009B1A8098847002066E700003C2F0020E3
:103BB0002DE9FF41044603A800F0ACFEBDF80C005F
:103BC000410CC3032F48008900F0030254F822502F
:103BD000420700D56D42C0F3C102860654F8222088
:103BE00000D55242C0F38116C00554F8264000D5D6
:103BF0006442A5FB0367E81700FB037005FB0100A7
:103C0000850045EA9670A2FB0367D51705FB03758F
:103C100002FB0152950045EA9672A4FB0367E51783
:103C200005FB037304FB01318B0043EA9671030E1D
:103C30008DF80030030C8DF80130030A8DF8023046
:103C40008DF80300100E8DF80400100C8DF805009F
:103C5000100A8DF80600080E8DF80800080C8DF883
:103C60000900080A8DF80A008DF807208DF80B105E
:103C70006A460C214FF4257001F052FC04B0BDE8F7
:103C8000F08100003C2F002030B5044613A285B01F
:103C900007CA8DE807004FF0FF35C82C16D8C8209A
:103CA000B0FBF4F1491E080A8DF80C008DF80D10D8
:103CB00003AA022140F2162001F032FC30B96A4614
:103CC0000C2140F6C12001F02BFC10B1284605B0B4
:103CD00030BD054884810020F9E70000FEF2ABC446
:103CE000AAF1DFDFBBAFDFDF3C2F0020F8B53049A2
:103CF000098901F0030250F822404A0700D56442C6
:103D0000C1F3C1028B0650F8222000D55242C1F304
:103D1000811350F82330C80500D55B42254984FB48
:103D20000140850045EA947082FB0142A40F44EAF9
:103D3000820483FB0121950F45EA8105010E8DF870
:103D40000010010C8DF80110010A8DF802108DF899
:103D500003006A4604214FF4747001F0E1FB4FF058
:103D6000FF3688B9200E8DF80000200C8DF8010078
:103D7000200A8DF802008DF803406A4604214FF4B2
:103D8000757001F0CDFB08B13046F8BD280E8DF8F6
:103D90000000280C8DF80100280A8DF802008DF82B
:103DA00003506A4604214FF4767001F0B9FBF8BD68
:103DB0003C2F002009E3CA022DE9FF4104463CA044
:103DC00004F00303006802903AA0006803903AA050
:103DD00006683AA0056802A8C15C8DF80010C4F31B
:103DE000C101425C8DF80120C4F38112805C8DF822
:103DF000020003A8C35C8DF80430415C8DF8051007
:103E0000805C8DF806006A46032140F2264001F0EE
:103E100087FB4FF0FF37E0BB01AA032140F22A40A5
:103E200001F07EFBA8BBCDE9006560070BD59DF8CE
:103E3000000040F001008DF800009DF8040040F003
:103E400001008DF80400A0060BD59DF8010040F09C
:103E500001008DF801009DF8050040F001008DF88B
:103E60000500E0050BD59DF8020040F001008DF83B
:103E700002009DF8060040F001008DF806006A4639
:103E800003214FF4886001F04BFB10B901AA032114
:103E900000E004E040F2314001F042FB18B1384646
:103EA00004B0BDE8F081064804810020F8E7000076
:103EB0004CCD6C000CC92C003656760026466600A8
:103EC0003C2F00204FF47A7290FBF2F008B5484383
:103ED000010E8DF80010010C8DF80110010A8DF80B
:103EE00002108DF803006A4604214FF4AE7001F011
:103EF00017FB08BD0521B0FBF1F008B5010A8DF8EC
:103F000000108DF801006A4602214FF4AD7001F0F7
:103F100007FB08BD0521B0FBF1F008B5010A8DF8DB
:103F200000108DF801006A4602214FF4AC7001F0D8
:103F3000F7FA08BD08B500218DF80010C10702D0BE
:103F400030218DF80010810705D59DF8001041F053
:103F50000C018DF80010400705D59DF8000040F0D9
:103F600003008DF800006A4601214FF4A47001F0AF
:103F7000D7FA08BD08B560B1042800D90420401E56
:103F80008DF800006A46012140F24F1001F0C8FA96
:103F900008BD0120F3E700002DE9FC41054640077C
:103FA0004FF0FF367CD0B1F5C86F79D8084603F0E2
:103FB000C5FE3E4903F0ACFD074601A800F064FCD5
:103FC0009DF80400022806D004280DD008282ED021
:103FD000102865D134E00E21384604F064F803F06F
:103FE00075FE84B2324907E00D21384604F05BF8D3
:103FF00003F06CFE2F4984B2384603F0B3FE03F0A1
:1040000065FE210A8DF8001080B28DF80140010A8A
:104010008DF802108DF80300E8076C4620D0224688
:1040200002214FF4EA7001F07BFAC8BB11E00C21C9
:10403000384604F038F803F049FE84B21E49DBE745
:104040000B21384604F02FF803F040FE84B21B49E0
:10405000D2E7A21C02214FF4927001F061FAF8B984
:10406000A8070DD56A4602214FF4EC7001F058FA0A
:10407000B0B9A21C02214FF4947001F051FA78B942
:10408000680710D56A4602214FF4EE7001F048FA35
:1040900030B9A21C02214FF4967001F041FA10B120
:1040A0003046BDE8FC810020FBE7000000004843EB
:1040B000000040460000C045000040450000C044EC
:1040C0000521B0FBF1F008B5010A8DF800108DF85C
:1040D00001006A4602214FF4EF7001F021FA08BD99
:1040E0000521B0FBF1F008B5010A8DF800108DF83C
:1040F00001006A4602214FF4ED7001F011FA08BD8B
:1041000013B54FF6FF73012269460248FDF70CFD17
:1041100000981CBDD80100202DE9FE430646264824
:1041200001AB042240680D21007800F037FB10B18C
:104130000720BDE8FE839DF804101C2000EAD10290
:104140009DF80710DFF87490C1F301131A438DF83E
:1041500000209DF80520C1F3810300EAD2021A4332
:104160008DF801209DF8062001F0030100EAD2003D
:1041700008430024124F8DF80200A0466D46285DCA
:1041800010B146F824900AE046F824800DE000BF04
:1041900056F82400394603F0E5FD46F82400285D72
:1041A000401E10F0FF002855F2D1641CE4B2032C2D
:1041B000E5D30020BDE70000A00000207B14AE3E48
:1041C0001D5A843F2DE9FE4F05460120C14E8DF852
:1041D00000004FF000088DF8018030680C4617464B
:1041E000817C70686B460222007800F0E0FA4FF0A4
:1041F000FF3A00287AD1C820FCF786FC8DF80080B1
:1042000030686B460122C17B7068007800F0CFFAFD
:104210000028EFD130686B46012241797068007840
:1042200000F0C5FA0028E5D130686B460122817C98
:104230007068007800F0BBFA0028DBD130686B466C
:104240000122C17D7068007800F0B1FA0028D1D158
:1042500030686B46012201797068007800F0A7FA97
:104260000028C7D14FF00C098DF8009030686B46DC
:10427000012201797068007800F099FA002835D1A0
:104280000F20FCF741FCB06A6B460122407A8DF8A2
:104290000000306881787068007800F088FA0028A3
:1042A00024D1B06A6B460122007A8DF80000306894
:1042B00041787068007800F07AFA002873D1B06A0B
:1042C000807A0FB140F0E0008DF8000030686B4656
:1042D000012281797068007800F069FA002862D1C3
:1042E0002FB1B06AC07A40F0E00001E04AE0182047
:1042F0008DF8000030686B460122C1797068007843
:1043000000F055FAF0BB17B1C820FCF7FDFB4020C8
:104310008DF8000030686B460122017970680078E2
:1043200000F045FA70BB78208DF8000030686B46CD
:10433000012241797068007800F039FA10BB322010
:10434000FCF7E2FB8DF80080306847466B46417908
:1043500070680122007800F02AFA98B93168706814
:10436000B046897A00786B46022200F017FA48B905
:10437000BDF80000AF6040BAB0FBF9F06F60C6B2A4
:104380002F6000E00FE0A76067602760002739E03A
:10439000D8F80010D8F804006B46C97A00780C22CF
:1043A00000F0FCF910B15046BDE8FE8FBDF80000EA
:1043B000236840BA02B2BDF80200BDF804101A44E6
:1043C000226040BA626800B21044606049BAA068D6
:1043D00009B20844A060BDF806002B6840BA01B2DB
:1043E000BDF80800BDF80A201944296040BA696880
:1043F00000B20844686052BAA86812B210447F1C28
:10440000FFB2A860B742C3D328688322C11709044A
:1044100041EA104100040023FBF74FFF324600231E
:10442000FBF74BFF286068688322C117090441EA43
:10443000104100040023FBF740FF32460023FBF746
:104440003CFF6860A8688322C117090441EA104153
:1044500000040023FBF731FF32460023FBF72DFF5A
:10446000A86020684FF40065C117090441EA1041B3
:1044700000042A460023FBF720FF32460023FBF707
:104480001CFF206060682A46C117090441EA1041F8
:1044900000040023FBF711FF32460023FBF70DFF5A
:1044A0006060A0682A46C117090441EA104100046F
:1044B0000023FBF702FF32460023FBF7FEFEA0605D
:1044C000002802DDA0F5803001E000F58030A0601A
:1044D000002069E7A00000202DE9F84F81462E4812
:1044E0008846002540686B46032200780D2100F0C5
:1044F00055F910B10720BDE8F88F9DF800000024A1
:1045000000F01F008DF800009DF801006FF00F0B08
:1045100000F01F008DF801009DF802006E4600F0CB
:104520001F008DF802004FF0010A00BF59F8241057
:1045300058F82400081A00D5404203F0E7FB59461A
:1045400003F0B1FD0746305DC0B1144802E01449E4
:1045500003F008FC315D491E11F0FF013155F6D121
:104560000146384603F0D4FA4FF07E5103F0C6FC02
:104570000C4920F00040884205DC07E00A48384436
:10458000B0F1D97F02D90AFA04F00543641C032C68
:10459000CCDB2846AFE70000A00000200000C841A7
:1045A00054E3853F295C0F3E0000E0BE7FB50A4D15
:1045B0004FF44044012221462846FCF7B8FB112065
:1045C000CDE900400120029003200390694628466F
:1045D000FCF7ACFA7FBD0000000C01402DE9F0476C
:1045E000994616460D460446FDF720FB00281ED0CE
:1045F0006006000EFDF7EAFAFDF76CFBA0B1284655
:10460000FDF7E4FAFDF766FBFDF710FB012000EB78
:104610004400C0B2FDF7DAFAFDF75CFB4FF4004A44
:10462000304D4FF4804850E0FDF72EFB0020BDE8F0
:10463000F0870024012251462846FCF778FB072723
:104640006006040E002241462846FCF770FBFDF789
:104650006FFB012241462846FCF769FBFDF768FB2A
:1046600051462846FCF75EFB08B144F001047F1E6A
:10467000FFB2E5D20022474641462846FCF757FBE9
:1046800089F80040012E4FF000023946284622D01A
:10469000FCF74DFBFDF74CFB002251462846FCF78A
:1046A00046FBFDF745FB012239462846FCF73FFB58
:1046B000FDF73EFB002239462846FCF738FBFDF7A4
:1046C00037FB761E09F10109F6B2002EB1D1FDF7D4
:1046D000DBFA0120ABE7FCF72AFBFDF729FB0122FF
:1046E000DBE70000000C01402DE9F0410122154DEF
:1046F000D70339462846FCF71AFB012296033146B8
:104700002846FCF714FBFDF713FB00243946284626
:10471000FCF708FB88B9002231462846FCF707FB66
:10472000FDF706FB012231462846FCF700FBFDF7AA
:10473000FFFA641CE4B2092CE8D3BDE8F041FDF7B0
:10474000A3BA0000000C01402DE9F0411E461546B9
:104750000F460446FDF76AFA002819D06006000EDD
:10476000FDF734FAFDF7B6FAA0B13846FDF72EFA98
:10477000FDF7B0FA002406E0305DFDF727FAFDF7FB
:10478000A9FA38B1641CAC42F6DBFDF77DFA0120D2
:10479000BDE8F081FDF778FA0020F9E710B5FFF7E2
:1047A0001DFF08B1002010BD4FF0FF3010BD10B547
:1047B000FFF7CAFF08B1002010BD4FF0FF3010BD59
:1047C00090F90010002902DD4FF00000704702DA76
:1047D0004FF00400704790F90110002902DD4FF0FE
:1047E0000100704702DA4FF00500704790F90200AF
:1047F000002802DD4FF00200704702DA4FF0060099
:1048000070474FF007007047FCF7A4FAFEF7ADF9C8
:10481000FDF7FCFEFDF748FFFEF718F8FDF7A8FFCF
:10482000FDF7DCFF00F0D2FEFDF7AEFE00F0E0FE8B
:10483000FEE700002DE9F041124C20F001010025B7
:1048400094F8240010B10020BDE8F081A07A4FF068
:10485000FF3668B10840277C2074884200D0354676
:1048600041B1012001F0D4FB00F01AFB38B12774EC
:104870003046E9E7207D00B1012001F0C9FB284660
:10488000E2E70000A00000200D494A7A42B1012A67
:1048900008D0022A0FD0032A0FD04FF0FF30704704
:1048A000022200E004220270C97C11B11106C90D78
:1048B0000170002070470822F5E71022F3E700009E
:1048C000A00000207CB5044611480D464FF0FF368D
:1048D000817A090708D5016840686B46497B0078F2
:1048E0000622FFF75BFF08B130467CBDBDF8000033
:1048F00040BA2080BDF8020040BA6080BDF80400D4
:1049000040BAA08015B1FCF717FA286000207CBDE2
:10491000A00000200F494A7A42B1012A09D0022A98
:1049200011D0032A12D04FF0FF3070474FF480426D
:1049300001E04FF400520280C97C11B1C2F34E0174
:104940000180002070474FF48052F4E74FF400627A
:10495000F1E70000A00000200B49097A39B10129D4
:1049600007D002290AD003290BD0002103E0FA2145
:1049700001E04FF4FA710180002070474FF47A7122
:10498000F9E74FF4FA61F6E7A00000207CB5044691
:1049900012480D464FF0FF36817A11F0700F08D0A3
:1049A000016840686B46097B00780622FFF7F6FE37
:1049B00008B130467CBDBDF8000040BA2080BDF88B
:1049C000020040BA6080BDF8040040BAA08015B172
:1049D000FCF7B2F9286000207CBD0000A000002098
:1049E0000A49097A41B1012908D002290AD00329CC
:1049F0000AD04FF0FF307047054900E005490160DB
:104A0000002070470449FAE70449F8E7A0000020B5
:104A100000000343000083423333034233338341B6
:104A20000C49C97A072913D2DFE801F01204060AFB
:104A30000C0E1000BC2100E06221018000207047B4
:104A40002A21FAE71421F8E70A21F6E70521F4E71D
:104A50000021F2E7A0000020054991F8242012B1BE
:104A60004FF0FF307047C989018000207047000077
:104A7000A00000202DE9FC41544C80208DF800005E
:104A800020686B460122817C60680078FFF78FFE0A
:104A90004FF0FF3708B14EA00FE0C820FCF734F804
:104AA00000258DF8005020686B460122817C6068EB
:104AB0000078FFF77CFE18B147A0FBF723FC24E049
:104AC000C820FCF721F820686B460622817D6068CB
:104AD0000078FFF763FEC0B99DF805009DF803104C
:104AE000C007400F01F0010140EA41019DF80100BB
:104AF0004FF0010600F0010001430BD0012907D05F
:104B0000022919D036A0FBF7FDFB3846BDE8FC8131
:104B1000E67412E020686B460122C1786068007874
:104B2000FFF73CFE08B138A0C7E79DF8000010F081
:104B30000F0021D0042821D0E574FF2004F80A0FCB
:104B40004FF6FF7104F8020C04F8010C6070A180AC
:104B5000A0712072A67026766576E572A572E56072
:104B600025616561A576E576A5834FF4FA6000F0CE
:104B70009DFB38B126A0A0E727489EE727A0FBF7BA
:104B8000C1FBC5E7022000F0B3FA08B12BA094E7FF
:104B90002A2000F0F3FB08B12AA08EE7322000F0B3
:104BA00023FC08B129A088E70020FFF743FE08B1E5
:104BB00028A082E7002000F0CFFA08B127A07CE708
:104BC000002000F051FC0020A0E70000A000002021
:104BD0003738310A000000003739300A0000000081
:104BE000556E737570706F7274656420736F667440
:104BF000776172652070726F647563742072657678
:104C00002025642E0A0000003831340A000000001C
:104C10003837310A00000000848F000848616C6654
:104C20002073656E73697469766974792070617236
:104C30007420666F756E642E0A0000003837360ADD
:104C4000000000003838310A000000003838360A09
:104C5000000000003839310A000000003930360AFF
:104C6000000000002DE9FF4FDFF89480064685B074
:104C700098F8250015460F464FF0FF39B0BBAFB38B
:104C8000002420E0301B102800DD102080B2834675
:104C90003A1901469246204600F042FC30BB6A4673
:104CA0005946204600F0D2F800BB50465A466946A5
:104CB000FBF79EFC20B16FF0010009B0BDE8F08F5A
:104CC00004EB0B0084B2B442DCD3280A8DF8100048
:104CD0008DF81150D8F80000444604AB817ED8F816
:104CE000040002220078FFF762FD08B14846E4E7BD
:104CF000012084F825000898E0840020DDE700000A
:104D0000A00000202DE9F84305464FF0FF39282880
:104D100044D80727284C00267DB1012000F0FCFA7A
:104D200020208DF800004FF00108012D17D0052D2F
:104D300018D88DF8018005201FE0002000F0ECFA63
:104D40008DF800608DF8017020686B460222817C2E
:104D500060680078FFF72BFD00BB267529E08DF811
:104D60000160E8E7142D04D802208DF801000A2024
:104D700003E003208DF80100142000F0FFFA9DF8F5
:104D800001006B4607EB80108DF8010020680222BD
:104D9000817C60680078FFF70AFD10B14846BDE8E5
:104DA000F8830820A072267384F814800020FFF78F
:104DB00041FD0020F3E70000A00000202DE9F843AA
:104DC000214C0646174694F8240089464FF0FF38D8
:104DD00090B3A07A80B320686B460222817A606823
:104DE0000078FFF7DBFC38BBBDF8000045BAB542E0
:104DF00002D2002038701FE060684188B5EB510F87
:104E000011D9216800786B46497C0122FFF7C6FC66
:104E100090B99DF80000C00605D500F041F86FF08C
:104E20000100BDE8F8832068F2B24B46C17A6068A1
:104E30000078FFF7B3FC08B14046F2E7B5FBF6F0A7
:104E4000401E38700020ECE7A0000020F8B51600E6
:104E50000D464FF0FF371FD0104CA17AE1B1010A87
:104E60008DF80010C0B28DF80100411960684289C8
:104E7000914211D8216800786B46097E0222FFF723
:104E800096FC48B92068EAB23346417D60680078F4
:104E9000FFF784FC002800D03846F8BDA0000020B1
:104EA000F8B5564C4FF0FF36A07A00287DD000258B
:104EB0008DF8005020686B460122C17B6068007845
:104EC000FFF775FC002870D120686B4601224179FC
:104ED00060680078FFF76BFC002866D120686B469D
:104EE0000122017960680078FFF761FC00285CD13D
:104EF00094F82400E0B30C208DF8000020686B4685
:104F00000122017960680078FFF751FC002872D116
:104F10003220FBF7F9FDC0208DF80000A07AC00711
:104F200002D0E0208DF8000020686B460122017954
:104F300060680078FFF73BFC00285CD1607C18B10A
:104F400002208DF8000001E08DF8005020686B46CB
:104F50000122C17B60680078FFF729FC28BB8DF82F
:104F6000005020686B4601224179606800783EE07D
:104F7000FFE704208DF8000020686B4601220179CC
:104F800060680078FFF713FC78B9A07C90B9A07A2C
:104F9000C0070FD05FF060008DF8000020686B46FE
:104FA000012201796068007800E024E0FFF7FFFB50
:104FB00008BB01E04020EFE73220FBF7A5FD607C55
:104FC00018B101208DF8000001E08DF80050206834
:104FD0006B460122C17B60680078FFF7E8FB50B99F
:104FE0002068064B01224179606810330078FFF792
:104FF000DEFB002800D03046F8BD0000A0000020F5
:105000002DE9F047394C82468AB094F8240089464D
:1050100020B1002000F00EF9012600E0002607A8CC
:10502000FFF79AFC06A8FFF72FFC09A8FFF7F8FC8A
:1050300008A8FFF711FD94F80A80277C00250022BC
:1050400049465046FFF7BEF810B16D1C022DF6DB45
:10505000022D1AD00025012203A96846FFF7B2F8F5
:1050600010B16D1C022DF6DB022D0ED003A94846AF
:10507000FEF748F8C5B269465046FFF72DFA10F022
:10508000FF0F4FF0000002D002E0002505E00120F4
:105090000DB940F0020040F00405FF20207260725C
:1050A000E0724FF6FF71E181A0722074012020733D
:1050B000BDF81C0000F0FAF89DF8180000F018F890
:1050C000BDF8240000F05AF9BDF8200000F08CF97A
:1050D000404600F0C9F93846FFF7ACFB16B1012095
:1050E00000F0A8F80AB02846BDE8F087A00000202C
:1050F00038B5184C4FF0FF35A17A19B3022806D005
:10510000042806D008280ED010281BD10DE000205E
:1051100000E008208DF80000607A9DF80010B0EBE8
:10512000D10F04D005E01020F4E71820F2E70020AA
:1051300038BD20686B460122C17960680078FFF7AE
:1051400036FB08B1284638BD9DF80000C0086072E3
:10515000EDE70000A0000020F8B5354C0546A07C26
:10516000A84201D10020F8BD31484FF0FF366B4610
:10517000D0E900104FF001020979007835B3FFF74C
:105180000DFB70BB9DF800006B4620F020008DF8F1
:10519000000020680122017960680078FFF707FBB2
:1051A000F8B90320FBF7B0FC02208DF8000094F85A
:1051B000220078B382202BE020686B460122017D1B
:1051C00060680078FFF7F3FA58B92EE0FFF7E6FAC7
:1051D00038B9A07AC0079DF8000003D040F0200045
:1051E00002E00CE020F020008DF8000020686B4603
:1051F0000122017960680078FFF7D9FA08B13046DA
:10520000F8BD0320FBF780FC94F8220000B1802059
:105210008DF8000094F823000028CDD09DF8000000
:1052200040F030008DF80000C6E7A5749AE7000052
:10523000A000002038B51C4C94F8241081421DD0E9
:10524000002500B394F82500D0B1002000F0E0FE66
:105250000020FFF781FFE08C00F0C6F88DF80050C9
:1052600060686B46012200782321FFF7A0FA012035
:1052700084F8240000F0CCFEFFF712FE002038BDB9
:105280004FF0FF3038BD002000F0C2FE207C8DF8CA
:10529000000060686B46012200782321FFF787FA3F
:1052A00084F82450E8E70000A000002038B5194C2D
:1052B0004FF0FF35A17A31B3FA2809D0B0F5FA7F63
:1052C00008D0B0F57A7F0FD0B0F5FA6F1BD10DE0A2
:1052D000002000E008208DF80000207A9DF80010E2
:1052E000B0EBD10F04D005E01020F4E71820F2E76E
:1052F000002038BD20686B46012281796068007803
:10530000FFF755FA08B1284638BD9DF80000C008DF
:105310002072EDE7A000002038B5174C054694F840
:105320002300A84201D1002038BD0DB1302000E09B
:1053300000208DF80000A07C28B19DF8000040F00E
:1053400002008DF8000094F8220028B19DF80000BA
:1053500040F080008DF8000020686B460122017D3E
:1053600060680078FFF723FA10B14FF0FF3038BDC6
:1053700084F82350D7E70000A000002038B5194C6E
:105380004FF0FF35A17A31B3BC2801D3012010E0E2
:10539000622801D302200CE02A2801D3032008E070
:1053A000142801D3042004E00A2801D3052000E0DA
:1053B00006208DF80000E07A9DF80010884201D1A7
:1053C000002038BD20686B46012281786068007833
:1053D000FFF7EDF908B1284638BD9DF80000E072EE
:1053E000EEE70000A0000020F8B51E4D04464FF087
:1053F000FF37A87A48B395F8240030BB287D4FF4D6
:105400007A7648B164B1282C03D8E0B2FFF77AFC71
:1054100026E00020FFF776FC042C05D2042406E0E9
:105420000020FFF76FFCF9E7B44200D93446B6FB21
:10543000F4F0401E8DF8000028686B460122417888
:1054400068680078FFF7B3F908B13846F8BD9DF8F1
:105450000000401CB6FBF0F0E8814008FFF78EFF2B
:105460000020F8BDA0000020F8B5054610F0700F30
:105470004FF0000601D0012004E015B18DF8006066
:1054800002E040208DF80000244C6B460122206889
:10549000817C60680078FFF78AF94FF0FF3760BBC6
:1054A0009DF8000020F0400020738DF80060680631
:1054B00002D404208DF80000A80605D49DF8000051
:1054C00040F002008DF80000E80605D49DF80000C9
:1054D00040F001008DF80000280705D49DF8000079
:1054E00040F038008DF8000020686B460122C17C36
:1054F00060680078FFF75BF910B1A6723846F8BD16
:1055000025B1082D02D00020FFF706FFA5722675F1
:105510003220FBF7F9FA0020F8BD0000A0000020BF
:10552000F8B516000D464FF0FF371FD0104CA17A8A
:10553000E1B1010A8DF80010C0B28DF801004119E7
:1055400060684289914211D8216800786B46097ED3
:105550000222FFF72CF948B92068EAB23346417DB0
:1055600060680078FFF723F9002800D03846F8BDBE
:10557000A000002010B5EFF3058111B16FF0050414
:1055800003E0002408B100F0C9FE204610BD38B584
:105590000546EFF3058010B16FF005040CE0002420
:1055A00001F016FB291A0090002903DD684600F07F
:1055B000DBFE01E06FF00304204638BDEFF3058009
:1055C00008B101F00BBB01F003BB0000EFF3058055
:1055D00010B16FF0050070470448016811B14FF039
:1055E000FF307047012101600020704770000020EB
:1055F00010B5EFF3058010B16FF0050010BD08483D
:105600000168012902D04FF0FF3010BD054A00218A
:1056100082F8141D0221016000F02EFF002010BD51
:10562000700000200BE000E02DE9FF414FEA01038C
:105630004FF00005EFF30581039549BB40B3802788
:10564000182100244AB3166806B1344696691EB183
:105650003146761E382E02D21679F60703D0002086
:1056600004B0BDE8F081566906B1B708D2F808C0A9
:10567000BCF1000F0DD0D5685C2D18D312693AB17A
:1056800036B18DE806103A46214601F068FA0390DB
:105690000DE0D6685EB912694AB903AACDE90012D5
:1056A000BAB2214601F02EFA012800D003950398E2
:1056B000D6E700002DE9F041134C0F460546E66899
:1056C0002068001D00F0F6FC681C07D137B1216886
:1056D000BDE8F0410D48091D00F03CBD206835448F
:1056E000B5424560216805D2A06BBDE8F041091DB7
:1056F00000F018BD606B091D00F014FDA06A854222
:1057000000D2A562BDE8F0812000002058070020EB
:105710002DE9F041054600F029FD2D4CA068401C04
:10572000A06020682B4F10B1606930B32BE025607A
:10573000A068012827D1002606EB860007EB800031
:1057400000F0E2FC761C382EF6D3234800F0DCFC97
:105750002148143000F0D8FC1F48283000F0D4FC59
:105760001D483C3000F0D0FC1B48503000F0CCFC11
:10577000194860631430A06305E02068E96AC06AD4
:10578000884200D82560606A401C60626864E86AEC
:105790002169884200D9206100EB800007EB80007E
:1057A000291D00F0D7FC00F001FD606900280CD035
:1057B0002068E96AC06A884207D208494FF08050E1
:1057C0000860BFF34F8FBFF36F8FBDE8F08100001B
:1057D00020000020A80200200807002004ED00E0BF
:1057E00038B500F0C3FC104C2068C8B90F4800F071
:1057F0008BFC0E48143000F087FC0C48E06014303D
:1058000020610A4B0020F03B009003F15002102170
:105810000A2000F019FF206010B105A100F048FD3A
:10582000BDE8384000F0C2BC5C0000205C080020ED
:10583000546D72510000000030B4026C0B46002A17
:105840000BD0C1681144C1608468A14201D30168D2
:10585000C16030BC1846FAF716BF30BC70472DE95E
:10586000F041856B174604460026026C82B1C7B131
:10587000E068FAF708FFE168206C091AE160226825
:10588000914202D2A168081AE060022F16D017E0F8
:105890002068A8B9A06801F00DFA06460020A060B3
:1058A0000EE06068FAF7EFFE216C60680844606003
:1058B000A168884204D32068606001E005B16D1ED4
:1058C0006D1CA5633046BDE8F08110B5044690F824
:1058D000590058B101280CD002280FD0502080F375
:1058E0001188BFF34F8FBFF36F8FFEE7206B00F07F
:1058F00071FC2046BDE8104000F06CBC10BD0000FB
:1059000010484FF40051420706D0C01D0D4920F049
:105910000700411AC1F500510B4A00230144C2E9B6
:1059200000030839183A21F0070111604B600B6041
:105930000B1AC0E9001393604FF0004053605061B0
:10594000704700003C0F00208C000020144E154CC6
:10595000A6F29C474FF08058DFF84C9012E000BF51
:1059600000F004FCF068C568281D00F0A3FBA068E7
:10597000401EA0606068401E606000F017FC284672
:10598000FFF7A3FF60680028EAD138680128F9D939
:10599000C9F80080BFF34F8FBFF36F8FF2E70000AD
:1059A000440700202000002004ED00E070B51D46F3
:1059B000049C51B1C4F80020C4E90F010121204624
:1059C00000F076FE84F84C5070BD2460F4E70000CF
:1059D0002DE9F05F8846DDE90B941546834691007A
:1059E0009A460A9EA522206BFAF792FE6FF00301F9
:1059F000206B01EB8501084420F00707780707D0EA
:105A0000502080F31188BFF34F8FBFF36F8FFEE7F5
:105A10000025B8F1000F0FD05FF00000221818F831
:105A2000001082F8341018F8001011B1401C102832
:105A3000F4D384F8435001E084F83450382E00D376
:105A40003726E662C4E91365201D00F068FB04F107
:105A5000180000F064FB2461C6F138006462A061A4
:105A6000656584F8585052465946384600F05AFA4F
:105A70002060B9F1000F01D0C9F80040BDE8F09FE7
:105A800030B5114900E011460A688242FBD34B68E9
:105A90005C18844203D14068184448600846436853
:105AA0001C18944209D1084C183C2468A24209D021
:105AB00052681A4442600A6812680260814200D04B
:105AC000086030BD0460F9E78C00002070B5002448
:105AD00041600B4D0061914206D8D11A8269914212
