:020000040800F2
:10000000B0210020850200080F3200085D2800089A
:100010000D320008951700089B370008000000000B
:10002000000000000000000000000000ED010008DA
:100030009717000800000000310200081133000883
:100040009F0200089F0200089F0200089F0200080C
:100050009F0200089F0200089F0200089F020008FC
:100060009F0200089F0200089F0200089F020008EC
:100070009F0200089F0200089F0200089F020008DC
:100080009F0200089F0200089F0200089F020008CC
:100090009F0200089F0200089F0200089F020008BC
:1000A0009F0200089F0200089F0200089F020008AC
:1000B0009F0200089F0200089F0200089F0200089C
:1000C0009F0200089F0200089F0200089F0200088C
:1000D0009F0200089F0200089F0200089F0200087C
:1000E0009F0200089F0200089F0200089F0200086C
:1000F0009F0200089F0200089F0200089F0200085C
:100100009F0200089F0200089F0200089F0200084B
:100110009F0200089F0200089F0200088D3300081C
:100120009F0200089F0200089F0200089F0200082B
:1001300000F002F800F04AF80AA090E8000C8244AF
:100140008344AAF10107DA4501D100F03FF8AFF28C
:10015000090EBAE80F0013F0010F18BFFB1A43F0A5
:100160000103184784940000A4940000103A24BFAF
:1001700078C878C1FAD8520724BF30C830C144BF0C
:1001800004680C607047000000230024002500264E
:10019000103A28BF78C1FBD8520728BF30C148BFEA
:1001A0000B607047662908F01282642900F0E48031
:1001B000002070471FB500F097FD040000200021CB
:1001C00007F094F9E0601FBD10B510BD00F0ACFE63
:1001D0001146FFF7EFFF04F0AFFE00F0CAFE03B4D4
:1001E000FFF7F2FF03BC03F06CFB0000224B196821
:1001F0000868B0E8F00F80F30988BFF36F8F4FF005
:10020000000080F311884EF00D0E704700000000D2
:1002100006480068006880F3088862B661B6BFF3DC
:100220004F8FBFF36F8F00DF00BF00BF08ED00E00E
:10023000EFF30980BFF36F8F0F4B1A6820E9F00FBF
:10024000106008B54FF0500080F31188BFF34F8F56
:10025000BFF36F8F06F042FC4FF0000080F311886F
:10026000BDE8084019680868B0E8F00F80F3098815
:10027000BFF36F8F704700BF20000020EFF30580B1
:10028000704700000948804709480047FEE7FEE73D
:10029000FEE7FEE7FEE7FEE7FEE7FEE7FEE7FEE736
:1002A00004480549054A064B704700008933000899
:1002B00031010008B01B0020B0210020B01D00203B
:1002C000B01D0020704710B54C1084EA530404D5CB
:1002D0004042C1F1000138BF491E1B4204D55242C1
:1002E000C3F1000338BF5B1E00F0ADF914F0804F7E
:1002F00004D04042C1F1000138BF491E14F0004F44
:1003000004D05242C3F1000338BF5B1E10BD000091
:100310000FB4044910B503AA029800F07FFC10BC8A
:100320005DF814FB0C00002070B504468569006878
:10033000C10601D5302600E02026C00707D070BDD9
:10034000D4E9012130469047206A401C20626D1E8E
:10035000F6D570BD70B5044685690078C00707D131
:1003600070BDD4E9012120209047206A401C206202
:100370006D1EF6D570BD00002DE9F0410646002443
:1003800010687529314616A510D0AFF300800028FB
:1003900002DA404213A507E031688A0701D512A5A9
:1003A00002E0490704D511A5012401E0AFF3008064
:1003B00000210A2206F1240709E0B0FBF2FCB0FBA1
:1003C000F2F302FB1C00303078541846491C002818
:1003D000F3D123462A463046BDE8F04100F0B5B9D6
:1003E000000000002D0000002B0000002000000095
:1003F0002DE9F0474FF0000A89460446C0F820A0D6
:100400002046E1688847002876D0252806D0D4E920
:1004100001219047206A401C2062F1E7E1682046F4
:1004200000258847C4F81CA006460027C4F818A079
:100430002A2E09D0304603F03DFA38B304EB870882
:10044000303EC8F8186019E059F8041B204604EB48
:1004500087029161E1688847012F064618D1E0695B
:10046000002820DA25F020051DE0D8F8180000EB60
:10047000800006EB40003038C8F818002046E168DC
:100480008847064603F016FA0028EED1012F0AD05D
:100490002E2E08D12046E16888477F1C0646022F91
:1004A00045F02005C4DBA069002803DA404245F08E
:1004B0000105A061E80701D025F01005B6B1A6F14D
:1004C0004100192802D8203645F400654A463146D5
:1004D000204625604D46FFF765FE58B1012806D03D
:1004E000ED1D25F0070000F1080989E704E005F19A
:1004F000040985E730468AE7206ABDE8F08740EACC
:10050000010310B59B070FD1042A0DD310C808C9E9
:10051000121F9C42F8D020BA19BA884201D9012092
:1005200010BD4FF0FF3010BD1AB1D30703D0521CDD
:1005300007E0002010BD10F8013B11F8014B1B1B18
:1005400007D110F8013B11F8014B1B1B01D1921E82
:10055000F1D1184610BD032A40F2308010F0030C90
:1005600000F0158011F8013BBCF1020F624498BF06
:1005700011F801CB00F8013B38BF11F8013BA2F1A3
:10058000040298BF00F801CB38BF00F8013B11F01E
:10059000030300F05583083AC0F0088051F8043B8B
:1005A000083A51F804CBA0E80810F5E7121D5CBF2B
:1005B00051F8043B40F8043BAFF30080D20724BF5E
:1005C00011F8013B11F801CB48BF11F8012B24BFF2
:1005D00000F8013B00F801CB48BF00F8012B704741
:1005E00002F0FF0343EA032242EA024200F05CBB4E
:1005F0004FF0000200B5134694469646203922BFBC
:10060000A0E80C50A0E80C50B1F12001BFF4F7AF06
:10061000090728BFA0E80C5048BF0CC05DF804EBE8
:10062000890028BF40F8042B08BF704748BF20F856
:10063000022B11F0804F18BF00F8012B7047704754
:1006400070477047704753EA020C00F069802DE94B
:10065000F04B4FF00006002B1FBFB3FA83F503FAEF
:1006600005F424FA05F65E4012BF1643B2FA82F58D
:1006700002FA05F4C5F120051EBF22FA05FC44EA82
:100680000C04203556EA044C4FEA144418BF641C8D
:100690004FF000084FF00009904271EB030C39D382
:1006A000002919BFB1FA81F701FA07F6B0FA80F70D
:1006B00000FA07F6C7F120071EBF20FA07FC46EA3A
:1006C0000C062037B6FBF4FCA7EB0507103F07F03C
:1006D0001F0BCBF120060CFA0BFB2CFA06F644BFDD
:1006E000B3460026202FA4BF5E464FF0000B5BEA06
:1006F000060C08BF4FF0010B19EB0B09ABFB027C9A
:1007000048EB0608C01B06FB02CC0BFB03CC71EBCD
:100710000C01C1E70B46024641464846BDE8F08B56
:1007200013B54FF000004FF00001AFF30080BDE8BB
:100730001C40704710B500F0DBFA006810BD10B522
:10074000044600F0D5FA046010BD2DE9F0470D46CF
:1007500099469246044600F124080168880604D5AB
:10076000E06921F01001216000E00120A84201DDD4
:10077000471B00E00027A1697A1902EB0900081A5B
:10078000A0612078C00602D42046FFF7CDFD0026E8
:1007900008E0D4E901211AF806009047206A401CBD
:1007A000761C20624E45F4DB2078C0060AD5204630
:1007B000FFF7BAFD06E0D4E9012130209047206A16
:1007C000401C2062381EA7F10107F4DC07E0D4E9E1
:1007D000012118F805009047206A401C2062281E5D
:1007E000A5F10105F3DC2046FFF7B4FD20780006F3
:1007F00002D50220BDE8F0870120FBE770472DE914
:10080000FF4F0C461E464FF0FF378BB0D2E9000178
:10081000DDF860800A908A46C1F30A5505B93D4665
:10082000002108464FF00000BAF1000F00F440002C
:1008300005DA00EB80004FF4400101EA50004FEA76
:100840009059B9F1010F00DDB9460A9850EA4A0003
:100850000ED044F61050A5F2FF3545432F14B8F1E1
:10086000000F1ED07542291E1EDDC9F100021CE0DA
:10087000B8F1010F4FF0000001D0302103E0F24346
:1008800005E02154401CB042FBDB30460022002131
:1008900021540B99C1F80880C1E900200FB0BDE8D0
:1008A000F08FBD1B6D1CDEE74A4600DA694206A8E0
:1008B00000F0C0FA06AB93E8070003AB83E807003B
:1008C00050460A9900F09EFB8DE80700A0F5005005
:1008D0001F3800900398002D0ADD42F21F014A469E
:1008E0000844002303A90390684600F007FE09E0CE
:1008F000A0F500504A461F38002303A9039068461C
:1009000000F011FE8DE807000004000C03D04FF04A
:10091000FF30410800E01046B8F1000F03D000227C
:10092000009215461EE0751E05D400F0E5F9303240
:1009300062556D1EF9D5B3460122084302D000224C
:100940007F1C04E02078302801D100227F1E002A7D
:10095000099784D01DE0112D07DA00F0CDF930326F
:1009600062556D1C50EA0102F5D1084302D000988F
:10097000C8B10EE00021681E05E0235C625C635490
:100980002254401E491C8142F7DBAB46A81B401E87
:100990000990002004F80B000B98099AC0F8088011
:1009A000C0E9002B7AE711264FF0000857E72DE940
:1009B000F04F88460446D21D22F0070191B0D1E9DC
:1009C0000001CDE90A0102F0E9FE02460B98C00FD2
:1009D00001D02D2007E02068810701D52B2002E0FF
:1009E000202101EAC000032A099001D0072A05DB73
:1009F00003464146204600F0DDF90BE120788006F1
:100A000001D5E06900E00620B8F1650F814606D007
:100A1000B8F1660F18D0B8F1670F70D131E000203F
:100A2000B9F1110F009001DB112301E009F101037D
:100A30000AAA01A90CA8FFF7E2FEDDE90C70002666
:100A400009F10105834647E001204B4600904FF035
:100A500000470AAA01A90CA8FFF7D1FEDDE90DB0F5
:100A60000C995D46002610B909F101000D18B9EB8B
:100A7000050003D4C0F1FF3609F10105A5EB09001B
:100A80002BE0B9F1010F01DA4FF001090020B9F1B3
:100A9000110F0090484601DD112300E003460AAA29
:100AA00001A90CA8FFF7ABFEDDE90C704D4600264E
:100AB0008346207800070AD4AB4500DA5D4601A8DA
:100AC000012D04DD411911F8011C302907D04F45D3
:100AD00002DA17F1040F04DA012082460FE06D1EDE
:100AE000EEE7002F02DCED1B3E4403E0781CA84239
:100AF00000DD7D1CB81B00F1010A4FF00047207893
:100B0000000703D4AA4501DB4FF0FF3A0021B7F1FB
:100B1000004F0DF143088DF8431024D002202B2301
:100B2000002F01DA7F422D230A21021EA0F10100CD
:100B300000DC5FB197FBF1FC97FBF1F201FB1C7C41
:100B400017460CF1300C08F801CDEEE7A8F10100D2
:100B500003702188090501D5452100E06521A0F138
:100B6000010800F8011C09980FA9A1EB0807FF1D57
:100B700000B10120411901EBEA70A1693844081A5B
:100B8000401EA0612078C00602D42046FFF7CCFBAF
:100B9000099828B1D4E901219047206A401C2062BD
:100BA0002078C00622D52046FFF7BEFB1EE0002EAF
:100BB00004DBB34502DD01A8805D00E03020D4E90C
:100BC00001219047206A401C2062761CAAF1010096
:100BD0005FEA000A0AD100F087F8C0680168405C4B
:100BE000D4E901219047206A401C2062281EA5F10B
:100BF0000105DCDC07E0D4E9012118F8010B90477E
:100C0000206A401C2062381EA7F10107F3DC204651
:100C1000FFF7A0FB032011B041E60000074B70B5C1
:100C20000D467B4400F0B3F80446284600F074F902
:100C300010B14FF0FF3070BD204670BD9B3C0000EE
:100C400010B5203AC0F00B80B1E81850203AA0E867
:100C50001850B1E81850A0E81850BFF4F5AF5FEA9B
:100C6000027C24BFB1E81850A0E8185044BF18C94E
:100C700018C0BDE810405FEA827C24BF51F8043BF5
:100C800040F8043B08BF7047D20728BF31F8023B49
:100C900048BF11F8012B28BF20F8023B48BF00F8DD
:100CA000012B70474FF000020429C0F0128010F0B1
:100CB000030C3FF49FACCCF1040CBCF1020F18BF45
:100CC00000F8012BA8BF20F8022BA1EB0C01FFF7C5
:100CD00091BC5FEAC17C24BF00F8012B00F8012B16
:100CE00048BF00F8012B7047004870476C1B00207C
:100CF000004870474C1B002030B5B0F10A024FEAA3
:100D0000900E71F100034EEA817EB0EB0E0061EBB4
:100D100091014FEA101E4EEA017E10EB0E0041EBEE
:100D200011114FEA102E4EEA016E10EB0E0041EB4E
:100D300011214FEA104E4EEA014E10EB0E0041EB2E
:100D40001141401841F100014FEAD00040EA4170E2
:100D50004FEAD10110EB80054FEA810444EA907418
:100D600044EB01046D1944EB0404521BA3414FF002
:100D7000000348BF0A3200D530BD401C41F10001DC
:100D800030BD000001694A1C02610878704700B557
:100D90008FB0CDE901310021059105497944CDE9B4
:100DA000031011466846FFF723FB0FB000BD00009B
:100DB000E5FFFFFF2DE9F0411F46044603260168C9
:100DC000072A01F4006004DB08B116A505E016A5AA
:100DD00003E008B115A500E015A521F01000206082
:100DE000A069C01EA0610FB1401EA0612046FFF7A0
:100DF0009BFA4FB1D4E9012138469047206A401C44
:100E00002062C01C206206E0206AFAE7D4E90121D2
:100E100015F8010B9047761EF8D22046FFF79AFA94
:100E2000BDE8F0814E414E006E616E00494E4600B5
:100E3000696E66002DE9F047814616468AB035484E
:100E400078440DC88DE80D0032487844801C03AC0E
:100E50000DC884E80D0041F69B300844372190FB13
:100E6000F1F290FBF1F5A5F1800501FB12041B3CAA
:100E700002D56442012000E00020DFF898A08046FF
:100E80000027FA44AAF1BE0A0EE0E0070AD0324673
:100E9000684607EB470101230AEB810100F043FBA1
:100EA0008DE8070064107F1C002CEED1194F7F44A1
:100EB000AE3F19E0E80715D007EB04100DF1180A52
:100EC00090E80E008AE80E00C068F04201D198193F
:100ED00008903246012306A903A800F024FB03ABC7
:100EE00083E807006D10641C002DE3D14FF001036F
:100EF00032466946B8F1000F03A802D000F0FEFAAE
:100F000001E000F010FBC9E90001C9F808200AB0AF
:100F1000BDE8F08718870000007B00F08000704774
:100F2000004870474C1B00207546FFF7F9FFAE469E
:100F300005006946534620F00700854618B020B5E5
:100F4000FFF7AEF9BDE820404FF000064FF0000774
:100F50004FF000084FF0000B21F00701AC46ACE861
:100F6000C009ACE8C009ACE8C009ACE8C0098D46CE
:100F7000704710B50446AFF300802046BDE810402E
:100F8000FFF72DB94FF0013C50F8042B51F8043B0A
:100F90009A4221D1A2EB0C03934313EACC1317D14D
:100FA00050F8042B51F8043B9A4215D1A2EB0C03E4
:100FB000934313EACC130BD150F8042B51F8043BA4
:100FC0009A4209D1A2EB0C03934313EACC13DBD072
:100FD0004FF00000704700BFD01A01BAB1FA81F19A
:100FE00001F0180122FA01F0CB40C1F12001DBB27F
:100FF000C0B2C01A2CFA01F3D11A914311EAC311FD
:10100000E6D170475FEA400C08BF91F0000F4FEA4D
:101010008C234FEAC12243EA51514FEA1C5018BFBA
:1010200000F5F0404FEA300018BF41F000415FEAA0
:101030006C5C00F02980BCF1FF3F08BF40F08040AD
:101040007047130C06BF12044FF0100C4FF0000C49
:10105000130E04BF12020CF1080C130F04BF12018F
:101060000CF1040C930F04BF92000CF1020CD30F8F
:1010700004BF52000CF1010C11464FF00002A0F128
:101080001F00A0EB0C00704711F0004F08BF704725
:1010900031F000413FF4D5AF0B0C06BF09044FF00F
:1010A000100C4FF0000C0B0E04BF09020CF1080CE1
:1010B0000B0F04BF09010CF1040C8B0F04BF890056
:1010C0000CF1020CCB0F04BF49000CF1010CCCF168
:1010D0002003A0EB0C0022FA03F302FA0CF241EA1F
:1010E000030100F10100704720F07F4C80EA03000B
:1010F00023F07F47ACEB070303F57C5300F000407F
:1011000003F1FF032DE980494FEA154B09B44FEA7B
:10111000144325EA0B4E24EA03480FF2042606EB9B
:10112000132749083E785FEA320203FB0667C7F5DA
:10113000000707FB06F64FEA54374FEAD64606F19A
:10114000020607FB066CCCF1005C4FEA1C472CEA58
:10115000074C07FB06F40CFB06F504EB15464FEABB
:10116000961634BF00204FF000404FEAD13706FBFF
:1011700007FC4FEA1C4C0CFB0BF7D21B03FB0CF7D4
:1011800061EB07010CFB0EF7B0EB074072EB174267
:101190000CFB08F734BFA2EB0742B2EB074261EB4E
:1011A00017414FEA0C444FEA910706FB07FC4FEA50
:1011B0001C4C0CFB0BF7B0EBC74072EB573203FB38
:1011C0000CF734BFA2EBC742B2EBC74261EB573119
:1011D0000CFB0EF7B0EBC70072EB57720CFB08F775
:1011E00034BFA2EBC702B2EBC70261EB5771039F9A
:1011F0004FEA816141EA921104EBCC044FEAD13706
:101200004FEA826206FB07FC42EA90124FEA8060D6
:101210004FEA1C4C0CFB0BF7D21B03FB0CF761EBEA
:1012200007010CFB0EF7B0EB074072EB17420CFB0B
:1012300008F734BFA2EB0742B2EB074261EB17415C
:101240004FEA8C554FEA910704EB9C2406FB07FC00
:101250004FEA1C4C0CFB0BF7B0EBC74072EB57325C
:1012600003FB0CF734BFA2EBC742B2EBC74261EB02
:1012700057310CFB0EF7B0EBC70072EB57720CFB4B
:1012800008F734BFA2EBC702B2EBC70261EB57719C
:1012900015EB4C254FEA816141EA92114FEA8262D7
:1012A0004FEAD13742EA901206FB07FC44F10004F2
:1012B0004FEA80604FEA1C4C0CFB0BF7D21B03FB80
:1012C0000CF761EB07010CFB0EF7B0EB074072EB7C
:1012D00017420CFB08F734BFA2EB0742B2EB074200
:1012E00061EB174115EB1C154FEA813141EA924140
:1012F0004FEA823242EA90424FEA80304FEA0C765F
:1013000044F1000448EA03434EEA0B484FF0000E54
:10131000B2EB080C71EB030724BF624639464EEB73
:101320000E0E4FF0000B0018524149414BEB0B0BD6
:10133000B2EB080C71EB03077BF1000B24BF624694
:1013400039464EEB0E0E4FF0000B0018524149414A
:101350004BEB0B0BB2EB080C71EB03077BF1000BB3
:1013600024BF624639464EEB0E0E51EA020718BF03
:1013700046F0010616EB0E7655F1000254F100011D
:1013800003D5BDE88901BDE80088BDE88901BDE855
:101390000048B619524141EB0101A3F10103704726
:1013A00080807F7E7D7C7B7A7978777676757473A2
:1013B000727171706F6E6E6D6C6C6B6A6A69686861
:1013C000676666656464636362616160605F5F5EF7
:1013D0005E5D5D5C5C5B5B5A5A595958585757566D
:1013E00056555555545453535252525151505050D2
:1013F0004F4F4F4E4E4D4D4D4C4C4C4B4B4B4A4A24
:101400004A49494948484847474747464646454567
:1014100045444444444343434342424242414141A0
:10142000002B9C4630D477002BD01CB54FEA3707F1
:1014300003B44FF010004FF01001BAF1000F06D0C6
:10144000BCF1000FDCBF40F0080040F008014FF095
:1014500000000FBCBDE810400BF1010BBBF1010F08
:1014600008BF5FEA170722BF12F1010211F1010163
:101470004FF0004143F1000300F0004043EA000058
:101480007047F9D35708D0E746EA064613F1400FF4
:101490004FEA16461FDD13F1200FDFBF16430A4641
:1014A000002120335B42BED0C3F1200746EA064646
:1014B00002FA07F74FEA164646EA0706C3F1200785
:1014C00022FA03F201FA07F721FA03F14FF00003C1
:1014D00042EA0702A7E746EA020646EA06464FEA5C
:1014E000164646EA0106BCBF46EA0646360C4FF0F1
:1014F00000034FF000024FF0000194E72DE9804C0B
:101500009A46934670B491E8380007C831EA400C17
:1015100048BF34EA430C03D5FFF7E6FDFFF780FF31
:10152000F0BCBDE8008C2DE9804C9A46934670B41F
:1015300091E8380007C810F0804F08BF13F0804FC3
:1015400003D100F005F8FFF76BFFF0BCBDE8008C9D
:1015500020F07F4780EA030023F07F4C07EB0C0369
:10156000A3F57C5300F00040A3F1FE0392F0000FBE
:1015700000F0B38095F0000F00F077802DE901496D
:101580004FEA11404FEA144621EA004800FB06FCEE
:1015900024EA064708FB06F607FB08F800FB07F7F6
:1015A00018EB06484CEB164C4FEA124B18EB074869
:1015B0004FEA15464CEB174022EA0B4E0BFB06FC9C
:1015C00025EA06470EFB06F607FB0EFE0BFB07F7A8
:1015D0001EEB064E4CEB164C4FF000061EEB074E72
:1015E0004CEB174B18EB0B0840F1000018EB0E0BFF
:1015F00058EB000840F100008F1A4FF000013CBF8B
:10160000C943661B14BFB5EB040C00213CBFC943A2
:10161000F61B4FEA17444EEA8E0E27EA04454FEABE
:101620001C4704FB07622CEA074C05FB07F70CFB81
:1016300005F604FB0CFC16EB074642EB174216EBD3
:101640000C4642EB1C421BEB060658EB02024141E2
:1016500046EA9E0601D5BDE80189B619524141EB23
:101660000101A3F10103BDE801894FEA14454FEAE6
:10167000114724EA054621EA074C05FB07F406FB5F
:1016800007F70CFB06F105FB0CFC11EB074144EBE3
:1016900017444FEA124711EB0C4144EB1C4422EA79
:1016A000074C05FB07F206FB07F70CFB06F605FBEC
:1016B0000CFC16EB074642EB174216EB0C4642EBCE
:1016C0001C456A1854F1000148BF7047B6195241D1
:1016D00041EB0101A3F10103704795F0000F37D0F2
:1016E0004FEA11424FEA144721EA024624EA074C26
:1016F00002FB07F106FB07F70CFB06F402FB0CFCF0
:1017000014EB074441EB17414FEA154714EB0C4427
:1017100041EB1C4125EA074C02FB07F506FB07F7E6
:101720000CFB06F602FB0CFC16EB074645EB1745D7
:1017300016EB0C4645EB1C42121951F1000148BF53
:101740007047B619524141EB0101A3F10103704703
:101750004FEA14454FEA114724EA054621EA074CAF
:1017600005FB07F106FB07F70CFB06F24FF000063E
:1017700005FB0CFC12EB074241EB174112EB0C424C
:1017800051EB1C4148BF7047921841EB0101A3F196
:1017900001037047FEE7704772B6FEE770B5044676
:1017A00000F014F90546601C02D004480078044497
:1017B00000F00CF9401BA042FAD370BD10000020CD
:1017C0002DE9F84FDFF8C8910024A9F1040B234656
:1017D0000F2709F1040AABF1040ED1E00125A54061
:1017E00006EA0502AA4276D1DFF8A8C14E68A6EB48
:1017F0000C0866452BD00DDC032E34D005DC36B347
:10180000012E19D0022E2FD11BE0112E16D0122E30
:101810002AD119E0B8F5881F19D006DCB8F5803F49
:1018200015D0B8F5801F1FD111E0B8F5001F0ED0FC
:10183000B8F5041F18D10AE0CB6815E0CB681B1D72
:1018400012E0CB6808330FE0CB680C330CE08B68F8
:101850002BB1012B4FF0080303D0456104E00423B2
:1018600002E0056100E00023FF2A01D8064601E0FE
:1018700000F104064FEA840501D9A5F12005D6F848
:10188000008007FA05FC28EA0C0803FA05F548EA87
:101890000508C6F800804D68ED0070D53E4DAE6974
:1018A00046F00106AE61AD6924F0030605F00105BE
:1018B00000953A4D06EB050CDCF80850A607360FEC
:1018C00007FA06F825EA0805DFF8D480404503D179
:1018D0004FF0000825E052E0DFF8C880404502D113
:1018E0004FF001081DE0DFF8C080404502D14FF005
:1018F000020816E0DFF8B480404502D14FF003083B
:101900000FE0DFF8AC80404502D14FF0040808E05A
:10191000DFF8A080404502D14FF0050801E04FF00C
:10192000060808FA06F848EA0508CCF808804D6869
:10193000D9F80060ED024D4601D5164300E096430C
:101940002E604D68DAF80060AD02554601D51643A9
:1019500000E096432E604D68DBF80060AD035D4605
:1019600001D5164300E096432E604D68DEF8006016
:10197000ED03754601D5164300E096432E60641CC6
:101980000A681646E2407FF429AFBDE8F88F0000F0
:101990000804014000001110001002400000014046
:1019A00000080140000C01400010014000140140FB
:1019B00000180140001C01408068084000D0012050
:1019C00070470AB1016170470904FBE7014880686C
:1019D000704700001000002002488168027811441E
:1019E0008160704710000020074810B5016841F081
:1019F00010010160032000F0A7F80F2000F006F8A6
:101A000000F050F8002010BD0020024030B505461F
:101A10001F4887B0C16941F02001C161C06906A9B2
:101A200000F02000009001A800F036F90498B0B151
:101A300000F052F940001749174AB0FBF1F117487E
:101A4000491E0260416040F2E7320021C0E90321F3
:101A50008160816100F056FB040003D015E000F0C6
:101A60003BF9E8E70D4800F08FFB04000DD137206B
:101A700000F03CF8102D07D200222946372000F054
:101A800043F80748056000E0012407B0204630BD58
:101A90000010024040420F000014004020020020CD
:101AA000140000200F4808B5816941F001018161EF
:101AB000816901F001010091C16941F08051C1616A
:101AC000C069002200F0805000900F21901E00F0AD
:101AD0001BF80548416821F0E06141F00071416068
:101AE00008BD00000010024000000140002809DB92
:101AF00000F01F02012191404009800000F1E02028
:101B0000C0F8001170470000F0B40E4B1B680C4683
:101B1000C3F30223C3F10705042D00D90425191DC1
:101B2000072901D2002300E0DB1E012606FA05F199
:101B3000491E214099409E40761E16403143F0BC1C
:101B400001F040BE0CED00E0064900F00702086815
:101B50004FF6FF03184040EA0220034A1043086092
:101B6000704700000CED00E00000FA052DE9F04799
:101B70000F46050061D0434E306800F00700B842C0
:101B800009D2306820F0070038433060306800F038
:101B90000700B84251D128683B4C810712D5400755
:101BA00003D5606840F4E06060602878000703D5E2
:101BB000606840F4605060606068A96820F0F000E0
:101BC000084360602878C00728D06868012810D0D2
:101BD0002168022810D0890700292EDA616821F0D7
:101BE000030101436160FFF7F1FE804641F288394D
:101BF0000DE021688903EFE78901EDE7FFF7E6FED5
:101C0000A0EB0801494502D90320BDE8F0876068D0
:101C1000696800F00C00B0EB810FEFD1306800F084
:101C20000700B8420BD9306820F007003843306015
:101C3000306800F00700B84201D00120E5E72878BD
:101C4000400705D56068E96820F4E06008436060FB
:101C50002878000706D56068296920F4605040EABA
:101C6000C100606000F058F86168084AC1F30311D0
:101C7000515CC8400649086006480068FFF7C6FE88
:101C80000020C2E700200240001002408E870008BA
:101C90001C000020140000200F2202600C4A536830
:101CA00003F003034360536803F0F0038360536859
:101CB00003F4E063C36052684FF4E06303EAD202C6
:101CC00002610448006800F00700086070470000E7
:101CD000001002400020024004480549006849689D
:101CE000044AC1F30221515CC84070471C00002027
:101CF000001002409E8700080448054900684968B2
:101D0000044AC1F3C221515CC84070471C00002046
:101D1000001002409E8700080E4A51680E4801F0EC
:101D20000C03042B11D0082B0FD10C48C1F38343B3
:101D3000C903C05C0AD55168084AC1F34041921EEC
:101D4000515C054A5043B0FBF1F0704704494843E9
:101D5000704700000010024000127A007E870008E1
:101D600000093D002DE9F84F040070D02078C04DE7
:101D7000C00749D06868C0F38100012807D06868AF
:101D8000C0F38100022809D16868C00306D528681D
:101D9000800339D560680028E7D035E06068B0F589
:101DA000803F0BD010B1B0F5A02F11D0286820F4DF
:101DB00080302860286820F4802002E0286840F401
:101DC00080302860606890B1FFF700FE06460AE0A8
:101DD000286840F480202860F0E700BFFFF7F6FD98
:101DE000801B642873D828688003F7D50CE0FFF7C0
:101DF000EDFD064605E000BFFFF7E8FD801B642807
:101E0000F0D828688003F7D420789A4E80074FF0E6
:101E100001094FF0000839D5686810F00C0F07D0A1
:101E20006868C0F38100022809D16868C00306D43D
:101E30002868800714D52069012808D110E020699E
:101E4000B0B1C6F80090FFF7C1FD074605E00AE112
:101E5000FFF7BCFDC01B0228C4D828688007F7D54F
:101E60002868616920F0F80040EAC10028600DE0B0
:101E7000C6F80080FFF7AAFD074604E0FFF7A6FDBD
:101E8000C01B022823D828688007F7D420780007D1
:101E90002CD57948A169D9B1C0F80090FFF796FD1B
:101EA000074604E0FFF792FDC01B02280FD8686ABE
:101EB0008007F7D571484FF4FA510068B0FBF1F094
:101EC000009000BF0098411E0091FAD20EE080E021
:101ED000C0F80080FFF77AFD074604E0FFF776FDC3
:101EE000C01B022875D8686A8007F7D4207840079D
:101EF00060D5E8690027C00008D4E86940F0805048
:101F0000E861E869012700F0805000905C480168B2
:101F1000C90513D40168834641F480710160FFF75D
:101F200055FD824606E000BFFFF750FDA0EB0A001A
:101F300064284ED8DBF80000C005F5D5E06801281C
:101F40000AD008B1052813D0286A20F001002862C1
:101F5000286A20F0040002E0286A40F001002862AC
:101F6000E06841F2883B98B1FFF730FD82460BE014
:101F7000286A40F004002862EEE700BFFFF726FD64
:101F8000A0EB0A0159455AD8286A8007F6D50CE01B
:101F9000FFF71CFD824605E0FFF718FDA0EB0A01E4
:101FA00059454CD8286A8007F6D41FB1E86920F05B
:101FB0008050E861E06988B36968C1F38101022952
:101FC00044D00228C6F8608004D0FFF7FFFC044626
:101FD00038E034E0FFF7FAFC074604E0FFF7F6FCD0
:101FE000C01B02282BD828688001F7D4206AB0F5DE
:101FF000803F05D16868A16820F40030084368601C
:10200000D4E908010843696821F474110843686041
:10201000C6F86090FFF7DAFC044606E025E000BF52
:10202000FFF7D4FC001B022809D828688001F7D5E7
:102030001BE000BFFFF7CAFC001B022802D90320E7
:10204000BDE8F88F28688001F4D40EE00128F7D0AD
:102050006868226A00F48031914204D1616A00F418
:102060007010884201D00120EAE70020E8E7000074
:102070000010024000004242800442421C00002046
:10208000007000407047704770B590F83C20012AFE
:102090002CD0012480F83C40022280F83D200368C7
:1020A0005A689D6822F070060A6832435A60104BE5
:1020B00002689A420ED00F4B9A420BD0B2F1804F79
:1020C00008D00D4B9A4205D00C4B9A4202D00C4BD3
:1020D0009A4204D1496825F080031943916080F841
:1020E0003D40002180F83C10084670BD022070BDC4
:1020F000002C014000340140000400400008004072
:10210000000C004010B5040003D094F83D0010B15D
:1021100007E0012010BD002084F83C00204600F0BC
:102120001FF8022084F83D00211D206801F034F9D9
:10213000012084F8460084F83E0084F83F0084F8CB
:10214000400084F8410084F8420084F8430084F899
:10215000440084F8450084F83D00002010BD0000D4
:1021600008B500680649884208D10648C16941F0AF
:102170000201C161C06900F00200009008BD0000CA
:10218000000400400010024090F83D10012901D0E9
:1021900001207047022180F83D100168CA6842F0B2
:1021A0000102CA6000680E4988420ED00D4988427B
:1021B0000BD0B0F1804F08D00B49884205D00B49B5
:1021C000884202D00A49884204D1816801F007019F
:1021D000062903D0016841F0010101600020704729
:1021E000002C014000340140000400400008004081
:1021F000000C004070B5044690F83C000025012812
:1022000017D0012684F83C60022084F83D00206845
:10221000826822F0770222F47F42826008685028A8
:1022200038D00DDC20284FD005DC90B3102811D118
:102230004AE0022070BD302846D040280AD13BE059
:1022400060282FD070280DD0B0F5805F03D0B0F596
:10225000005F12D0012584F83D60002084F83C0026
:10226000284670BDCB68D1E90121206801F0E2F871
:102270002068816841F0770109E0CB68D1E901214C
:10228000206801F0D7F82068816841F480418160BE
:10229000E1E719E0CA684968206801F09FF9502118
:1022A000206806E0CA684968206801F0A8F9602142
:1022B000206801F0C9F8CEE7CA684968206801F0D3
:1022C0008DF940212068F4E7226801461046F0E7C6
:1022D0002DE9F0410D46040003D094F83D0018B1FB
:1022E00008E00120BDE8F081002084F83C00204691
:1022F00000F040F8022084F83D002068816844F234
:10230000070291438160211D206801F045F8226891
:1023100090689169166A2B68AF69034340F20330F5
:10232000814341EA0721A868EF6908434FF6FC4161
:102330008843E96840EA0720014328692F6A0001C1
:1023400040EA0730084369686D6926F0220646EACC
:102350000515294393602268906154F8460B016289
:10236000012004F81F09E0752076E0762077A0753B
:102370000020B7E700B585B00021009101910291DE
:1023800003911A4B02681A48C0219A4213D1C269BC
:1023900042F00402C261C26902F00402049282693E
:1023A00042F0080282618069009100F00800049008
:1023B0006946104815E0104B9A4214D1826942F4E4
:1023C00000528261826902F400520492826942F0F2
:1023D000100282618069009100F01000049069464B
:1023E0000648FFF7EDF905B000BD00000008004009
:1023F00000100240000C0140003401400010014078
:1024000070472DE9F04104460068C66805694FF041
:102410000007A90713D5B10711D5F91E01610120E5
:102420002077206880698007204602D0FFF7E8FF08
:1024300004E000F0B7F8204600F049F92777680774
:1024400016D5700714D521686FF0040008610220CA
:1024500020772068806910F4407F204602D0FFF783
:10246000CFFF04E000F09EF8204600F030F9277717
:10247000280715D5300713D521686FF008000861CB
:10248000042020772068C0698007204602D0FFF72B
:10249000B7FF04E000F086F8204600F018F927772F
:1024A000E80616D5F00614D521686FF01000086113
:1024B000082020772068C06910F4407F204602D0B1
:1024C000FFF79EFF04E000F06DF8204600F0FFF8F3
:1024D0002777E80708D0F00706D021686FF00100E1
:1024E0000861204600F0F4F8280608D5300606D525
:1024F00021686FF0800008612046FFF7C3FD680681
:1025000008D5700606D521686FF0400008612046A6
:1025100000F0E8F8A8060AD5B00608D521686FF0E3
:10252000200008612046BDE8F041FFF7ACBDBDE8E2
:10253000F081000010B586B0002100910191029158
:10254000039100681349884221D11348816941F001
:1025500004018161816901F004010491816941F004
:10256000080181618069022400F008000490C02005
:10257000CDE90004694609480394FFF721F90320D7
:10258000CDE90004694606480394FFF719F906B03F
:1025900010BD00000004004000100240000801408F
:1025A000000C0140704770B5044690F83C000026CE
:1025B0000D4601280FD0012084F83C006AB1042A9E
:1025C0001DD0082A2FD00C2A3FD00126002084F8E5
:1025D0003C00304670BD022070BD206800F03CFF1A
:1025E0002068816941F0080181612068816921F0DA
:1025F00004018161206881692A69114311E0206822
:1026000000F05AFF2068816941F40061816120680F
:10261000816921F480618161206881692A6941EAC8
:1026200002218161D2E7206800F07CFF2068C16947
:1026300041F00801C1612068C16921F00401C16154
:102640002068C1692A69114311E0206800F09EFFEB
:102650002068C16941F40061C1612068C16921F449
:102660008061C1612068C1692A6941EA0221C161B2
:10267000ACE710B5040003D094F83D0010B107E0BA
:10268000012010BD002084F83C00204600F01EF818
:10269000022084F83D00211D206800F07DFE01200D
:1026A00084F8460084F83E0084F83F0084F8400037
:1026B00084F8410084F8420084F8430084F8440020
:1026C00084F8450084F83D00002010BD7047704735
:1026D00000680349884201D1FFF77EB970470000C6
:1026E00000140040704770B5040004D094F8410015
:1026F000002510B106E0012070BD84F8405020464E
:1027000000F024F8242084F841002068C16821F4F6
:102710000051C160204600F0ABFF2068016921F440
:10272000904101612068416921F02A0141612068DE
:10273000C16841F40051C1606564202084F8410003
:1027400084F842006563002070BD000030B585B09C
:102750000024009401940294039400681449884270
:1027600024D11448816941F480418161816901F477
:1027700080410491816941F00401816180690E4DBD
:1027800000F0040004904FF40070009002200190CB
:102790000320039069462846FFF712F82815CDE973
:1027A0000004694628460294FFF70AF805B030BDD8
:1027B0000038014000100240000801402DE9F843B4
:1027C000044690F84100984616460D46202802D04F
:1027D0000220BDE8F88385B17EB10020606421202D
:1027E00084F84100FFF7F2F8A6848146E684A068E9
:1027F0002027B0F5805F02D003E00120E9E72069DF
:1028000010B12E4600250EE000260CE08021204667
:1028100000F08AFFA8B9C6B116F8010B216848601C
:10282000E08C401EE084E08C4B464FF00002CDF877
:1028300000800028EAD14FF04001204600F074FFEC
:1028400040B184F841700320C3E735F8020BC0F3B0
:102850000800E3E784F841700020BAE7FEE70000D3
:102860002DE9F041082405464FF40048E602134FD5
:1028700018E000BFFFF7A5F800F0A4F8280601D57E
:10288000012200E0002241463846FFF79AF8680628
:10289000050E00F097F8012231463846FFF791F80F
:1028A00000F090F8641EE4B24FF000023146384662
:1028B000E0D2BDE8F041FFF784B80000000C014011
:1028C00070B50122144DD40321462846FFF779F84C
:1028D000012291032846FFF774F800F073F82146AF
:1028E0002846FFF769F800280CD000222146284628
:1028F000FFF767F800F066F821462846FFF75CF816
:1029000008B1002070BD002221462846FFF759F883
:1029100000F058F8012070BD000C014070B5114D59
:102920004FF48044002221462846FFF74AF800F081
:1029300049F86600002231462846FFF742F800F0C9
:1029400041F8012221462846FFF73BF800F03AF80B
:10295000012231462846FFF734F8BDE8704000F008
:1029600031B80000000C014070B5154C4FF48045A3
:10297000002229462046FFF724F800F023F8012220
:10298000D60331462046FFF71CF800F01BF8012261
:1029900029462046FFF715F800F014F83146204686
:1029A000FFF70AF800284FF000022946204603D01E
:1029B000FFF707F8002070BDFFF703F8012070BD96
:1029C000000C014008B50A200090401E0090FCD188
:1029D00008BD00002DE9F04F8DB00CA906A8CDE987
:1029E00000010BAB07AA04A902A801F011FCBDF875
:1029F00018006F4CC0057DD5079805F07BFC6FF083
:102A00001D05294605F045FE0746E060089805F0DB
:102A100071FC294605F03DFE80462061099805F0CD
:102A200069FC294605F035FE064660610A9805F006
:102A300061FC294605F02DFE0546A06101213846BE
:102A400005F027FE314605F081FC06464FF0404771
:102A50003946404605F07AFC294605F077FC3146B8
:102A600005F0E2FA05F0B4FA00F06CFFDFF84491EB
:102A70004FF0663842464B4604F0D0FF04F04CFD60
:102A8000E06160690121054605F003FE82462946A2
:102A900005F05CFC054620693946074605F056FC02
:102AA000394605F053FC294605F01CFD4FF07E51D8
:102AB00005F0BAFA05F08CFA05460E460121E068E9
:102AC00005F0E7FD394605F041FC07465046A1698F
:102AD00005F03CFC394605F0A7FA05F079FA2A46DC
:102AE000334601F077F942464B4604F097FF04F075
:102AF00013FD00E040E02062A1690191084605F065
:102B000025FC616907460846009105F01FFC216914
:102B100006468B46584605F019FCE16805468A468C
:102B2000504605F013FC294605F07EFA314605F0C3
:102B3000D9FC394605F0D6FC05F04AFA05460E46A2
:102B40005046019905F002FC07465846009905F0E9
:102B5000FDFB394605F068FA012105F09AFD05F004
:102B600037FA2A46334601F035F942464B4604F01F
:102B700055FF04F0D1FC6062BDF9180010F0700F31
:102B800008D0BDF80810E180BDF80A102181BDF819
:102B90000C106181000708D5BDF810002080BDF839
:102BA00012006080BDF81400A0800DB0BDE8F08F69
:102BB000CC00002066A64C4070B502F0A1FA08B126
:102BC000002070BD2FA0FDF7A3FB782002F092FF3C
:102BD00008B135A04EE03FA0FDF79AFB782002F047
:102BE000C1F908B143A045E04EA0FDF791FB3220AA
:102BF00002F040FF08B154A03CE05CA0FDF788FB68
:102C000001F0FCFA08B163A034E071A0FDF780FB8D
:102C10007C48044602F06CF90546E01C02F068F9B5
:102C200045EAC005A01D02F063F945EA801080B2B4
:102C300001F0A2FC08B174A01CE07FA0FDF768FBC6
:102C400040F2731001F0B2F908B185A012E090A033
:102C5000FDF75EFB322001F0F7FB08B195A009E01B
:102C60009FA0FDF755FB03F097FC012002F028FE22
:102C700018B1A4A0FDF74CFBA2E7ADA0FDF748FBFF
:102C8000012070BD6D707520696E697469616C6931
:102C90007A6174696F6E20636F6D706C6574652EF8
:102CA0002E2E2E2E2E0A00006D70755F7365745FD8
:102CB00073656E736F7220636F6D65206163726FF1
:102CC0007373206572726F72202E2E2E2E2E2E0A96
:102CD000000000006D70755F7365745F73656E73DF
:102CE0006F7220636F6D706C657465202E2E2E2EB2
:102CF0002E2E0A006D70755F636F6E666967757260
:102D0000655F6669666F20636F6D65206163726FD2
:102D10007373206572726F72202E2E2E2E2E2E0A45
:102D2000000000006D70755F636F6E666967757295
:102D3000655F6669666F20636F6D706C6574652092
:102D40002E2E2E2E2E2E0A006D70755F7365745F09
:102D500073616D706C655F72617465206572726F0E
:102D600072202E2E2E2E2E2E0A0000006D70755F02
:102D70007365745F73616D706C655F7261746520FB
:102D8000636F6D706C657465202E2E2E2E2E2E0AAC
:102D900000000000646D705F6C6F61645F6D6F7444
:102DA000696F6E5F6472697665725F6669726D776E
:102DB00061726520636F6D65206163726F7373204C
:102DC0006572726F72202E2E2E2E2E2E0A0000009B
:102DD000646D705F6C6F61645F6D6F74696F6E5F5F
:102DE0006472697665725F6669726D77617265207B
:102DF000636F6D706C657465202E2E2E2E2E2E0A3C
:102E000000000000F4000020646D705F7365745F63
:102E10006F7269656E746174696F6E20636F6D6542
:102E2000206163726F7373206572726F72202E2E31
:102E30002E2E2E2E0A000000646D705F7365745F85
:102E40006F7269656E746174696F6E20636F6D7007
:102E50006C657465202E2E2E2E2E2E0A000000008A
:102E6000646D705F656E61626C655F6665617475E7
:102E7000726520636F6D65206163726F7373206587
:102E800072726F72202E2E2E2E2E2E0A000000003F
:102E9000646D705F656E61626C655F6665617475B7
:102EA000726520636F6D706C657465202E2E2E2EFA
:102EB0002E2E0A00646D705F7365745F6669666FBD
:102EC0005F7261746520636F6D65206163726F73FB
:102ED00073206572726F72202E2E2E2E2E2E0A00F7
:102EE000646D705F7365745F6669666F5F7261744D
:102EF0006520636F6D706C657465202E2E2E2E2EEE
:102F00002E0A00006D70755F7365745F646D705F8D
:102F1000737461746520636F6D65206163726F7394
:102F200073206572726F72202E2E2E2E2E2E0A00A6
:102F30006D70755F7365745F646D705F73746174D9
:102F40006520636F6D706C657465202E2E2E2E2E9D
:102F50002E0A000010B50B4A00210B4802F08CFE2F
:102F60000A4C084A002120602432094802F084FEFD
:102F7000044A606048320021064802F07DFEA060ED
:102F800010BD000010870008013300080000002079
:102F9000093300081132000830B585B000200090D8
:102FA0000190029003902048816941F020018161E5
:102FB000816901F020010491816941F0040181617E
:102FC000816901F004010491816941F00801816186
:102FD000816901F008010491816941F0100181616A
:102FE0008069124D00F010004FF44044049001221B
:102FF00021462846FEF7E5FC1120CDE900400120DE
:1030000002900320039069462846FEF7D9FB681515
:103010000090074801900220029069462846FEF77A
:10302000CFFB05B030BD000000100240000C014095
:103030000000111010B58EB0002407940894099474
:103040000A940B941C2168460C94FDF7D1FA2A4887
:103050002849C0E9001441F61F41C0E9024180211E
:1030600004618161FFF74EF808B1FEF795FB4FF45C
:103070008050079007A92048FFF7BCF808B1FEF779
:103080008BFB1D48FFF7F5FA08B1FEF785FB0B94A3
:103090000BA919480C94FEF7F7FF08B1FEF77CFB6B
:1030A0006020CDE90004029400226946124804948D
:1030B000FFF779FA08B1FEF76FFB042269460E4864
:1030C000FFF771FA08B1FEF767FB082269460A4864
:1030D000FFF769FA08B1FEF75FFB0C226946064864
:1030E000FFF761FA08B1FEF757FB0348FFF722FA32
:1030F0000EB010BD000400400001002010B58CB0DF
:1031000024216846FDF774FA0024164809941449EE
:103110000A94C0E900144FF6FF71C0E9024104614E
:1031200084610320CDE900040120CDE90204049468
:10313000CDE90540079469460A480894FFF7C8F8A6
:1031400008B1FEF729FB099409A906480A94FEF77D
:103150009BFF002801D0FEF71FFB0CB010BD000044
:10316000000800404801002010B58CB024216846BA
:10317000FDF73EFA00241648099414490A94C0E960
:1031800000144FF6FF71C0E902410461446184619B
:103190000320CDE900040120CDE902040494CDE927
:1031A0000540079469460A480894FFF791F808B16A
:1031B000FEF7F2FA099409A905480A94FEF764FF9C
:1031C000002801D0FEF7E8FA0CB010BD0034014031
:1031D000900100200C4810B50A4901604FF4E1311C
:1031E0004160002181600C22C160C0E9041281614C
:1031F000C161FFF778FA002803D0BDE81040FEF760
:10320000CBBA10BD00380140D8010020FEE7FEE730
:103210008AB00025FFF7D0FC044606E0642002F0E7
:10322000EFFCFFF7C9FC04466D1C14B9032DF5DB58
:103230002EE0FFF7CFFB1C48006804F0C9FE0646ED
:103240001A480F46006804F0C3FE05461848884631
:10325000006804F0BDFE0A4604A981E82501154A6C
:10326000CDE90867B2F900201349B1F900101348FD
:10327000B0F900008DE807001148B0F9003011489E
:10328000B0F900201048B0F9001010A0FDF740F888
:10329000322002F0B5FC002CCBD1322002F0B0FC81
:1032A000322002F0ADFCF8E7F0000020EC00002036
:1032B000E8000020D6000020D4000020D20000202A
:1032C000D0000020CE000020CC0000202536642C49
:1032D000202536642C202536642C202536642C20AD
:1032E0002536642C202536642C2025342E31662C7E
:1032F0002025342E31662C2025342E31660A00001C
:10330000012002F07DFCFBE7012002F079FCFBE7E5
:1033100010B54FF0E020006903F032FF012803D020
:10332000BDE8104003F060BC10BD30B58FB028215F
:103330006846FDF75DF914210AA8FDF759F9012146
:103340000804CDE900100024029402250491CDE97F
:1033500007504FF4E01009906846FEF703FD08B1EE
:1033600072B6FEE70F20CDE90A054FF48060CDE983
:103370000C4002210AA80E94FEF7F8FB002801D0A9
:1033800072B6FEE70FB030BD704700000148FFF78E
:1033900038B8000020020020F0B50268204C214D12
:1033A000214E224F224B4FF0804CA04209D0984230
:1033B00007D0604505D0A84203D0B04201D0B84242
:1033C00004D122F0700E4A6842EA0E02A04209D0EF
:1033D000984207D0604505D0A84203D0B04201D042
:1033E000B84203D122F44075CA682A434D6922F0DD
:1033F00080022A4302608A68C2620A688262A0422E
:1034000001D0984201D1096901630121416101693B
:10341000C90703D0016921F001010161F0BD00007D
:10342000002C01400004004000080040000C004057
:103430000034014010B5846842EA032224F47F443A
:103440000A432243826010BD826822F070020A4360
:1034500042F0070181607047F0B5036A026A22F00A
:103460000102026242688469124E24F073050C68FE
:103470002C4323F002058B682B430D4DA84201D04D
:10348000B04205D123F00807CB683B4323F0040387
:10349000A84201D0B04205D14D6922F440721543D3
:1034A0008A692A4342608461496841630362F0BDCE
:1034B000002C014000340140F0B5026A036A23F099
:1034C00010030362436884690D6824F4E64444EA07
:1034D00005248D6822F0200242EA05120F4D104E9D
:1034E000A84201D0B04206D1CF6822F0800242EA61
:1034F000071222F04002A84201D0B04207D14D6924
:1035000023F4406343EA85038D6943EA85034360FE
:103510008461496881630262F0BD0000002C0140B3
:1035200000340140F0B5026A036A23F48073036239
:103530004368C46922F4007224F073050C68124ECB
:103540002C438D6842EA05220E4DA84201D0B042BC
:1035500006D1CF6822F4006242EA072222F4806298
:10356000A84201D0B04207D14D6923F4405343EA49
:1035700005138D6943EA05134360C4614968C1635B
:103580000262F0BD002C01400034014030B5046AF5
:10359000026A22F4805202624268C3690D6823F411
:1035A000E64343EA05238D6824F4005444EA0534D5
:1035B000084DA84202D0084DA84204D14D6922F41A
:1035C000804242EA85124260C36149680164046234
:1035D00030BD0000002C01400034014010B5036AEA
:1035E000046A24F001040462846924F0F00444EACB
:1035F000021423F00A020A438461026210BD10B56E
:10360000036A046A24F010040462846923F0A003AE
:1036100024F4704444EA023243EA011182610162F7
:1036200010BD01680C3151E8002F22F4907241E87E
:103630000023002BF5D10168143151E8002F22F04E
:10364000010241E80023002BF5D1016B012909D1CA
:1036500001680C3151E8002F22F0100241E80023EC
:10366000002BF5D1202180F8421000210163704722
:1036700070B5044600680169E26821F440511143C5
:1036800001612169A0680843616908432168CA682B
:1036900041F20C639A430243CA6020684169A269FF
:1036A00021F44071114341611E492068884202D1D2
:1036B000FEF722FB01E0FEF70FFB00EBC00101EB80
:1036C0000012606864218000B2FBF0F3B3FBF1F3F9
:1036D0006FF018067343B2FBF0F5B2FBF0F605EBA2
:1036E0008305322303EB0515B5FBF1F5B6FBF1F6C7
:1036F00005F0F00505EB0615B2FBF0F6B2FBF0F0B5
:10370000B0FBF1F06FF01802504306EB800003EBC2
:103710000010B0FBF1F0216800F00F002844886031
:1037200070BD0000003801402DE9F8439846174667
:103730000D460446089E24E0701C22D0FEF746F990
:10374000A0EB0800B0421AD8CEB12068C168490782
:1037500017D5802D15D0402D13D00168C943090716
:103760000FD401680025406800902046FFF759FFFC
:103770000820606484F840500120BDE8F8830320ED
:10378000FBE72068006835EA000004D00020B8425A
:10379000D2D00020F1E70120F9E7FEE7490050EA26
:1037A000C12018BF04204A0D18BF40F0010040F2AC
:1037B000FF72B2EB515F08BF40F00200012808BF62
:1037C000052070470907090E002804DB00F1E020FE
:1037D00080F80014704700F00F0000F1E02080F83E
:1037E000141D70472DE9F0414F1E00EBC701044640
:1037F000D1E9000115461E4637F006020DD02A46D3
:10380000334604F00BF97F1E04EBC703D3E9002312
:1038100003F0B4FE37F00602F1D1022F25D0042FB9
:1038200013D0062F18BFBDE8F0812A46334604F0B6
:10383000F5F8D4E90A2303F0A1FE2A46334604F042
:10384000EDF8D4E9082303F099FE2A46334604F044
:10385000E5F8D4E9062303F091FE2A46334604F046
:10386000DDF8D4E9042303F089FE2A46334604F048
:10387000D5F8D4E9022303F081FE2A46334604F04A
:10388000CDF8D4E90023BDE8F04103F077BE012272
:1038900004F0D1BE03F072BE00221346104611465A
:1038A00003F028BF024A0020110704F0C4BE000044
:1038B00001FDFFFF30380A2801D2012070470020A7
:1038C000704770472DE9FE4F07460E4600256846B3
:1038D00001F002F800246FF00F0AE8464FF00109EA
:1038E00057F8240056F82410401A00D5404204F03E
:1038F00001FD514604F0CDFE58F8241011F0FF4FA1
:103900000BD004F0F9FB4FF07E5104F0EBFD0A49B7
:1039100020F00040884205DC07E0084908440849D7
:10392000884202D309FA04F00543641C032CD7DB58
:103930002846BDE8FE8F0000295C0F3E666666C122
:103940009A99D9002DE9F04D8D4F21F0004A86B0AB
:1039500005460C46BA452ADBAAEB070028430AD0E5
:103960008848824501DC1AD1CDB106B02846BDE8B1
:10397000F04DFFF78CBF844A844B284604F04EF884
:1039800007460E46824A834B2846214604F046F8F5
:1039900006B03A463346BDE8F04D03F0EFBD0120D6
:1039A000FCF7CDFE06B0BDE8F04DFFF775BF7A48D5
:1039B000824542DABAF1795F0BDA2846FFF7EEFE6C
:1039C000042808BFFFF76EFF284606B02146BDE871
:1039D000F08D2A460B46104604F020F88346024636
:1039E0006E480E460B4606217844FFF7FBFE5A460A
:1039F000334604F013F8804669488A465A463346EF
:103A000004217844FFF7EEFE5A46334604F006F8E8
:103A100000223B4603F0B2FD02460B4640465146AB
:103A200003F068FE2A46234603F0F8FF06B02A4654
:103A30002346BDE8F04D03F0A1BD284624F0004127
:103A400000223D463B4604F0E7F84FF0FF3204F019
:103A5000F2FD0646024653480F460B4606217844BF
:103A6000FFF7C0FE32463B4603F0D8FFCDE9000128
:103A70004D4832463B4604217844FFF7B3FE3246B8
:103A80003B4603F0CBFF00222B4603F077FD834635
:103A900002913046394602F013FE804643480D46F7
:103AA000504517DCDDE900015A46029B03F022FE77
:103AB00042462B4603F0B2FF42462B4603F05EFD22
:103AC000012204F0B8FD304A304B04F097F9304A37
:103AD000304B4CE04FF0000A52460B46404603F094
:103AE0004DFDCDE9031052462B461046194603F012
:103AF00095FF32463B4604F08FF8DDE9033203F0D0
:103B0000F9FD06460F46DDE900015A46029B03F027
:103B1000F1FD8346009101223046394604F08BFDC9
:103B2000194A1A4B04F078F806460F46012240461F
:103B3000294604F080FD5A46009B03F06FFF324691
:103B40003B4604F05BF906460F46012250462946E3
:103B500004F071FD0E4DDFF858802A46434604F00C
:103B60005BF832463B4604F057F82A46434604F0D9
:103B700053F8002CD8BF81F0004106B0BDE8F08DAD
:103B80000000F03F0000F07F075C143326A6913C54
:103B9000182D4454FB21F93F0000E03F045A000077
:103BA0001A5A00008E590000A45900003333EF3F29
:103BB000FB21E93F2DE9F84F04460D4621F0004076
:103BC00000917349814211DC7249884201DC06D1BF
:103BD0002CB120462946BDE8F84FFFF758BE6E4885
:103BE000002DCCBF6D496E49BDE8F88F6D4981420B
:103BF00011DD6D498142D8BF4FF0FF366DDD2046A3
:103C00002946FFF7CBFD042808BFFFF74BFE2046EF
:103C10002946BDE8F88F6549654F25F0004581428A
:103C200033DD6449814219DD002632464FF080437E
:103C30002046294603F0A2FC80468A4601222046FF
:103C4000294604F0F8FC00223B4604F0D7F842462F
:103C5000534603F04FFD04460D463EE00126002288
:103C6000BA463B462046294603F088FC80460F466C
:103C7000002253462046294604F0C0F842463B46FF
:103C800003F038FD04460D4627E04B4981421BDD19
:103C9000DFF828A10226002253462046294603F0D9
:103CA000BDFE00223B4603F069FC80460F46002221
:103CB00053462046294604F0A1F842463B4603F00D
:103CC00019FD04460D4608E0032622462B46002037
:103CD0003B4903F00FFD04460D4622462B46104695
:103CE000194603F09BFE8B46824602460B4603F0C4
:103CF00095FE07460246334888460B46062178441F
:103D0000FFF770FD52465B4603F088FE82462E4860
:103D10008B463A46434605217844FFF763FD3A4611
:103D2000434603F07BFE02460B46002E50465946A2
:103D30000CDA03F023FC22462B4603F06FFE01B0A1
:103D400022462B46BDE8F04F03F066BF03F016FC99
:103D500022462B4603F062FE1C4A7A4402EBC6035D
:103D6000D3E9002304F04AF822462B4604F046F833
:103D7000174A7A4402EBC603D3E9002303F04CFF51
:103D8000009A002AB8BF81F00041BDE8F88F00001A
:103D9000000010440000F07F182D4454FB21F93F2F
:103DA000FB21F9BF0000DC3F0000203E0000F33F94
:103DB0000000F03F0000E63F008003400000F83FB5
:103DC0000000F0BFA6570000645700000257000033
:103DD000CA5600002DE9F04D9446CCF1000423F0C2
:103DE00000464CEA0404594F46EAD4749A46884681
:103DF00021F00042BC4206D8454240EA050442EAAE
:103E0000D474BC4204D9BDE8F04D6246FFF742BD10
:103E1000AAF14055A5F17F6555EA0C040BD00224A8
:103E200004EAAA744A4DDFF82CE144EAD87452EA55
:103E3000000B04D00CE0BDE8F04DFFF7BBBE002C3A
:103E400014BF012CBDE8F08D022C30D0032C32D0F1
:103E500056EA0C0B0AD0BE4220D1BA4209D126F054
:103E6000804622F080423346114617E000291ADBD3
:103E700025E0DFF8E4B0FB44002C04BFDBE90001DF
:103E8000BDE8F08D012C02BFDBE9000181F00041AB
:103E9000BDE8F08D022C0AD0032C0CD0BA4212D10E
:103EA000B8F1000F0BDA2A482C49BDE8F08D2846FE
:103EB0002B49BDE8F08D28467146BDE8F08D2448B9
:103EC0002849BDE8F08D921B12153C2AC4BF204F33
:103ED000244E10DCBAF1000FBEBF12F13C0F0027D8
:103EE0003E4608DB624603F005FC21F00041FFF787
:103EF00061FE07460E4694B1012C08BF86F00046CD
:103F00000DD0194A194B022C3846314615D003F012
:103F100075FF2A46BDE8F04D114B03F06FBF00223C
:103F200013463846314603F03DFD04BF0220FCF73E
:103F300006FC38463146BDE8F08D03F05FFF2A46A7
:103F4000BDE8F04D064B03F067BE00000000F07FB7
:103F5000182D4454FB2109C05E560000FB21F9BF17
:103F6000FB210940FB21F93F075C143326A6A13C45
:103F700008B560B120208DF8000028208DF80100E0
:103F800030208DF8020038208DF8030004E0A322D1
:103F900004216846FCF724FB6A46042140F69E2073
:103FA00001F004FE01F0C2FA08BD00003EB504466F
:103FB00002208DF80000CA208DF80100E3208DF862
:103FC000020009208DF803006A460421682001F0F0
:103FD000EDFDA3208DF80000610609D5C0218DF804
:103FE0000110C8218DF80210C2218DF8031005E0E0
:103FF0008DF801008DF802008DF8030014F4C07FE5
:1040000009D0C4218DF80410CC218DF80510C621EB
:104010008DF8061005E08DF804008DF805008DF888
:1040200006008DF808008DF807008DF809006A4633
:104030000A2140F6A72001F0B9FDA0074FF0D805EE
:1040400003D020208DF8000001E08DF800506A4672
:10405000012140F6B62001F0A9FDA00601D50120FE
:1040600000E0002000F08EF814F4C07F1ED0E005C0
:104070000AD5B2208DF800008B208DF80100B62003
:104080008DF802009B2009E0B0208DF80000802010
:104090008DF80100B4208DF8020090208DF8030007
:1040A0006A46042140F6A22001F080FDE1074FF4AA
:1040B0000B6022D0F8218DF800106A46012101F032
:1040C00075FDFA21072000F047FB072000F012FBE6
:1040D000012000F02FFB642000F0D2FB4FF4FA70B7
:1040E00000F0DEFBC821254800F0CCFA282000F0C3
:1040F000E1FA0A2000F0EEFA05E08DF800506A4679
:10410000012101F053FDA00703D5D9208DF800004F
:1041100001E08DF800506A46012140F23D7001F047
:1041200045FD600701D5012000E0002000F048F8BF
:10413000E00601D5012000E00020FFF719FF104D37
:1041400044F00800688101F0F1F90020A8736006CE
:1041500001D50620A87314F4C07F02D0A87B801D6F
:10416000A87314F0140F02D0A87B1030A873A00716
:1041700002D0A87B001DA87300203EBD09E3CA023F
:104180003C1B00200EB54FF4976310B106A107C980
:1041900001E008A207CA8DE807006A46092118460F
:1041A00001F004FD0EBD0000B8AAB38DB4980D3522
:1041B0005D000000B8AAAAAAB088C3C5C700000065
:1041C00008B560B1C0208DF80000C2208DF8010054
:1041D000C4208DF80200C6208DF8030004E08B2275
:1041E00004216846FCF7FCF96A46042140F6982051
:1041F00001F0DCFC01F09AF908BD0000C8234FF47F
:104200008062024940F6F63001F072B8F887000883
:104210002DE9F04F89B01746DDE912520024534EC4
:10422000884681462C80A246B07B694601F00CF995
:104230004FF0FF3B18B1584609B0BDE8F08F7089C8
:1042400010F0140F4CD0BDF800109DF8022049BAB0
:10425000090441EA02239DF803100B433B60BDF8BB
:1042600004109DF8062049BA090441EA02229DF88B
:1042700007101B140A437A60BDF808109DF80A4025
:1042800049BA090441EA04219DF80B401214214364
:10429000B960BDF80C409DF80EC064BA240444EA2D
:1042A0000C2C9DF80F4009144CEA040CC7F80CC004
:1042B0004FEA2C475B43494302FB023207FB0711DD
:1042C00011441024A1F17061B1F1007F04D901F013
:1042D0002DF9A5F800A0AEE7298841F48071298066
:1042E0004206694611D50A19A41D13885BBAA8F8BD
:1042F000003053885BBAA8F80230928852BAA8F806
:1043000004202A8842F008022A8010F4C07F11D0CD
:104310000A19A41D13885BBAA9F8003053885BBA48
:10432000A9F80230928852BAA9F804202A8842F0EB
:1043300070022A80800716D00C44E07800F0C00597
:1043400000F03F016078C00706D0C80801F00701FF
:104350003268491C02B190476078000703D5716844
:1043600009B1A8098847002066E700003C1B00202F
:104370002DE9FF41044603A800F03CFEBDF80C0007
:10438000410CC3032F48008900F0030254F8225067
:10439000420700D56D42C0F3C102860654F82220C0
:1043A00000D55242C0F38116C00554F8264000D50E
:1043B0006442A5FB0367E81700FB037005FB0100DF
:1043C000850045EA9670A2FB0367D51705FB0375C8
:1043D00002FB0152950045EA9672A4FB0367E517BC
:1043E00005FB037304FB01318B0043EA9671030E56
:1043F0008DF80030030C8DF80130030A8DF802307F
:104400008DF80300100E8DF80400100C8DF80500D7
:10441000100A8DF80600080E8DF80800080C8DF8BB
:104420000900080A8DF80A008DF807208DF80B1096
:104430006A460C214FF4257001F0B8FB04B0BDE8CA
:10444000F08100003C1B002030B5044613A285B06B
:1044500007CA8DE807004FF0FF35C82C16D8C820D2
:10446000B0FBF4F1491E080A8DF80C008DF80D1010
:1044700003AA022140F2162001F098FB30B96A46E7
:104480000C2140F6C12001F091FB10B1284605B087
:1044900030BD054884810020F9E70000FEF2ABC47E
:1044A000AAF1DFDFBBAFDFDF3C1B0020F8B53049EE
:1044B000098901F0030250F822404A0700D56442FE
:1044C000C1F3C1028B0650F8222000D55242C1F33D
:1044D000811350F82330C80500D55B42254984FB81
:1044E0000140850045EA947082FB0142A40F44EA32
:1044F000820483FB0121950F45EA8105010E8DF8A9
:104500000010010C8DF80110010A8DF802108DF8D1
:1045100003006A4604214FF4747001F047FB4FF02A
:10452000FF3688B9200E8DF80000200C8DF80100B0
:10453000200A8DF802008DF803406A4604214FF4EA
:10454000757001F033FB08B13046F8BD280E8DF8C8
:104550000000280C8DF80100280A8DF802008DF863
:1045600003506A4604214FF4767001F01FFBF8BD3A
:104570003C1B002009E3CA022DE9FF4104463CA090
:1045800004F00303006802903AA0006803903AA088
:1045900006683AA0056802A8C15C8DF80010C4F353
:1045A000C101425C8DF80120C4F38112805C8DF85A
:1045B000020003A8C35C8DF80430415C8DF805103F
:1045C000805C8DF806006A46032140F2264001F027
:1045D000EDFA4FF0FF37E0BB01AA032140F22A4079
:1045E00001F0E4FAA8BBCDE9006560070BD59DF8A2
:1045F000000040F001008DF800009DF8040040F03C
:1046000001008DF80400A0060BD59DF8010040F0D4
:1046100001008DF801009DF8050040F001008DF8C3
:104620000500E0050BD59DF8020040F001008DF873
:1046300002009DF8060040F001008DF806006A4671
:1046400003214FF4886001F0B1FA10B901AA0321E7
:1046500000E004E040F2314001F0A8FA18B1384619
:1046600004B0BDE8F081064804810020F8E70000AE
:104670004CCD6C000CC92C003656760026466600E0
:104680003C1B00204FF47A7290FBF2F008B54843CF
:10469000010E8DF80010010C8DF80110010A8DF843
:1046A00002108DF803006A4604214FF4AE7001F049
:1046B0007DFA08BD0521B0FBF1F008B5010A8DF8BF
:1046C00000108DF801006A4602214FF4AD7001F030
:1046D0006DFA08BD0521B0FBF1F008B5010A8DF8AF
:1046E00000108DF801006A4602214FF4AC7001F011
:1046F0005DFA08BD08B500218DF80010C10702D091
:1047000030218DF80010810705D59DF8001041F08B
:104710000C018DF80010400705D59DF8000040F011
:1047200003008DF800006A4601214FF4A47001F0E7
:104730003DFA08BD08B560B1042800D90420401E28
:104740008DF800006A46012140F24F1001F02EFA68
:1047500008BD0120F3E700002DE9FC4105464007B4
:104760004FF0FF367CD0B1F5C86F79D8084603F01A
:10477000D9FD3E4903F0C0FC074601A800F01CFC2F
:104780009DF80400022806D004280DD008282ED059
:10479000102865D134E00E21384603F07AFF03F08B
:1047A00089FD84B2324907E00D21384603F071FFDC
:1047B00003F080FD2F4984B2384603F0C7FD03F0B3
:1047C00079FD210A8DF8001080B28DF80140010AB0
:1047D0008DF802108DF80300E8076C4620D02246C1
:1047E00002214FF4EA7001F0E1F9C8BB11E00C219D
:1047F000384603F04EFF03F05DFD84B21E49DBE74F
:104800000B21384603F045FF03F054FD84B21B49E9
:10481000D2E7A21C02214FF4927001F0C7F9F8B957
:10482000A8070DD56A4602214FF4EC7001F0BEF9DD
:10483000B0B9A21C02214FF4947001F0B7F978B915
:10484000680710D56A4602214FF4EE7001F0AEF908
:1048500030B9A21C02214FF4967001F0A7F910B1F3
:104860003046BDE8FC810020FBE700000000484323
:10487000000040460000C045000040450000C04424
:104880000521B0FBF1F008B5010A8DF800108DF894
:1048900001006A4602214FF4EF7001F087F908BD6C
:1048A0000521B0FBF1F008B5010A8DF800108DF874
:1048B00001006A4602214FF4ED7001F077F908BD5E
:1048C00013B54FF6FF73012269460248FDF776FFE4
:1048D00000981CBDD80100202DE9FE43064626485D
:1048E00001AB042240680D21007800F0EFFA10B10E
:1048F0000720BDE8FE839DF804101C2000EAD102C9
:104900009DF80710DFF87490C1F301131A438DF876
:1049100000209DF80520C1F3810300EAD2021A436A
:104920008DF801209DF8062001F0030100EAD20075
:1049300008430024124F8DF80200A0466D46285D02
:1049400010B146F824900AE046F824800DE000BF3C
:1049500056F82400394603F0F9FC46F82400285D97
:10496000401E10F0FF002855F2D1641CE4B2032C65
:10497000E5D30020BDE70000A00000207B14AE3E80
:104980001D5A843F2DE9FE4F05460120C14E8DF88A
:1049900000004FF000088DF8018030680C46174683
:1049A000817C70686B460222007800F098FA4FF024
:1049B000FF3A00287AD1C820FCF7F0FE8DF800807D
:1049C00030686B460122C17B7068007800F087FA7E
:1049D0000028EFD130686B46012241797068007879
:1049E00000F07DFA0028E5D130686B460122817C19
:1049F0007068007800F073FA0028DBD130686B46ED
:104A00000122C17D7068007800F069FA0028D1D1D8
:104A100030686B46012201797068007800F05FFA17
:104A20000028C7D14FF00C098DF8009030686B4614
:104A3000012201797068007800F051FA002835D120
:104A40000F20FCF7ABFEB06A6B460122407A8DF86E
:104A50000000306881787068007800F040FA002823
:104A600024D1B06A6B460122007A8DF800003068CC
:104A700041787068007800F032FA002873D1B06A8B
:104A8000807A0FB140F0E0008DF8000030686B468E
:104A9000012281797068007800F021FA002862D143
:104AA0002FB1B06AC07A40F0E00001E04AE018207F
:104AB0008DF8000030686B460122C179706800787B
:104AC00000F00DFAF0BB17B1C820FCF767FE4020DC
:104AD0008DF8000030686B4601220179706800781B
:104AE00000F0FDF970BB78208DF8000030686B464F
:104AF000012241797068007800F0F1F910BB322092
:104B0000FCF74CFE8DF80080306847466B464179D3
:104B100070680122007800F0E2F998B93168706895
:104B2000B046897A00786B46022200F0CFF948B986
:104B3000BDF80000AF6040BAB0FBF9F06F60C6B2DC
:104B40002F6000E00FE0A76067602760002739E072
:104B5000D8F80010D8F804006B46C97A00780C2207
:104B600000F0B4F910B15046BDE8FE8FBDF800006A
:104B7000236840BA02B2BDF80200BDF804101A441E
:104B8000226040BA626800B21044606049BAA0680E
:104B900009B20844A060BDF806002B6840BA01B213
:104BA000BDF80800BDF80A201944296040BA6968B8
:104BB00000B20844686052BAA86812B210447F1C60
:104BC000FFB2A860B742C3D328688322C117090483
:104BD00041EA104100040023FBF775FB3246002335
:104BE000FBF771FB286068688322C117090441EA5A
:104BF000104100040023FBF766FB32460023FBF75D
:104C000062FB6860A8688322C117090441EA104169
:104C100000040023FBF757FB32460023FBF753FB4E
:104C2000A86020684FF40065C117090441EA1041EB
:104C300000042A460023FBF746FB32460023FBF71D
:104C400042FB206060682A46C117090441EA10410E
:104C500000040023FBF737FB32460023FBF733FB4E
:104C60006060A0682A46C117090441EA10410004A7
:104C70000023FBF728FB32460023FBF724FBA06050
:104C8000002802DDA0F5803001E000F58030A06052
:104C9000002069E7A00000202DE9F84F81462E484A
:104CA0008846002540686B46032200780D2100F0FD
:104CB0000DF910B10720BDE8F88F9DF80000002421
:104CC00000F01F008DF800009DF801006FF00F0B41
:104CD00000F01F008DF801009DF802006E4600F004
:104CE0001F008DF802004FF0010A00BF59F8241090
:104CF00058F82400081A00D5404203F0FBFA594640
:104D000003F0C7FC0746305DC0B1144802E0144907
:104D100003F01CFB315D491E11F0FF013155F6D146
:104D20000146384603F0E8F94FF07E5103F0DAFB14
:104D30000C4920F00040884205DC07E00A4838446E
:104D4000B0F1D97F02D90AFA04F00543641C032CA0
:104D5000CCDB2846AFE70000A00000200000C841DF
:104D600054E3853F295C0F3E0000E0BE2DE9F0478B
:104D7000994616460D460446FDF7A2FD00281ED0B2
:104D80006006000EFDF76CFDFDF7EEFDA0B12846B4
:104D9000FDF766FDFDF7E8FDFDF792FD012000EB54
:104DA0004400C0B2FDF75CFDFDF7DEFD4FF4004AA4
:104DB000304D4FF4804850E0FDF7B0FD0020BDE8D5
:104DC000F0870024012251462846FCF7FAFD072708
:104DD0006006040E002241462846FCF7F2FDFDF76E
:104DE000F1FD012241462846FCF7EBFDFDF7EAFD07
:104DF00051462846FCF7E0FD08B144F001047F1E4F
:104E0000FFB2E5D20022474641462846FCF7D9FDCD
:104E100089F80040012E4FF000023946284622D082
:104E2000FCF7CFFDFDF7CEFD002251462846FCF7EA
:104E3000C8FDFDF7C7FD012239462846FCF7C1FD34
:104E4000FDF7C0FD002239462846FCF7BAFDFDF704
:104E5000B9FD761E09F10109F6B2002EB1D1FDF7B8
:104E60005DFD0120ABE7FCF7ACFDFDF7ABFD0122DA
:104E7000DBE70000000C01402DE9F0411E4615461D
:104E80000F460446FDF71CFD002819D06006000EF1
:104E9000FDF7E6FCFDF768FDA0B13846FDF7E0FC44
:104EA000FDF762FD002406E0305DFDF7D9FCFDF75B
:104EB0005BFD38B1641CAC42F6DBFDF72FFD012031
:104EC000BDE8F081FDF72AFD0020F9E710B5FFF7F6
:104ED0004DFF08B1002010BD4FF0FF3010BD10B5E0
:104EE000FFF7CAFF08B1002010BD4FF0FF3010BD22
:104EF00090F90010002902DD4FF00000704702DA3F
:104F00004FF00400704790F90110002902DD4FF0C6
:104F10000100704702DA4FF00500704790F9020077
:104F2000002802DD4FF00200704702DA4FF0060061
:104F300070474FF007007047FCF756FDFEF7F5F994
:104F4000FEF72AF8FEF776F8FEF744F9FEF7D6F8F2
:104F5000FEF70AF900F062FEFDF7FCFF00F070FEBC
:104F6000FEE700002DE9F041124C20F00101002580
:104F700094F8240010B10020BDE8F081A07A4FF031
:104F8000FF3668B10840277C2074884200D035463F
:104F900041B1012001F068FB00F0C8FA38B1277474
:104FA0003046E9E7207D00B1012001F05DFB284695
:104FB000E2E70000A00000200D494A7A42B1012A30
:104FC00008D0022A0FD0032A0FD04FF0FF307047CD
:104FD000022200E004220270C97C11B11106C90D41
:104FE0000170002070470822F5E71022F3E7000067
:104FF000A00000200F494A7A42B1012A09D0022AB2
:1050000011D0032A12D04FF0FF3070474FF4804286
:1050100001E04FF400520280C97C11B1C2F34E018D
:105020000180002070474FF48052F4E74FF4006293
:10503000F1E70000A00000200B49097A39B10129ED
:1050400007D002290AD003290BD0002103E0FA215E
:1050500001E04FF4FA710180002070474FF47A713B
:10506000F9E74FF4FA61F6E7A00000200A49097A4F
:1050700041B1012908D002290AD003290AD04FF0F2
:10508000FF307047054900E0054901600020704786
:105090000449FAE70449F8E7A000002000000343B0
:1050A0000000834233330342333383410C49C97ACE
:1050B000072913D2DFE801F01204060A0C0E1000D3
:1050C000BC2100E062210180002070472A21FAE71C
:1050D0001421F8E70A21F6E70521F4E70021F2E7B9
:1050E000A0000020054991F8242012B14FF0FF30B4
:1050F0007047C9890180002070470000A00000208F
:105100002DE9FC41544C80208DF8000020686B464E
:105110000122817C60680078FFF7E1FE4FF0FF37E5
:1051200008B14EA00FE0C820FCF738FB00258DF831
:10513000005020686B460122817C60680078FFF790
:10514000CEFE18B147A0FBF7E3F824E0C820FCF737
:1051500025FB20686B460622817D60680078FFF79A
:10516000B5FEC0B99DF805009DF80310C007400FBB
:1051700001F0010140EA41019DF801004FF00106F4
:1051800000F0010001430BD0012907D0022919D0FA
:1051900036A0FBF7BDF83846BDE8FC81E67412E0A6
:1051A00020686B460122C17860680078FFF78EFEA8
:1051B00008B138A0C7E79DF8000010F00F0021D01B
:1051C000042821D0E574FF2004F80A0F4FF6FF7180
:1051D00004F8020C04F8010C6070A180A071207228
:1051E000A67026766576E572A572E5602561656133
:1051F000A576E576A5834FF4FA6000F09DFB38B103
:1052000026A0A0E727489EE727A0FBF781F8C5E77F
:10521000022000F0B3FA08B12BA094E72A2000F096
:10522000F3FB08B12AA08EE7322000F023FC08B17E
:1052300029A088E70020FFF795FE08B128A082E7A3
:10524000002000F0CFFA08B127A07CE7002000F092
:1052500051FC0020A0E70000A00000203738310AF0
:10526000000000003739300A00000000556E7375E9
:1052700070706F7274656420736F667477617265A5
:105280002070726F64756374207265762025642EB9
:105290000A0000003831340A000000003837310AB3
:1052A000000000009895000848616C662073656EE8
:1052B0007369746976697479207061727420666F9D
:1052C000756E642E0A0000003837360A00000000B0
:1052D0003838310A000000003838360A0000000073
:1052E0003839310A000000003930360A0000000069
:1052F0002DE9FF4FDFF89480064685B098F8250029
:1053000015460F464FF0FF39B0BBAFB3002420E085
:10531000301B102800DD102080B283463A19014668
:105320009246204600F042FC30BB6A465946204671
:1053300000F0D2F800BB50465A466946FBF7DFF84A
:1053400020B16FF0010009B0BDE8F08F04EB0B0055
:1053500084B2B442DCD3280A8DF810008DF81150C5
:10536000D8F80000444604AB817ED8F8040002223D
:105370000078FFF7B4FD08B14846E4E7012084F85F
:1053800025000898E0840020DDE70000A000002050
:105390002DE9F84305464FF0FF39282844D8072760
:1053A000284C00267DB1012000F0FCFA20208DF869
:1053B00000004FF00108012D17D0052D18D88DF8E9
:1053C000018005201FE0002000F0ECFA8DF800605D
:1053D0008DF8017020686B460222817C606800783D
:1053E000FFF77DFD00BB267529E08DF80160E8E739
:1053F000142D04D802208DF801000A2003E00320B8
:105400008DF80100142000F0FFFA9DF801006B46B2
:1054100007EB80108DF8010020680222817C606813
:105420000078FFF75CFD10B14846BDE8F88308201E
:10543000A072267384F814800020FFF793FD0020EB
:10544000F3E70000A00000202DE9F843214C0646B8
:10545000174694F8240089464FF0FF3890B3A07A9D
:1054600080B320686B460222817A60680078FFF77B
:105470002DFD38BBBDF8000045BAB54202D2002070
:1054800038701FE060684188B5EB510F11D9216871
:1054900000786B46497C0122FFF718FD90B99DF812
:1054A0000000C00605D500F041F86FF00100BDE82E
:1054B000F8832068F2B24B46C17A60680078FFF743
:1054C00005FD08B14046F2E7B5FBF6F0401E387026
:1054D0000020ECE7A0000020F8B516000D464FF0C4
:1054E000FF371FD0104CA17AE1B1010A8DF80010EE
:1054F000C0B28DF80100411960684289914211D80B
:10550000216800786B46097E0222FFF7E8FC48B963
:105510002068EAB23346417D60680078FFF7D6FC28
:10552000002800D03846F8BDA0000020F8B5564C41
:105530004FF0FF36A07A00287DD000258DF800506E
:1055400020686B460122C17B60680078FFF7C7FCCA
:10555000002870D120686B4601224179606800788C
:10556000FFF7BDFC002866D120686B460122017957
:1055700060680078FFF7B3FC00285CD194F8240041
:10558000E0B30C208DF8000020686B460122017901
:1055900060680078FFF7A3FC002872D13220FCF786
:1055A000FDF8C0208DF80000A07AC00702D0E020EE
:1055B0008DF8000020686B46012201796068007850
:1055C000FFF78DFC00285CD1607C18B102208DF8BB
:1055D000000001E08DF8005020686B460122C17B7D
:1055E00060680078FFF77BFC28BB8DF800502068CE
:1055F0006B4601224179606800783EE0FFE70420B5
:105600008DF8000020686B460122017960680078FF
:10561000FFF765FC78B9A07C90B9A07AC0070FD0DD
:105620005FF060008DF8000020686B460122017970
:105630006068007800E024E0FFF751FC08BB01E05F
:105640004020EFE73220FCF7A9F8607C18B1012078
:105650008DF8000001E08DF8005020686B460122B3
:10566000C17B60680078FFF73AFC50B92068064BB0
:1056700001224179606810330078FFF730FC002880
:1056800000D03046F8BD0000A00000202DE9F04712
:10569000394C82468AB094F82400894620B1002013
:1056A00000F00EF9012600E0002607A8FFF7C4FC71
:1056B00006A8FFF781FC09A8FFF7F8FC08A8FFF788
:1056C00011FD94F80A80277C0025002249465046A7
:1056D000FFF758F910B16D1C022DF6DB022D1AD020
:1056E0000025012203A96846FFF74CF910B16D1C93
:1056F000022DF6DB022D0ED003A94846FEF7E2F894
:10570000C5B269465046FFF7C7FA10F0FF0F4FF0D9
:10571000000002D002E0002505E001200DB940F0B4
:10572000020040F00405FF2020726072E0724FF624
:10573000FF71E181A072207401202073BDF81C006C
:1057400000F0FAF89DF8180000F018F8BDF82400F1
:1057500000F05AF9BDF8200000F08CF9404600F046
:10576000C9F93846FFF7FEFB16B1012000F0A8F892
:105770000AB02846BDE8F087A000002038B5184CD4
:105780004FF0FF35A17A19B3022806D0042806D0BD
:1057900008280ED010281BD10DE0002000E00820C2
:1057A0008DF80000607A9DF80010B0EBD10F04D0A6
:1057B00005E01020F4E71820F2E7002038BD20684B
:1057C0006B460122C17960680078FFF788FB08B159
:1057D000284638BD9DF80000C0086072EDE7000063
:1057E000A0000020F8B5354C0546A07CA84201D1A8
:1057F0000020F8BD31484FF0FF366B46D0E900106D
:105800004FF001020979007835B3FFF75FFB70BBF9
:105810009DF800006B4620F020008DF80000206805
:105820000122017960680078FFF759FBF8B903207D
:10583000FBF7B4FF02208DF8000094F8220078B343
:1058400082202BE020686B460122017D6068007891
:10585000FFF745FB58B92EE0FFF738FB38B9A07ABF
:10586000C0079DF8000003D040F0200002E00CE0EB
:1058700020F020008DF8000020686B46012201799D
:1058800060680078FFF72BFB08B13046F8BD0320B5
:10589000FBF784FF94F8220000B180208DF800000F
:1058A00094F823000028CDD09DF8000040F030008F
:1058B0008DF80000C6E7A5749AE70000A00000205C
:1058C00038B51C4C94F8241081421DD0002500B33B
:1058D00094F82500D0B1002000F0C6FE0020FFF7AC
:1058E00081FFE08C00F0C6F88DF8005060686B46D0
:1058F000012200782321FFF7F2FA012084F8240026
:1059000000F0B2FEFFF712FE002038BD4FF0FF306E
:1059100038BD002000F0A8FE207C8DF800006068F3
:105920006B46012200782321FFF7D9FA84F824502E
:10593000E8E70000A000002038B5194C4FF0FF3513
:10594000A17A31B3FA2809D0B0F5FA7F08D0B0F5C2
:105950007A7F0FD0B0F5FA6F1BD10DE0002000E088
:1059600008208DF80000207A9DF80010B0EBD10FD0
:1059700004D005E01020F4E71820F2E7002038BD3D
:1059800020686B460122817960680078FFF7A7FAEA
:1059900008B1284638BD9DF80000C0082072EDE728
:1059A000A000002038B5174C054694F82300A84203
:1059B00001D1002038BD0DB1302000E000208DF86D
:1059C0000000A07C28B19DF8000040F002008DF896
:1059D000000094F8220028B19DF8000040F08000FB
:1059E0008DF8000020686B460122017D6068007818
:1059F000FFF775FA10B14FF0FF3038BD84F823502F
:105A0000D7E70000A000002038B5194C4FF0FF3553
:105A1000A17A31B3BC2801D3012010E0622801D360
:105A200002200CE02A2801D3032008E0142801D327
:105A3000042004E00A2801D3052000E006208DF8A8
:105A40000000E07A9DF80010884201D1002038BDA6
:105A500020686B460122817860680078FFF73FFA82
:105A600008B1284638BD9DF80000E072EEE700005E
:105A7000A0000020F8B51E4D04464FF0FF37A87A6D
:105A800048B395F8240030BB287D4FF47A7648B1AE
:105A900064B1282C03D8E0B2FFF77AFC26E000209E
:105AA000FFF776FC042C05D2042406E00020FFF763
:105AB0006FFCF9E7B44200D93446B6FBF4F0401E5F
:105AC0008DF8000028686B460122417868680078EC
:105AD000FFF705FA08B13846F8BD9DF80000401CF4
